{"contracts/landregistry.sol":{"landregistry":{"abi":[{"inputs":[],"stateMutability":"nonpayable","type":"constructor"},{"anonymous":false,"inputs":[{"indexed":true,"internalType":"uint256","name":"landId","type":"uint256"},{"indexed":true,"internalType":"address","name":"inspector","type":"address"}],"name":"LandRejected","type":"event"},{"anonymous":false,"inputs":[{"indexed":true,"internalType":"address","name":"buyer","type":"address"},{"indexed":true,"internalType":"address","name":"seller","type":"address"},{"indexed":false,"internalType":"uint256","name":"landPrice","type":"uint256"},{"indexed":false,"internalType":"uint256","name":"amountPaid","type":"uint256"}],"name":"Purchase","type":"event"},{"inputs":[{"internalType":"address","name":"","type":"address"}],"name":"InspectorMapping","outputs":[{"internalType":"uint256","name":"id","type":"uint256"},{"internalType":"address","name":"_addr","type":"address"},{"internalType":"string","name":"name","type":"string"},{"internalType":"uint256","name":"cnic","type":"uint256"},{"internalType":"uint256","name":"age","type":"uint256"},{"internalType":"string","name":"designation","type":"string"},{"internalType":"string","name":"city","type":"string"}],"stateMutability":"view","type":"function"},{"inputs":[{"internalType":"uint256","name":"","type":"uint256"}],"name":"LandRequestMapping","outputs":[{"internalType":"uint256","name":"reqId","type":"uint256"},{"internalType":"address payable","name":"sellerId","type":"address"},{"internalType":"address payable","name":"buyerId","type":"address"},{"internalType":"uint256","name":"landId","type":"uint256"},{"internalType":"string","name":"buyerMessage","type":"string"},{"internalType":"enum landregistry.reqStatus","name":"requestStatus","type":"uint8"},{"internalType":"bool","name":"isPaymentDone","type":"bool"}],"stateMutability":"view","type":"function"},{"inputs":[],"name":"ReturnAllLandIncpectorList","outputs":[{"internalType":"address[]","name":"","type":"address[]"}],"stateMutability":"view","type":"function"},{"inputs":[],"name":"ReturnAllLandList","outputs":[{"internalType":"uint256[]","name":"","type":"uint256[]"}],"stateMutability":"view","type":"function"},{"inputs":[],"name":"ReturnAllUserList","outputs":[{"internalType":"address[]","name":"","type":"address[]"}],"stateMutability":"view","type":"function"},{"inputs":[{"internalType":"address","name":"","type":"address"}],"name":"UserMapping","outputs":[{"internalType":"address","name":"id","type":"address"},{"internalType":"string","name":"name","type":"string"},{"internalType":"uint256","name":"age","type":"uint256"},{"internalType":"string","name":"city","type":"string"},{"internalType":"string","name":"cinc","type":"string"},{"internalType":"string","name":"document","type":"string"},{"internalType":"string","name":"email","type":"string"},{"internalType":"bool","name":"isUserVerified","type":"bool"},{"internalType":"string","name":"profilePic","type":"string"}],"stateMutability":"view","type":"function"},{"inputs":[{"internalType":"uint256","name":"_requestId","type":"uint256"}],"name":"acceptRequest","outputs":[],"stateMutability":"nonpayable","type":"function"},{"inputs":[{"internalType":"uint256","name":"_area","type":"uint256"},{"internalType":"string","name":"_address","type":"string"},{"internalType":"uint256","name":"_landPrice","type":"uint256"},{"internalType":"string","name":"_allLatiLongi","type":"string"},{"internalType":"uint256","name":"_propertyPID","type":"uint256"},{"internalType":"string","name":"_surveyNum","type":"string"},{"internalType":"string","name":"_document","type":"string"},{"internalType":"string","name":"_landpic","type":"string"}],"name":"addLand","outputs":[],"stateMutability":"nonpayable","type":"function"},{"inputs":[{"internalType":"address","name":"_addr","type":"address"},{"internalType":"string","name":"_name","type":"string"},{"internalType":"uint256","name":"_cnic","type":"uint256"},{"internalType":"uint256","name":"_age","type":"uint256"},{"internalType":"string","name":"_designation","type":"string"},{"internalType":"string","name":"_city","type":"string"}],"name":"addLandInspector","outputs":[{"internalType":"bool","name":"","type":"bool"}],"stateMutability":"nonpayable","type":"function"},{"inputs":[{"internalType":"uint256","name":"_landId","type":"uint256"}],"name":"cancelLandSale","outputs":[],"stateMutability":"nonpayable","type":"function"},{"inputs":[{"internalType":"address","name":"_addr","type":"address"}],"name":"changeContractOwner","outputs":[],"stateMutability":"nonpayable","type":"function"},{"inputs":[{"internalType":"uint256","name":"_landId","type":"uint256"},{"internalType":"uint256","name":"_price","type":"uint256"}],"name":"chnageLandPrice","outputs":[],"stateMutability":"nonpayable","type":"function"},{"inputs":[],"name":"documentId","outputs":[{"internalType":"uint256","name":"","type":"uint256"}],"stateMutability":"view","type":"function"},{"inputs":[],"name":"getTotalLands","outputs":[{"internalType":"uint256","name":"","type":"uint256"}],"stateMutability":"view","type":"function"},{"inputs":[],"name":"getTotalPaymentDoneLands","outputs":[{"internalType":"uint256","name":"","type":"uint256"}],"stateMutability":"view","type":"function"},{"inputs":[],"name":"getTotalRegisteredLands","outputs":[{"internalType":"uint256","name":"","type":"uint256"}],"stateMutability":"view","type":"function"},{"inputs":[],"name":"getTotalRequests","outputs":[{"internalType":"uint256","name":"","type":"uint256"}],"stateMutability":"view","type":"function"},{"inputs":[],"name":"getTotalUnverifiedLands","outputs":[{"internalType":"uint256","name":"","type":"uint256"}],"stateMutability":"view","type":"function"},{"inputs":[],"name":"getTotalUnverifiedUsers","outputs":[{"internalType":"uint256","name":"","type":"uint256"}],"stateMutability":"view","type":"function"},{"inputs":[],"name":"getTotalVerifiedUsers","outputs":[{"internalType":"uint256","name":"","type":"uint256"}],"stateMutability":"view","type":"function"},{"inputs":[{"internalType":"address","name":"id","type":"address"}],"name":"getUserProfilePic","outputs":[{"internalType":"string","name":"","type":"string"}],"stateMutability":"view","type":"function"},{"inputs":[],"name":"inspectorsCount","outputs":[{"internalType":"uint256","name":"","type":"uint256"}],"stateMutability":"view","type":"function"},{"inputs":[{"internalType":"address","name":"_addr","type":"address"}],"name":"isContractOwner","outputs":[{"internalType":"bool","name":"","type":"bool"}],"stateMutability":"view","type":"function"},{"inputs":[{"internalType":"address","name":"_id","type":"address"}],"name":"isLandInspector","outputs":[{"internalType":"bool","name":"","type":"bool"}],"stateMutability":"view","type":"function"},{"inputs":[{"internalType":"uint256","name":"id","type":"uint256"}],"name":"isLandVerified","outputs":[{"internalType":"bool","name":"","type":"bool"}],"stateMutability":"view","type":"function"},{"inputs":[{"internalType":"address","name":"_addr","type":"address"}],"name":"isUserRegistered","outputs":[{"internalType":"bool","name":"","type":"bool"}],"stateMutability":"view","type":"function"},{"inputs":[{"internalType":"address","name":"_addr","type":"address"}],"name":"isUserRejected","outputs":[{"internalType":"bool","name":"","type":"bool"}],"stateMutability":"view","type":"function"},{"inputs":[{"internalType":"address","name":"id","type":"address"}],"name":"isUserVerified","outputs":[{"internalType":"bool","name":"","type":"bool"}],"stateMutability":"view","type":"function"},{"inputs":[{"internalType":"uint256","name":"id","type":"uint256"}],"name":"landPrice","outputs":[{"internalType":"uint256","name":"","type":"uint256"}],"stateMutability":"view","type":"function"},{"inputs":[{"internalType":"uint256","name":"","type":"uint256"}],"name":"lands","outputs":[{"internalType":"uint256","name":"id","type":"uint256"},{"internalType":"uint256","name":"area","type":"uint256"},{"internalType":"string","name":"landAddress","type":"string"},{"internalType":"uint256","name":"landPrice","type":"uint256"},{"internalType":"string","name":"allLatitudeLongitude","type":"string"},{"internalType":"uint256","name":"propertyPID","type":"uint256"},{"internalType":"string","name":"physicalSurveyNumber","type":"string"},{"internalType":"string","name":"document","type":"string"},{"internalType":"string","name":"landpic","type":"string"},{"internalType":"bool","name":"isforSell","type":"bool"},{"internalType":"address payable","name":"ownerAddress","type":"address"},{"internalType":"bool","name":"isLandVerified","type":"bool"}],"stateMutability":"view","type":"function"},{"inputs":[],"name":"landsCount","outputs":[{"internalType":"uint256","name":"","type":"uint256"}],"stateMutability":"view","type":"function"},{"inputs":[{"internalType":"uint256","name":"id","type":"uint256"}],"name":"makeItforSell","outputs":[],"stateMutability":"nonpayable","type":"function"},{"inputs":[{"internalType":"address payable","name":"_receiver","type":"address"},{"internalType":"uint256","name":"_requestId","type":"uint256"}],"name":"makePayment","outputs":[],"stateMutability":"payable","type":"function"},{"inputs":[{"internalType":"address","name":"id","type":"address"}],"name":"myAllLands","outputs":[{"internalType":"uint256[]","name":"","type":"uint256[]"}],"stateMutability":"view","type":"function"},{"inputs":[],"name":"myReceivedLandRequests","outputs":[{"internalType":"uint256[]","name":"","type":"uint256[]"}],"stateMutability":"view","type":"function"},{"inputs":[],"name":"mySentLandRequests","outputs":[{"internalType":"uint256[]","name":"","type":"uint256[]"}],"stateMutability":"view","type":"function"},{"inputs":[{"internalType":"string","name":"_name","type":"string"},{"internalType":"uint256","name":"_age","type":"uint256"},{"internalType":"string","name":"_city","type":"string"},{"internalType":"string","name":"_cinc","type":"string"},{"internalType":"string","name":"_document","type":"string"},{"internalType":"string","name":"_profilePic","type":"string"},{"internalType":"string","name":"_email","type":"string"}],"name":"registerUser","outputs":[],"stateMutability":"nonpayable","type":"function"},{"inputs":[{"internalType":"uint256","name":"_landId","type":"uint256"}],"name":"rejectAndRemoveLand","outputs":[],"stateMutability":"nonpayable","type":"function"},{"inputs":[{"internalType":"uint256","name":"_requestId","type":"uint256"}],"name":"rejectRequest","outputs":[],"stateMutability":"nonpayable","type":"function"},{"inputs":[{"internalType":"address","name":"_userId","type":"address"}],"name":"rejectUser","outputs":[],"stateMutability":"nonpayable","type":"function"},{"inputs":[{"internalType":"address","name":"","type":"address"}],"name":"rejectedUsers","outputs":[{"internalType":"bool","name":"","type":"bool"}],"stateMutability":"view","type":"function"},{"inputs":[{"internalType":"address","name":"_addr","type":"address"}],"name":"removeLandInspector","outputs":[],"stateMutability":"nonpayable","type":"function"},{"inputs":[],"name":"requestCount","outputs":[{"internalType":"uint256","name":"","type":"uint256"}],"stateMutability":"view","type":"function"},{"inputs":[{"internalType":"uint256","name":"id","type":"uint256"}],"name":"requesteStatus","outputs":[{"internalType":"bool","name":"","type":"bool"}],"stateMutability":"view","type":"function"},{"inputs":[{"internalType":"uint256","name":"_landId","type":"uint256"},{"internalType":"string","name":"_message","type":"string"}],"name":"requestforBuy","outputs":[],"stateMutability":"nonpayable","type":"function"},{"inputs":[],"name":"returnPaymentDoneList","outputs":[{"internalType":"uint256[]","name":"","type":"uint256[]"}],"stateMutability":"view","type":"function"},{"inputs":[{"internalType":"string","name":"_profilePic","type":"string"}],"name":"setProfilePic","outputs":[],"stateMutability":"nonpayable","type":"function"},{"inputs":[{"internalType":"uint256","name":"_requestId","type":"uint256"},{"internalType":"string","name":"documentUrl","type":"string"}],"name":"transferOwnership","outputs":[{"internalType":"bool","name":"","type":"bool"}],"stateMutability":"nonpayable","type":"function"},{"inputs":[],"name":"userCount","outputs":[{"internalType":"uint256","name":"","type":"uint256"}],"stateMutability":"view","type":"function"},{"inputs":[{"internalType":"address","name":"","type":"address"},{"internalType":"uint256","name":"","type":"uint256"}],"name":"userLandRequestSent","outputs":[{"internalType":"bool","name":"","type":"bool"}],"stateMutability":"view","type":"function"},{"inputs":[{"internalType":"uint256","name":"_id","type":"uint256"}],"name":"verifyLand","outputs":[],"stateMutability":"nonpayable","type":"function"},{"inputs":[{"internalType":"address","name":"_userId","type":"address"}],"name":"verifyUser","outputs":[],"stateMutability":"nonpayable","type":"function"},{"stateMutability":"payable","type":"receive"}],"evm":{"bytecode":{"linkReferences":{},"object":"608060405234801561001057600080fd5b50600080546001600160a01b03191633179055614747806100326000396000f3fe6080604052600436106103035760003560e01c8063842e7dba11610190578063d61ff68c116100dc578063e87596c011610095578063f98cf07c1161006f578063f98cf07c146108d3578063f9c43bdf146108e6578063fa02454914610906578063fa1e178e146109265761030a565b8063e87596c01461087e578063edfbe2471461089e578063f0e22d52146108be5761030a565b8063d61ff68c14610791578063d72ca9ec146107c6578063d8513de4146107e6578063de11768814610806578063e165af8714610826578063e261f1e5146108465761030a565b80639c32e3b411610149578063b10a30ed11610123578063b10a30ed14610709578063c26e11eb1461073c578063d196ebf21461075c578063d251839b1461077c5761030a565b80639c32e3b4146106bf578063a846fc8f146106d4578063ace417e0146106e95761030a565b8063842e7dba1461035c5780638570c30014610640578063864f4a4b146106605780638c1f3a8c14610675578063941e24261461068a5780639684806d1461069f5761030a565b80634d8131201161024f57806364efa002116102085780636cbf6cf8116101e25780636cbf6cf8146105cb57806371b5d9ed146105eb5780637517e00f1461060b57806378f7c83f1461062b5761030a565b806364efa0021461054b5780636727d8271461057e578063693f3231146105ab5761030a565b80634d8131201461049f5780634dc92885146104bf578063553a998d146104df578063592a3fcf146105015780635badbe4c146105215780635eb43181146105365761030a565b806323393d77116102bc5780633ead67b5116102965780633ead67b51461042a578063416f958f1461044a578063499701b21461046a5780634ba1f0981461047f5761030a565b806323393d77146103d357806327c3d3ad146103f55780632d7788db1461040a5761030a565b8063011f2cce1461030f57806307973ccf14610331578063144177071461035c578063163f7522146103715780631c9afd0f1461039e57806322748ab0146103b35761030a565b3661030a57005b600080fd5b34801561031b57600080fd5b5061032f61032a366004613bd6565b610946565b005b34801561033d57600080fd5b506103466109ad565b6040516103539190614402565b60405180910390f35b34801561036857600080fd5b506103466109b3565b34801561037d57600080fd5b5061039161038c366004613acd565b6109b9565b6040516103539190613ffc565b3480156103aa57600080fd5b506103466109eb565b3480156103bf57600080fd5b506103916103ce366004613b1b565b6109f1565b3480156103df57600080fd5b506103e8610b94565b6040516103539190613fc4565b34801561040157600080fd5b50610346610c02565b34801561041657600080fd5b5061032f610425366004613d0a565b610c57565b34801561043657600080fd5b5061032f610445366004613acd565b610d2e565b34801561045657600080fd5b5061032f610465366004613d67565b610d7a565b34801561047657600080fd5b506103e8610faa565b34801561048b57600080fd5b5061032f61049a366004613d0a565b611009565b3480156104ab57600080fd5b5061032f6104ba366004613acd565b61107f565b3480156104cb57600080fd5b5061032f6104da366004613acd565b6110f3565b3480156104eb57600080fd5b506104f4611595565b6040516103539190613f77565b34801561050d57600080fd5b5061032f61051c366004613e50565b61160c565b34801561052d57600080fd5b5061034661179b565b34801561054257600080fd5b506103466117a1565b34801561055757600080fd5b5061056b610566366004613acd565b6117d0565b604051610353979695949392919061447e565b34801561058a57600080fd5b5061059e610599366004613acd565b6119ad565b6040516103539190614007565b3480156105b757600080fd5b5061032f6105c6366004613d22565b611a98565b3480156105d757600080fd5b506103916105e6366004613d0a565b611cac565b3480156105f757600080fd5b50610391610606366004613acd565b611ccb565b34801561061757600080fd5b5061032f610626366004613acd565b611ce0565b34801561063757600080fd5b50610346611f1b565b34801561064c57600080fd5b5061039161065b366004613bc4565b611f21565b34801561066c57600080fd5b50610346611f41565b34801561068157600080fd5b50610346611fb7565b34801561069657600080fd5b5061034661202e565b3480156106ab57600080fd5b5061032f6106ba366004613d0a565b612034565b3480156106cb57600080fd5b506103e8612372565b3480156106e057600080fd5b506103e86123d1565b3480156106f557600080fd5b50610391610704366004613acd565b61244f565b34801561071557600080fd5b50610729610724366004613d0a565b612470565b604051610353979695949392919061440b565b34801561074857600080fd5b5061032f610757366004613d0a565b612548565b34801561076857600080fd5b506103e8610777366004613acd565b612591565b34801561078857600080fd5b506104f46125fc565b34801561079d57600080fd5b506107b16107ac366004613acd565b612672565b60405161035399989796959493929190613ecf565b3480156107d257600080fd5b506103466107e1366004613d0a565b6129fc565b3480156107f257600080fd5b50610391610801366004613d0a565b612a11565b34801561081257600080fd5b50610391610821366004613acd565b612a2e565b34801561083257600080fd5b50610391610841366004613acd565b612a4d565b34801561085257600080fd5b50610866610861366004613d0a565b612a76565b6040516103539c9b9a999897969594939291906144f6565b34801561088a57600080fd5b5061032f610899366004613d0a565b612d89565b3480156108aa57600080fd5b5061032f6108b9366004613c11565b613227565b3480156108ca57600080fd5b50610346613452565b61032f6108e1366004613af0565b613458565b3480156108f257600080fd5b5061032f610901366004613d0a565b61362f565b34801561091257600080fd5b50610391610921366004613d22565b613665565b34801561093257600080fd5b50610391610941366004613acd565b61393c565b336000908152600d602052604090205460ff1615156001146109835760405162461bcd60e51b815260040161097a906140a2565b60405180910390fd5b336000908152600a6020908152604090912082516109a99260089092019184019061395a565b5050565b60025481565b60035490565b6001600160a01b0381166000908152600d602052604081205460ff16156109e2575060016109e6565b5060005b919050565b60035481565b600080546001600160a01b03163314610a1c5760405162461bcd60e51b815260040161097a9061414c565b6001600160a01b03871660009081526009602052604090205460ff1615610a555760405162461bcd60e51b815260040161097a90614392565b6001600160a01b038088166000818152600960209081526040808320805460ff191660019081179091556000805160206146f283398151915280548083019091557f8048725117155ad5ef9cb75f77fbe235a4558a61159f5364c90d55c3a0d15b7a0180546001600160a01b03199081168717909155825160e081018452825481528085018781528185018f8152606083018f9052608083018e905260a083018d905260c083018c9052978752600786529390952085518155925191830180549290971691161790945591518051919392610b389260028501929091019061395a565b50606082015160038201556080820151600482015560a08201518051610b6891600584019160209091019061395a565b5060c08201518051610b8491600684019160209091019061395a565b5060019998505050505050505050565b6001600052601360209081526000805160206146d28339815191528054604080518285028101850190915281815260609390929190830182828015610bf857602002820191906000526020600020905b815481526020019060010190808311610be4575b5050505050905090565b60008060015b6003548111610c51576000818152600f6020526040902060090154600160a81b900460ff16610c3f5781610c3b81614655565b9250505b80610c4981614655565b915050610c08565b50905090565b6000818152601060205260409020600101546001600160a01b03163314610c7d57600080fd5b6000600360008381526010602052604090206005015460ff166004811115610cb557634e487b7160e01b600052602160045260246000fd5b1415610cbf575060015b8015610cdd5760405162461bcd60e51b815260040161097a90614051565b506000908152601060209081526040808320600581018054600260ff199182168117909255908201546001600160a01b03168552601584528285206003909201548552925290912080549091169055565b6000546001600160a01b03163314610d585760405162461bcd60e51b815260040161097a906140cf565b600080546001600160a01b0319166001600160a01b0392909216919091179055565b610d833361244f565b610d8c57600080fd5b60038054906000610d9c83614655565b91905055506040518061018001604052806003548152602001898152602001888152602001670de0b6b3a764000088670de0b6b3a7640000610dde91906145e4565b610de891906145c4565b815260208082018890526040808301889052606083018790526080830186905260a08301859052600060c084018190523360e08501526101009093018390526003548352600f82529182902083518155838201516001820155918301518051610e57926002850192019061395a565b506060820151600382015560808201518051610e7d91600484019160209091019061395a565b5060a0820151600582015560c08201518051610ea391600684019160209091019061395a565b5060e08201518051610ebf91600784019160209091019061395a565b506101008201518051610edc91600884019160209091019061395a565b5061012082015160099091018054610140840151610160909401511515600160a81b0260ff60a81b196001600160a01b0390951661010002610100600160a81b031994151560ff19909316929092179390931617929092161790555050336000908152600e602090815260408220600380548254600181810185559386528486200155601390925290546000805160206146d2833981519152805492830181559092527f3ce2cb385edcbf7185fd469186dd769993781141b215a1a4715ebb7f94fd59ab0155505050505050565b33600090815260116020908152604091829020805483518184028101840190945280845260609392830182828015610bf85760200282019190600052602060002090815481526020019060010190808311610be4575050505050905090565b6000818152601060205260409020600101546001600160a01b0316331461102f57600080fd5b600090815260106020908152604080832060058101805460ff1990811660011790915560028201546001600160a01b03168552601584528285206003909201548552925290912080549091169055565b6110888161393c565b156110a55760405162461bcd60e51b815260040161097a9061424e565b6110ae33612a4d565b6110b757600080fd5b6001600160a01b03166000908152600a60209081526040808320600701805460ff19908116600117909155600690925290912080549091169055565b6110fc33612a4d565b61110557600080fd5b6001600160a01b0381166000908152600a60209081526040808320600701805460ff1990811690915560068352818420805482166001908117909155600d8452918420805490911690558252600c90526000805160206146b283398151915254905b818110156112ff576001600052600c6020526000805160206146b283398151915280546001600160a01b0385169190839081106111b457634e487b7160e01b600052603260045260246000fd5b6000918252602090912001546001600160a01b031614156112ed5760016000819052600c6020526000805160206146b2833981519152906111f59084614603565b8154811061121357634e487b7160e01b600052603260045260246000fd5b60009182526020808320909101546001909252600c90526000805160206146b283398151915280546001600160a01b03909216918390811061126557634e487b7160e01b600052603260045260246000fd5b600091825260208083209190910180546001600160a01b0319166001600160a01b03949094169390931790925560019052600c90526000805160206146b28339815191528054806112c657634e487b7160e01b600052603160045260246000fd5b600082815260209020810160001990810180546001600160a01b03191690550190556112ff565b806112f781614655565b915050611167565b50506001600160a01b0381166000908152600e6020526040812054905b81811015611573576001600160a01b0383166000908152600e6020526040812080548390811061135c57634e487b7160e01b600052603260045260246000fd5b6000918252602080832090910154808352600f90915260408220828155600181018390559092509061139160028301826139de565b60038201600090556004820160006113a991906139de565b60058201600090556006820160006113c191906139de565b6113cf6007830160006139de565b6113dd6008830160006139de565b5060090180546001600160b01b031916905560005b600160005260136020526000805160206146d28339815191525481101561155e57600160005260136020526000805160206146d283398151915280548391908390811061144f57634e487b7160e01b600052603260045260246000fd5b9060005260206000200154141561154c576001600081905260136020526000805160206146d28339815191528054909161148891614603565b815481106114a657634e487b7160e01b600052603260045260246000fd5b60009182526020808320909101546001909252601390526000805160206146d28339815191528054839081106114ec57634e487b7160e01b600052603260045260246000fd5b600091825260208083209091019290925560019052601390526000805160206146d283398151915280548061153157634e487b7160e01b600052603160045260246000fd5b6001900381819060005260206000200160009055905561155e565b8061155681614655565b9150506113f2565b5050808061156b90614655565b91505061131c565b506001600160a01b0382166000908152600e602052604081206109a991613a1d565b6001600052600c60209081526000805160206146b28339815191528054604080518285028101850190915281815260609390929190830182828015610bf857602002820191906000526020600020905b81546001600160a01b031681526001909101906020018083116115e5575050505050905090565b6000828152600f602052604090206009015461010090046001600160a01b0316331461163757600080fd5b6000805b336000908152601160205260409020548110156117455733600090815260116020526040812080548390811061168157634e487b7160e01b600052603260045260246000fd5b906000526020600020015490508460106000838152602001908152602001600020600301541480156117235750600160008281526010602052604090206005015460ff1660048111156116e457634e487b7160e01b600052602160045260246000fd5b14806117235750600360008281526010602052604090206005015460ff16600481111561172157634e487b7160e01b600052602160045260246000fd5b145b15611732576001925050611745565b508061173d81614655565b91505061163b565b5080156117645760405162461bcd60e51b815260040161097a906143b7565b670de0b6b3a764000061177783826145e4565b61178191906145c4565b6000938452600f6020526040909320600301929092555050565b60055481565b600160005260146020527fb6c61a840592cc84133e4b25bd509abf4659307c57b160799b38490a5aa48f2c5490565b60076020526000908152604090208054600182015460028301805492936001600160a01b03909216926118029061461a565b80601f016020809104026020016040519081016040528092919081815260200182805461182e9061461a565b801561187b5780601f106118505761010080835404028352916020019161187b565b820191906000526020600020905b81548152906001019060200180831161185e57829003601f168201915b50505050509080600301549080600401549080600501805461189c9061461a565b80601f01602080910402602001604051908101604052809291908181526020018280546118c89061461a565b80156119155780601f106118ea57610100808354040283529160200191611915565b820191906000526020600020905b8154815290600101906020018083116118f857829003601f168201915b50505050509080600601805461192a9061461a565b80601f01602080910402602001604051908101604052809291908181526020018280546119569061461a565b80156119a35780601f10611978576101008083540402835291602001916119a3565b820191906000526020600020905b81548152906001019060200180831161198657829003601f168201915b5050505050905087565b6001600160a01b0381166000908152600d602052604090205460609060ff1615156001146119ed5760405162461bcd60e51b815260040161097a906140a2565b6001600160a01b0382166000908152600a602052604090206008018054611a139061461a565b80601f0160208091040260200160405190810160405280929190818152602001828054611a3f9061461a565b8015611a8c5780601f10611a6157610100808354040283529160200191611a8c565b820191906000526020600020905b815481529060010190602001808311611a6f57829003601f168201915b50505050509050919050565b611aa13361244f565b8015611ab15750611ab182611cac565b611acd5760405162461bcd60e51b815260040161097a906141ba565b33600090815260156020908152604080832085845290915290205460ff1615611b085760405162461bcd60e51b815260040161097a90614200565b60058054906000611b1883614655565b90915550506040805160e0810182526005548082526000858152600f6020908152848220600901546001600160a01b03610100909104811682860190815233868801908152606087018a8152608088018a815260a0890187905260c0890187905296865260108552979094208651815590516001820180549184166001600160a01b03199283161790559351600282018054919093169416939093179055935160038201559051805192939192611bd5926004850192019061395a565b5060a082015160058201805460ff19166001836004811115611c0757634e487b7160e01b600052602160045260246000fd5b021790555060c091909101516005918201805461ff0019166101009215158302179055336000818152601560209081526040808320978352968152868220805460ff19166001908117909155600f8252878320600901546001600160a01b039590049490941682526011815286822085548154808701835591845282842090910155918152601282529485209254835492830184559285529093209092019190915550565b6000908152600f6020526040902060090154600160a81b900460ff1690565b60066020526000908152604090205460ff1681565b6000546001600160a01b03163314611d0a5760405162461bcd60e51b815260040161097a9061414c565b6001600160a01b03811660009081526009602052604090205460ff16611d425760405162461bcd60e51b815260040161097a9061401a565b6001600160a01b03811660009081526009602090815260408220805460ff1916905560018252600890526000805160206146f283398151915254905b81811015611f1657600160005260086020526000805160206146f283398151915280546001600160a01b038516919083908110611dcb57634e487b7160e01b600052603260045260246000fd5b6000918252602090912001546001600160a01b03161415611f04576001600081905260086020526000805160206146f283398151915290611e0c9084614603565b81548110611e2a57634e487b7160e01b600052603260045260246000fd5b60009182526020808320909101546001909252600890526000805160206146f283398151915280546001600160a01b039092169183908110611e7c57634e487b7160e01b600052603260045260246000fd5b600091825260208083209190910180546001600160a01b0319166001600160a01b03949094169390931790925560019052600890526000805160206146f2833981519152805480611edd57634e487b7160e01b600052603160045260246000fd5b600082815260209020810160001990810180546001600160a01b0319169055019055611f16565b80611f0e81614655565b915050611d7e565b505050565b60045481565b601560209081526000928352604080842090915290825290205460ff1681565b600080805b600254811015610c51576000600b81611f608460016145ac565b815260208082019290925260409081016000908120546001600160a01b0316808252600a909352206007015490915060ff16611fa45782611fa081614655565b9350505b5080611faf81614655565b915050611f46565b600080805b600254811015610c51576000600b81611fd68460016145ac565b815260208082019290925260409081016000908120546001600160a01b0316808252600a909352206007015490915060ff161561201b578261201781614655565b9350505b508061202681614655565b915050611fbc565b60015481565b61203d33612a4d565b6120595760405162461bcd60e51b815260040161097a906142c4565b6000818152600f6020526040902060090154600160a81b900460ff16156120925760405162461bcd60e51b815260040161097a9061430a565b604051339082907f7c557f0ad60bff2708eadd0f87c51ff048f5779dd283cc4b208fae0a6c2eee3f90600090a36000818152600f602090815260408083206009015461010090046001600160a01b0316808452600e909252822090915b81548110156121dc578382828154811061211957634e487b7160e01b600052603260045260246000fd5b906000526020600020015414156121ca578154829061213a90600190614603565b8154811061215857634e487b7160e01b600052603260045260246000fd5b906000526020600020015482828154811061218357634e487b7160e01b600052603260045260246000fd5b9060005260206000200181905550818054806121af57634e487b7160e01b600052603160045260246000fd5b600190038181906000526020600020016000905590556121dc565b806121d481614655565b9150506120ef565b506001600090815260136020526000805160206146d2833981519152905b81548110156122e7578482828154811061222457634e487b7160e01b600052603260045260246000fd5b906000526020600020015414156122d5578154829061224590600190614603565b8154811061226357634e487b7160e01b600052603260045260246000fd5b906000526020600020015482828154811061228e57634e487b7160e01b600052603260045260246000fd5b9060005260206000200181905550818054806122ba57634e487b7160e01b600052603160045260246000fd5b600190038181906000526020600020016000905590556122e7565b806122df81614655565b9150506121fa565b506000848152600f60205260408120818155600181018290559061230e60028301826139de565b600382016000905560048201600061232691906139de565b600582016000905560068201600061233e91906139de565b61234c6007830160006139de565b61235a6008830160006139de565b5060090180546001600160b01b031916905550505050565b33600090815260126020908152604091829020805483518184028101840190945280845260609392830182828015610bf85760200282019190600052602060002090815481526020019060010190808311610be4575050505050905090565b6001600052601460209081527fb6c61a840592cc84133e4b25bd509abf4659307c57b160799b38490a5aa48f2c8054604080518285028101850190915281815260609390929190830182828015610bf85760200282019190600052602060002090815481526020019060010190808311610be4575050505050905090565b6001600160a01b03166000908152600a602052604090206007015460ff1690565b6010602052600090815260409020805460018201546002830154600384015460048501805494956001600160a01b0394851695939094169391926124b39061461a565b80601f01602080910402602001604051908101604052809291908181526020018280546124df9061461a565b801561252c5780601f106125015761010080835404028352916020019161252c565b820191906000526020600020905b81548152906001019060200180831161250f57829003601f168201915b5050506005909301549192505060ff8082169161010090041687565b6000818152600f602052604090206009015461010090046001600160a01b0316331461257357600080fd5b6000908152600f60205260409020600901805460ff19166001179055565b6001600160a01b0381166000908152600e6020908152604091829020805483518184028101840190945280845260609392830182828015611a8c57602002820191906000526020600020905b8154815260200190600101908083116125dd5750505050509050919050565b6001600052600860209081526000805160206146f28339815191528054604080518285028101850190915281815260609390929190830182828015610bf8576020028201919060005260206000209081546001600160a01b031681526001909101906020018083116115e5575050505050905090565b600a60205260009081526040902080546001820180546001600160a01b03909216929161269e9061461a565b80601f01602080910402602001604051908101604052809291908181526020018280546126ca9061461a565b80156127175780601f106126ec57610100808354040283529160200191612717565b820191906000526020600020905b8154815290600101906020018083116126fa57829003601f168201915b5050505050908060020154908060030180546127329061461a565b80601f016020809104026020016040519081016040528092919081815260200182805461275e9061461a565b80156127ab5780601f10612780576101008083540402835291602001916127ab565b820191906000526020600020905b81548152906001019060200180831161278e57829003601f168201915b5050505050908060040180546127c09061461a565b80601f01602080910402602001604051908101604052809291908181526020018280546127ec9061461a565b80156128395780601f1061280e57610100808354040283529160200191612839565b820191906000526020600020905b81548152906001019060200180831161281c57829003601f168201915b50505050509080600501805461284e9061461a565b80601f016020809104026020016040519081016040528092919081815260200182805461287a9061461a565b80156128c75780601f1061289c576101008083540402835291602001916128c7565b820191906000526020600020905b8154815290600101906020018083116128aa57829003601f168201915b5050505050908060060180546128dc9061461a565b80601f01602080910402602001604051908101604052809291908181526020018280546129089061461a565b80156129555780601f1061292a57610100808354040283529160200191612955565b820191906000526020600020905b81548152906001019060200180831161293857829003601f168201915b5050506007840154600885018054949560ff9092169491935091506129799061461a565b80601f01602080910402602001604051908101604052809291908181526020018280546129a59061461a565b80156129f25780601f106129c7576101008083540402835291602001916129f2565b820191906000526020600020905b8154815290600101906020018083116129d557829003601f168201915b5050505050905089565b6000908152600f602052604090206003015490565b600090815260106020526040902060050154610100900460ff1690565b600080546001600160a01b03838116911614156109e2575060016109e6565b6001600160a01b03811660009081526009602052604081205460ff16156109e2575060016109e6565b600f6020526000908152604090208054600182015460028301805492939192612a9e9061461a565b80601f0160208091040260200160405190810160405280929190818152602001828054612aca9061461a565b8015612b175780601f10612aec57610100808354040283529160200191612b17565b820191906000526020600020905b815481529060010190602001808311612afa57829003601f168201915b505050505090806003015490806004018054612b329061461a565b80601f0160208091040260200160405190810160405280929190818152602001828054612b5e9061461a565b8015612bab5780601f10612b8057610100808354040283529160200191612bab565b820191906000526020600020905b815481529060010190602001808311612b8e57829003601f168201915b505050505090806005015490806006018054612bc69061461a565b80601f0160208091040260200160405190810160405280929190818152602001828054612bf29061461a565b8015612c3f5780601f10612c1457610100808354040283529160200191612c3f565b820191906000526020600020905b815481529060010190602001808311612c2257829003601f168201915b505050505090806007018054612c549061461a565b80601f0160208091040260200160405190810160405280929190818152602001828054612c809061461a565b8015612ccd5780601f10612ca257610100808354040283529160200191612ccd565b820191906000526020600020905b815481529060010190602001808311612cb057829003601f168201915b505050505090806008018054612ce29061461a565b80601f0160208091040260200160405190810160405280929190818152602001828054612d0e9061461a565b8015612d5b5780601f10612d3057610100808354040283529160200191612d5b565b820191906000526020600020905b815481529060010190602001808311612d3e57829003601f168201915b5050506009909301549192505060ff808216916001600160a01b0361010082041691600160a81b909104168c565b6000818152600f602052604090206009015461010090046001600160a01b03163314612dc75760405162461bcd60e51b815260040161097a9061427d565b6000818152600f602052604090206009015460ff161515600114612dfd5760405162461bcd60e51b815260040161097a90614183565b6000805b33600090815260116020526040902054811015612ece57336000908152601160205260408120805483908110612e4757634e487b7160e01b600052603260045260246000fd5b90600052602060002001549050836010600083815260200190815260200160002060030154148015612eac5750600360008281526010602052604090206005015460ff166004811115612eaa57634e487b7160e01b600052602160045260246000fd5b145b15612ebb576001925050612ece565b5080612ec681614655565b915050612e01565b508015612eed5760405162461bcd60e51b815260040161097a90614341565b6001600090815260136020526000805160206146d283398151915254905b8181101561305c57600160005260136020526000805160206146d2833981519152805485919083908110612f4f57634e487b7160e01b600052603260045260246000fd5b9060005260206000200154141561304a576001600081905260136020526000805160206146d283398151915290612f869084614603565b81548110612fa457634e487b7160e01b600052603260045260246000fd5b60009182526020808320909101546001909252601390526000805160206146d2833981519152805483908110612fea57634e487b7160e01b600052603260045260246000fd5b600091825260208083209091019290925560019052601390526000805160206146d283398151915280548061302f57634e487b7160e01b600052603160045260246000fd5b6001900381819060005260206000200160009055905561305c565b8061305481614655565b915050612f0b565b50506000828152600f60209081526040808320600901805460ff191690553383526012909152812054905b8181101561314a573360009081526012602052604081208054839081106130be57634e487b7160e01b600052603260045260246000fd5b906000526020600020015490508460106000838152602001908152602001600020600301541415613137576000908152601060209081526040808320600581018054600260ff1991821681179092559101546001600160a01b03168452601583528184208885529092529091208054909116905561314a565b508061314281614655565b915050613087565b505033600090815260116020526040812054905b818110156132215733600090815260116020526040812080548390811061319557634e487b7160e01b600052603260045260246000fd5b90600052602060002001549050846010600083815260200190815260200160002060030154141561320e576000908152601060209081526040808320600581018054600260ff1991821681179092559101546001600160a01b031684526015835281842088855290925290912080549091169055613221565b508061321981614655565b91505061315e565b50505050565b61323033612a4d565b1561324d5760405162461bcd60e51b815260040161097a90614106565b336000908152600d602052604090205460ff1615156001141561326f57613449565b336000908152600660209081526040808320805460ff19908116909155600d90925282208054909116600117905560028054916132ab83614655565b90915550506000805160206146b2833981519152805460018082019092557f316d947374d71758e457e80486787a2c828942c59266cc0c2fb7ed856b0e118d018054336001600160a01b031991821681179092556002546000908152600b6020908152604080832080548516861790558051610120810182528581528083018e81528183018e9052606082018d9052608082018c905260a082018b905260c0820189905260e0820185905261010082018a9052958452600a83529220825181549094166001600160a01b0390941693909317835592518051919492936133969385019291019061395a565b5060408201516002820155606082015180516133bc91600384019160209091019061395a565b50608082015180516133d891600484019160209091019061395a565b5060a082015180516133f491600584019160209091019061395a565b5060c0820151805161341091600684019160209091019061395a565b5060e082015160078201805460ff1916911515919091179055610100820151805161344591600884019160209091019061395a565b5050505b50505050505050565b60055490565b6000818152601060205260409020600201546001600160a01b0316331480156134b45750600160008281526010602052604090206005015460ff1660048111156134b257634e487b7160e01b600052602160045260246000fd5b145b80156134dc57506000818152601060205260409020600101546001600160a01b038381169116145b8015613509575060008181526010602090815260408083206003908101548452600f909252909120015434145b1561030a5760008181526010602090815260408083206005018054600360ff199091161761ff00191661010017905560149091527fb6c61a840592cc84133e4b25bd509abf4659307c57b160799b38490a5aa48f2c80546001810182559083527f2fdc54bebe143af21bc9f7874666206c3383b1c51a1a7063fa557c077952093e01839055516001600160a01b038416913480156108fc02929091818181858888f193505050501580156135c1573d6000803e3d6000fd5b5060008181526010602090815260408083206003908101548452600f90925291829020015490516001600160a01b0384169133917f46661dab58311a6838247afecbee792192b4f27fc8b3e7168c66bc55ec2e404e916136229134906144e8565b60405180910390a36109a9565b61363833612a4d565b61364157600080fd5b6000908152600f60205260409020600901805460ff60a81b1916600160a81b179055565b600061367033612a4d565b61367957600080fd5b600083815260106020526040902060050154610100900460ff1661369f57506000613936565b600480549060006136af83614655565b9091555050600083815260106020908152604080832060058101805460ff1916600417905560028101546001600160a01b039081168552600e84528285206003830154815460018181018455928852958720909501949094559201549091168252812054905b8181101561389c57600085815260106020908152604080832060038101546001909101546001600160a01b03168452600e90925290912080548390811061376c57634e487b7160e01b600052603260045260246000fd5b9060005260206000200154141561388a5760008581526010602090815260408083206001908101546001600160a01b03168452600e909252909120906137b29084614603565b815481106137d057634e487b7160e01b600052603260045260246000fd5b6000918252602080832090910154878352601082526040808420600101546001600160a01b03168452600e909252912080548390811061382057634e487b7160e01b600052603260045260246000fd5b6000918252602080832090910192909255868152601082526040808220600101546001600160a01b03168252600e9092522080548061386f57634e487b7160e01b600052603160045260246000fd5b6001900381819060005260206000200160009055905561389c565b8061389481614655565b915050613715565b506000848152601060209081526040808320600301548352600f825290912084516138cf9260079092019186019061395a565b50505060008281526010602090815260408083206003810180548552600f9093528184206009908101805460ff1916905560029091015492548452922090910180546001600160a01b0390921661010002610100600160a81b031990921691909117905560015b92915050565b6001600160a01b031660009081526006602052604090205460ff1690565b8280546139669061461a565b90600052602060002090601f01602090048101928261398857600085556139ce565b82601f106139a157805160ff19168380011785556139ce565b828001600101855582156139ce579182015b828111156139ce5782518255916020019190600101906139b3565b506139da929150613a37565b5090565b5080546139ea9061461a565b6000825580601f106139fc5750613a1a565b601f016020900490600052602060002090810190613a1a9190613a37565b50565b5080546000825590600052602060002090810190613a1a91905b5b808211156139da5760008155600101613a38565b600082601f830112613a5c578081fd5b813567ffffffffffffffff80821115613a7757613a77614686565b604051601f8301601f191681016020018281118282101715613a9b57613a9b614686565b604052828152848301602001861015613ab2578384fd5b82602086016020830137918201602001929092529392505050565b600060208284031215613ade578081fd5b8135613ae98161469c565b9392505050565b60008060408385031215613b02578081fd5b8235613b0d8161469c565b946020939093013593505050565b60008060008060008060c08789031215613b33578182fd5b8635613b3e8161469c565b9550602087013567ffffffffffffffff80821115613b5a578384fd5b613b668a838b01613a4c565b965060408901359550606089013594506080890135915080821115613b89578384fd5b613b958a838b01613a4c565b935060a0890135915080821115613baa578283fd5b50613bb789828a01613a4c565b9150509295509295509295565b60008060408385031215613b02578182fd5b600060208284031215613be7578081fd5b813567ffffffffffffffff811115613bfd578182fd5b613c0984828501613a4c565b949350505050565b600080600080600080600060e0888a031215613c2b578081fd5b873567ffffffffffffffff80821115613c42578283fd5b613c4e8b838c01613a4c565b985060208a0135975060408a0135915080821115613c6a578283fd5b613c768b838c01613a4c565b965060608a0135915080821115613c8b578283fd5b613c978b838c01613a4c565b955060808a0135915080821115613cac578283fd5b613cb88b838c01613a4c565b945060a08a0135915080821115613ccd578283fd5b613cd98b838c01613a4c565b935060c08a0135915080821115613cee578283fd5b50613cfb8a828b01613a4c565b91505092959891949750929550565b600060208284031215613d1b578081fd5b5035919050565b60008060408385031215613d34578182fd5b82359150602083013567ffffffffffffffff811115613d51578182fd5b613d5d85828601613a4c565b9150509250929050565b600080600080600080600080610100898b031215613d83578081fd5b88359750602089013567ffffffffffffffff80821115613da1578283fd5b613dad8c838d01613a4c565b985060408b0135975060608b0135915080821115613dc9578283fd5b613dd58c838d01613a4c565b965060808b0135955060a08b0135915080821115613df1578283fd5b613dfd8c838d01613a4c565b945060c08b0135915080821115613e12578283fd5b613e1e8c838d01613a4c565b935060e08b0135915080821115613e33578283fd5b50613e408b828c01613a4c565b9150509295985092959890939650565b60008060408385031215613e62578182fd5b50508035926020909101359150565b6001600160a01b03169052565b15159052565b60008151808452815b81811015613ea957602081850181015186830182015201613e8d565b81811115613eba5782602083870101525b50601f01601f19169290920160200192915050565b6001600160a01b038a16815261012060208201819052600090613ef48382018c613e84565b90508960408401528281036060840152613f0e818a613e84565b90508281036080840152613f228189613e84565b905082810360a0840152613f368188613e84565b905082810360c0840152613f4a8187613e84565b905084151560e0840152828103610100840152613f678185613e84565b9c9b505050505050505050505050565b6020808252825182820181905260009190848201906040850190845b81811015613fb85783516001600160a01b031683529284019291840191600101613f93565b50909695505050505050565b6020808252825182820181905260009190848201906040850190845b81811015613fb857835183529284019291840191600101613fe0565b901515815260200190565b600060208252613ae96020830184613e84565b60208082526018908201527f4c616e6420496e73706563746f72206e6f7420666f756e640000000000000000604082015260600190565b60208082526031908201527f5061796d656e7420616c726561647920646f6e6520666f722074686973206c616040820152701b990b0818d85b9b9bdd081c995a9958dd607a1b606082015260800190565b602080825260139082015272155cd95c881b9bdd081c9959da5cdd195c9959606a1b604082015260600190565b60208082526019908201527f796f7520617265206e6f7420636f6e74726163744f776e657200000000000000604082015260600190565b60208082526026908201527f4c616e6420696e73706563746f722063616e6e6f74207265676973746572206160408201526539903ab9b2b960d11b606082015260800190565b60208082526019908201527f596f7520617265206e6f7420636f6e74726163744f776e657200000000000000604082015260600190565b60208082526018908201527f546865206c616e64206973206e6f7420666f722073616c650000000000000000604082015260600190565b60208082526026908201527f55736572206e6f74207665726966696564206f72206c616e64206e6f742076656040820152651c9a599a595960d21b606082015260800190565b6020808252602e908201527f5265717565737420666f722074686973206c616e6420616c726561647920736560408201526d373a10313c903a3432903ab9b2b960911b606082015260800190565b602080825260159082015274151a1a5cc81d5cd95c881a5cc81c995a9958dd1959605a1b604082015260600190565b60208082526027908201527f4f6e6c7920746865206c616e64206f776e65722063616e2063616e63656c207460408201526668652073616c6560c81b606082015260800190565b60208082526026908201527f4f6e6c79206c616e6420696e73706563746f72732063616e2072656a6563742060408201526518481b185b9960d21b606082015260800190565b60208082526018908201527f4c616e6420697320616c72656164792076657269666965640000000000000000604082015260600190565b60208082526031908201527f5061796d656e7420616c726561647920646f6e6520666f722074686973206c616040820152701b990b0818d85b9b9bdd0818d85b98d95b607a1b606082015260800190565b6020808252600b908201526a4e6577206164647265737360a81b604082015260600190565b6020808252602b908201527f4c616e642068617320612061636365707465642072657175657374206f72207060408201526a61796d656e7420646f6e6560a81b606082015260800190565b90815260200190565b8781526001600160a01b038781166020830152861660408201526060810185905260e06080820181905260009061444490830186613e84565b90506005841061446457634e487b7160e01b600052602160045260246000fd5b8360a083015282151560c083015298975050505050505050565b8781526001600160a01b038716602082015260e0604082018190526000906144a890830188613e84565b86606084015285608084015282810360a08401526144c68186613e84565b905082810360c08401526144da8185613e84565b9a9950505050505050505050565b918252602082015260400190565b60006101808e83528d60208401528060408401526145168184018e613e84565b90508b60608401528281036080840152614530818c613e84565b90508960a084015282810360c084015261454a818a613e84565b905082810360e084015261455e8189613e84565b90508281036101008401526145738188613e84565b91505084151561012083015261458d610140830185613e71565b61459b610160830184613e7e565b9d9c50505050505050505050505050565b600082198211156145bf576145bf614670565b500190565b6000826145df57634e487b7160e01b81526012600452602481fd5b500490565b60008160001904831182151516156145fe576145fe614670565b500290565b60008282101561461557614615614670565b500390565b60028104600182168061462e57607f821691505b6020821081141561464f57634e487b7160e01b600052602260045260246000fd5b50919050565b600060001982141561466957614669614670565b5060010190565b634e487b7160e01b600052601160045260246000fd5b634e487b7160e01b600052604160045260246000fd5b6001600160a01b0381168114613a1a57600080fdfed421a5181c571bba3f01190c922c3b2a896fc1d84e86c9f17ac10e67ebef8b5c4155c2f711f2cdd34f8262ab8fb9b7020a700fe7b6948222152f7670d1fdf34dad67d757c34507f157cacfa2e3153e9f260a2244f30428821be7be64587ac55fa2646970667358221220fa62795442c0db0fd09c7ac2d58386b2e0a254bdbd74b8ed4c51acb43f334c4664736f6c63430008000033","opcodes":"PUSH1 0x80 PUSH1 0x40 MSTORE CALLVALUE DUP1 ISZERO PUSH2 0x10 JUMPI PUSH1 0x0 DUP1 REVERT JUMPDEST POP PUSH1 0x0 DUP1 SLOAD PUSH1 0x1 PUSH1 0x1 PUSH1 0xA0 SHL SUB NOT AND CALLER OR SWAP1 SSTORE PUSH2 0x4747 DUP1 PUSH2 0x32 PUSH1 0x0 CODECOPY PUSH1 0x0 RETURN INVALID PUSH1 0x80 PUSH1 0x40 MSTORE PUSH1 0x4 CALLDATASIZE LT PUSH2 0x303 JUMPI PUSH1 0x0 CALLDATALOAD PUSH1 0xE0 SHR DUP1 PUSH4 0x842E7DBA GT PUSH2 0x190 JUMPI DUP1 PUSH4 0xD61FF68C GT PUSH2 0xDC JUMPI DUP1 PUSH4 0xE87596C0 GT PUSH2 0x95 JUMPI DUP1 PUSH4 0xF98CF07C GT PUSH2 0x6F JUMPI DUP1 PUSH4 0xF98CF07C EQ PUSH2 0x8D3 JUMPI DUP1 PUSH4 0xF9C43BDF EQ PUSH2 0x8E6 JUMPI DUP1 PUSH4 0xFA024549 EQ PUSH2 0x906 JUMPI DUP1 PUSH4 0xFA1E178E EQ PUSH2 0x926 JUMPI PUSH2 0x30A JUMP JUMPDEST DUP1 PUSH4 0xE87596C0 EQ PUSH2 0x87E JUMPI DUP1 PUSH4 0xEDFBE247 EQ PUSH2 0x89E JUMPI DUP1 PUSH4 0xF0E22D52 EQ PUSH2 0x8BE JUMPI PUSH2 0x30A JUMP JUMPDEST DUP1 PUSH4 0xD61FF68C EQ PUSH2 0x791 JUMPI DUP1 PUSH4 0xD72CA9EC EQ PUSH2 0x7C6 JUMPI DUP1 PUSH4 0xD8513DE4 EQ PUSH2 0x7E6 JUMPI DUP1 PUSH4 0xDE117688 EQ PUSH2 0x806 JUMPI DUP1 PUSH4 0xE165AF87 EQ PUSH2 0x826 JUMPI DUP1 PUSH4 0xE261F1E5 EQ PUSH2 0x846 JUMPI PUSH2 0x30A JUMP JUMPDEST DUP1 PUSH4 0x9C32E3B4 GT PUSH2 0x149 JUMPI DUP1 PUSH4 0xB10A30ED GT PUSH2 0x123 JUMPI DUP1 PUSH4 0xB10A30ED EQ PUSH2 0x709 JUMPI DUP1 PUSH4 0xC26E11EB EQ PUSH2 0x73C JUMPI DUP1 PUSH4 0xD196EBF2 EQ PUSH2 0x75C JUMPI DUP1 PUSH4 0xD251839B EQ PUSH2 0x77C JUMPI PUSH2 0x30A JUMP JUMPDEST DUP1 PUSH4 0x9C32E3B4 EQ PUSH2 0x6BF JUMPI DUP1 PUSH4 0xA846FC8F EQ PUSH2 0x6D4 JUMPI DUP1 PUSH4 0xACE417E0 EQ PUSH2 0x6E9 JUMPI PUSH2 0x30A JUMP JUMPDEST DUP1 PUSH4 0x842E7DBA EQ PUSH2 0x35C JUMPI DUP1 PUSH4 0x8570C300 EQ PUSH2 0x640 JUMPI DUP1 PUSH4 0x864F4A4B EQ PUSH2 0x660 JUMPI DUP1 PUSH4 0x8C1F3A8C EQ PUSH2 0x675 JUMPI DUP1 PUSH4 0x941E2426 EQ PUSH2 0x68A JUMPI DUP1 PUSH4 0x9684806D EQ PUSH2 0x69F JUMPI PUSH2 0x30A JUMP JUMPDEST DUP1 PUSH4 0x4D813120 GT PUSH2 0x24F JUMPI DUP1 PUSH4 0x64EFA002 GT PUSH2 0x208 JUMPI DUP1 PUSH4 0x6CBF6CF8 GT PUSH2 0x1E2 JUMPI DUP1 PUSH4 0x6CBF6CF8 EQ PUSH2 0x5CB JUMPI DUP1 PUSH4 0x71B5D9ED EQ PUSH2 0x5EB JUMPI DUP1 PUSH4 0x7517E00F EQ PUSH2 0x60B JUMPI DUP1 PUSH4 0x78F7C83F EQ PUSH2 0x62B JUMPI PUSH2 0x30A JUMP JUMPDEST DUP1 PUSH4 0x64EFA002 EQ PUSH2 0x54B JUMPI DUP1 PUSH4 0x6727D827 EQ PUSH2 0x57E JUMPI DUP1 PUSH4 0x693F3231 EQ PUSH2 0x5AB JUMPI PUSH2 0x30A JUMP JUMPDEST DUP1 PUSH4 0x4D813120 EQ PUSH2 0x49F JUMPI DUP1 PUSH4 0x4DC92885 EQ PUSH2 0x4BF JUMPI DUP1 PUSH4 0x553A998D EQ PUSH2 0x4DF JUMPI DUP1 PUSH4 0x592A3FCF EQ PUSH2 0x501 JUMPI DUP1 PUSH4 0x5BADBE4C EQ PUSH2 0x521 JUMPI DUP1 PUSH4 0x5EB43181 EQ PUSH2 0x536 JUMPI PUSH2 0x30A JUMP JUMPDEST DUP1 PUSH4 0x23393D77 GT PUSH2 0x2BC JUMPI DUP1 PUSH4 0x3EAD67B5 GT PUSH2 0x296 JUMPI DUP1 PUSH4 0x3EAD67B5 EQ PUSH2 0x42A JUMPI DUP1 PUSH4 0x416F958F EQ PUSH2 0x44A JUMPI DUP1 PUSH4 0x499701B2 EQ PUSH2 0x46A JUMPI DUP1 PUSH4 0x4BA1F098 EQ PUSH2 0x47F JUMPI PUSH2 0x30A JUMP JUMPDEST DUP1 PUSH4 0x23393D77 EQ PUSH2 0x3D3 JUMPI DUP1 PUSH4 0x27C3D3AD EQ PUSH2 0x3F5 JUMPI DUP1 PUSH4 0x2D7788DB EQ PUSH2 0x40A JUMPI PUSH2 0x30A JUMP JUMPDEST DUP1 PUSH4 0x11F2CCE EQ PUSH2 0x30F JUMPI DUP1 PUSH4 0x7973CCF EQ PUSH2 0x331 JUMPI DUP1 PUSH4 0x14417707 EQ PUSH2 0x35C JUMPI DUP1 PUSH4 0x163F7522 EQ PUSH2 0x371 JUMPI DUP1 PUSH4 0x1C9AFD0F EQ PUSH2 0x39E JUMPI DUP1 PUSH4 0x22748AB0 EQ PUSH2 0x3B3 JUMPI PUSH2 0x30A JUMP JUMPDEST CALLDATASIZE PUSH2 0x30A JUMPI STOP JUMPDEST PUSH1 0x0 DUP1 REVERT JUMPDEST CALLVALUE DUP1 ISZERO PUSH2 0x31B JUMPI PUSH1 0x0 DUP1 REVERT JUMPDEST POP PUSH2 0x32F PUSH2 0x32A CALLDATASIZE PUSH1 0x4 PUSH2 0x3BD6 JUMP JUMPDEST PUSH2 0x946 JUMP JUMPDEST STOP JUMPDEST CALLVALUE DUP1 ISZERO PUSH2 0x33D JUMPI PUSH1 0x0 DUP1 REVERT JUMPDEST POP PUSH2 0x346 PUSH2 0x9AD JUMP JUMPDEST PUSH1 0x40 MLOAD PUSH2 0x353 SWAP2 SWAP1 PUSH2 0x4402 JUMP JUMPDEST PUSH1 0x40 MLOAD DUP1 SWAP2 SUB SWAP1 RETURN JUMPDEST CALLVALUE DUP1 ISZERO PUSH2 0x368 JUMPI PUSH1 0x0 DUP1 REVERT JUMPDEST POP PUSH2 0x346 PUSH2 0x9B3 JUMP JUMPDEST CALLVALUE DUP1 ISZERO PUSH2 0x37D JUMPI PUSH1 0x0 DUP1 REVERT JUMPDEST POP PUSH2 0x391 PUSH2 0x38C CALLDATASIZE PUSH1 0x4 PUSH2 0x3ACD JUMP JUMPDEST PUSH2 0x9B9 JUMP JUMPDEST PUSH1 0x40 MLOAD PUSH2 0x353 SWAP2 SWAP1 PUSH2 0x3FFC JUMP JUMPDEST CALLVALUE DUP1 ISZERO PUSH2 0x3AA JUMPI PUSH1 0x0 DUP1 REVERT JUMPDEST POP PUSH2 0x346 PUSH2 0x9EB JUMP JUMPDEST CALLVALUE DUP1 ISZERO PUSH2 0x3BF JUMPI PUSH1 0x0 DUP1 REVERT JUMPDEST POP PUSH2 0x391 PUSH2 0x3CE CALLDATASIZE PUSH1 0x4 PUSH2 0x3B1B JUMP JUMPDEST PUSH2 0x9F1 JUMP JUMPDEST CALLVALUE DUP1 ISZERO PUSH2 0x3DF JUMPI PUSH1 0x0 DUP1 REVERT JUMPDEST POP PUSH2 0x3E8 PUSH2 0xB94 JUMP JUMPDEST PUSH1 0x40 MLOAD PUSH2 0x353 SWAP2 SWAP1 PUSH2 0x3FC4 JUMP JUMPDEST CALLVALUE DUP1 ISZERO PUSH2 0x401 JUMPI PUSH1 0x0 DUP1 REVERT JUMPDEST POP PUSH2 0x346 PUSH2 0xC02 JUMP JUMPDEST CALLVALUE DUP1 ISZERO PUSH2 0x416 JUMPI PUSH1 0x0 DUP1 REVERT JUMPDEST POP PUSH2 0x32F PUSH2 0x425 CALLDATASIZE PUSH1 0x4 PUSH2 0x3D0A JUMP JUMPDEST PUSH2 0xC57 JUMP JUMPDEST CALLVALUE DUP1 ISZERO PUSH2 0x436 JUMPI PUSH1 0x0 DUP1 REVERT JUMPDEST POP PUSH2 0x32F PUSH2 0x445 CALLDATASIZE PUSH1 0x4 PUSH2 0x3ACD JUMP JUMPDEST PUSH2 0xD2E JUMP JUMPDEST CALLVALUE DUP1 ISZERO PUSH2 0x456 JUMPI PUSH1 0x0 DUP1 REVERT JUMPDEST POP PUSH2 0x32F PUSH2 0x465 CALLDATASIZE PUSH1 0x4 PUSH2 0x3D67 JUMP JUMPDEST PUSH2 0xD7A JUMP JUMPDEST CALLVALUE DUP1 ISZERO PUSH2 0x476 JUMPI PUSH1 0x0 DUP1 REVERT JUMPDEST POP PUSH2 0x3E8 PUSH2 0xFAA JUMP JUMPDEST CALLVALUE DUP1 ISZERO PUSH2 0x48B JUMPI PUSH1 0x0 DUP1 REVERT JUMPDEST POP PUSH2 0x32F PUSH2 0x49A CALLDATASIZE PUSH1 0x4 PUSH2 0x3D0A JUMP JUMPDEST PUSH2 0x1009 JUMP JUMPDEST CALLVALUE DUP1 ISZERO PUSH2 0x4AB JUMPI PUSH1 0x0 DUP1 REVERT JUMPDEST POP PUSH2 0x32F PUSH2 0x4BA CALLDATASIZE PUSH1 0x4 PUSH2 0x3ACD JUMP JUMPDEST PUSH2 0x107F JUMP JUMPDEST CALLVALUE DUP1 ISZERO PUSH2 0x4CB JUMPI PUSH1 0x0 DUP1 REVERT JUMPDEST POP PUSH2 0x32F PUSH2 0x4DA CALLDATASIZE PUSH1 0x4 PUSH2 0x3ACD JUMP JUMPDEST PUSH2 0x10F3 JUMP JUMPDEST CALLVALUE DUP1 ISZERO PUSH2 0x4EB JUMPI PUSH1 0x0 DUP1 REVERT JUMPDEST POP PUSH2 0x4F4 PUSH2 0x1595 JUMP JUMPDEST PUSH1 0x40 MLOAD PUSH2 0x353 SWAP2 SWAP1 PUSH2 0x3F77 JUMP JUMPDEST CALLVALUE DUP1 ISZERO PUSH2 0x50D JUMPI PUSH1 0x0 DUP1 REVERT JUMPDEST POP PUSH2 0x32F PUSH2 0x51C CALLDATASIZE PUSH1 0x4 PUSH2 0x3E50 JUMP JUMPDEST PUSH2 0x160C JUMP JUMPDEST CALLVALUE DUP1 ISZERO PUSH2 0x52D JUMPI PUSH1 0x0 DUP1 REVERT JUMPDEST POP PUSH2 0x346 PUSH2 0x179B JUMP JUMPDEST CALLVALUE DUP1 ISZERO PUSH2 0x542 JUMPI PUSH1 0x0 DUP1 REVERT JUMPDEST POP PUSH2 0x346 PUSH2 0x17A1 JUMP JUMPDEST CALLVALUE DUP1 ISZERO PUSH2 0x557 JUMPI PUSH1 0x0 DUP1 REVERT JUMPDEST POP PUSH2 0x56B PUSH2 0x566 CALLDATASIZE PUSH1 0x4 PUSH2 0x3ACD JUMP JUMPDEST PUSH2 0x17D0 JUMP JUMPDEST PUSH1 0x40 MLOAD PUSH2 0x353 SWAP8 SWAP7 SWAP6 SWAP5 SWAP4 SWAP3 SWAP2 SWAP1 PUSH2 0x447E JUMP JUMPDEST CALLVALUE DUP1 ISZERO PUSH2 0x58A JUMPI PUSH1 0x0 DUP1 REVERT JUMPDEST POP PUSH2 0x59E PUSH2 0x599 CALLDATASIZE PUSH1 0x4 PUSH2 0x3ACD JUMP JUMPDEST PUSH2 0x19AD JUMP JUMPDEST PUSH1 0x40 MLOAD PUSH2 0x353 SWAP2 SWAP1 PUSH2 0x4007 JUMP JUMPDEST CALLVALUE DUP1 ISZERO PUSH2 0x5B7 JUMPI PUSH1 0x0 DUP1 REVERT JUMPDEST POP PUSH2 0x32F PUSH2 0x5C6 CALLDATASIZE PUSH1 0x4 PUSH2 0x3D22 JUMP JUMPDEST PUSH2 0x1A98 JUMP JUMPDEST CALLVALUE DUP1 ISZERO PUSH2 0x5D7 JUMPI PUSH1 0x0 DUP1 REVERT JUMPDEST POP PUSH2 0x391 PUSH2 0x5E6 CALLDATASIZE PUSH1 0x4 PUSH2 0x3D0A JUMP JUMPDEST PUSH2 0x1CAC JUMP JUMPDEST CALLVALUE DUP1 ISZERO PUSH2 0x5F7 JUMPI PUSH1 0x0 DUP1 REVERT JUMPDEST POP PUSH2 0x391 PUSH2 0x606 CALLDATASIZE PUSH1 0x4 PUSH2 0x3ACD JUMP JUMPDEST PUSH2 0x1CCB JUMP JUMPDEST CALLVALUE DUP1 ISZERO PUSH2 0x617 JUMPI PUSH1 0x0 DUP1 REVERT JUMPDEST POP PUSH2 0x32F PUSH2 0x626 CALLDATASIZE PUSH1 0x4 PUSH2 0x3ACD JUMP JUMPDEST PUSH2 0x1CE0 JUMP JUMPDEST CALLVALUE DUP1 ISZERO PUSH2 0x637 JUMPI PUSH1 0x0 DUP1 REVERT JUMPDEST POP PUSH2 0x346 PUSH2 0x1F1B JUMP JUMPDEST CALLVALUE DUP1 ISZERO PUSH2 0x64C JUMPI PUSH1 0x0 DUP1 REVERT JUMPDEST POP PUSH2 0x391 PUSH2 0x65B CALLDATASIZE PUSH1 0x4 PUSH2 0x3BC4 JUMP JUMPDEST PUSH2 0x1F21 JUMP JUMPDEST CALLVALUE DUP1 ISZERO PUSH2 0x66C JUMPI PUSH1 0x0 DUP1 REVERT JUMPDEST POP PUSH2 0x346 PUSH2 0x1F41 JUMP JUMPDEST CALLVALUE DUP1 ISZERO PUSH2 0x681 JUMPI PUSH1 0x0 DUP1 REVERT JUMPDEST POP PUSH2 0x346 PUSH2 0x1FB7 JUMP JUMPDEST CALLVALUE DUP1 ISZERO PUSH2 0x696 JUMPI PUSH1 0x0 DUP1 REVERT JUMPDEST POP PUSH2 0x346 PUSH2 0x202E JUMP JUMPDEST CALLVALUE DUP1 ISZERO PUSH2 0x6AB JUMPI PUSH1 0x0 DUP1 REVERT JUMPDEST POP PUSH2 0x32F PUSH2 0x6BA CALLDATASIZE PUSH1 0x4 PUSH2 0x3D0A JUMP JUMPDEST PUSH2 0x2034 JUMP JUMPDEST CALLVALUE DUP1 ISZERO PUSH2 0x6CB JUMPI PUSH1 0x0 DUP1 REVERT JUMPDEST POP PUSH2 0x3E8 PUSH2 0x2372 JUMP JUMPDEST CALLVALUE DUP1 ISZERO PUSH2 0x6E0 JUMPI PUSH1 0x0 DUP1 REVERT JUMPDEST POP PUSH2 0x3E8 PUSH2 0x23D1 JUMP JUMPDEST CALLVALUE DUP1 ISZERO PUSH2 0x6F5 JUMPI PUSH1 0x0 DUP1 REVERT JUMPDEST POP PUSH2 0x391 PUSH2 0x704 CALLDATASIZE PUSH1 0x4 PUSH2 0x3ACD JUMP JUMPDEST PUSH2 0x244F JUMP JUMPDEST CALLVALUE DUP1 ISZERO PUSH2 0x715 JUMPI PUSH1 0x0 DUP1 REVERT JUMPDEST POP PUSH2 0x729 PUSH2 0x724 CALLDATASIZE PUSH1 0x4 PUSH2 0x3D0A JUMP JUMPDEST PUSH2 0x2470 JUMP JUMPDEST PUSH1 0x40 MLOAD PUSH2 0x353 SWAP8 SWAP7 SWAP6 SWAP5 SWAP4 SWAP3 SWAP2 SWAP1 PUSH2 0x440B JUMP JUMPDEST CALLVALUE DUP1 ISZERO PUSH2 0x748 JUMPI PUSH1 0x0 DUP1 REVERT JUMPDEST POP PUSH2 0x32F PUSH2 0x757 CALLDATASIZE PUSH1 0x4 PUSH2 0x3D0A JUMP JUMPDEST PUSH2 0x2548 JUMP JUMPDEST CALLVALUE DUP1 ISZERO PUSH2 0x768 JUMPI PUSH1 0x0 DUP1 REVERT JUMPDEST POP PUSH2 0x3E8 PUSH2 0x777 CALLDATASIZE PUSH1 0x4 PUSH2 0x3ACD JUMP JUMPDEST PUSH2 0x2591 JUMP JUMPDEST CALLVALUE DUP1 ISZERO PUSH2 0x788 JUMPI PUSH1 0x0 DUP1 REVERT JUMPDEST POP PUSH2 0x4F4 PUSH2 0x25FC JUMP JUMPDEST CALLVALUE DUP1 ISZERO PUSH2 0x79D JUMPI PUSH1 0x0 DUP1 REVERT JUMPDEST POP PUSH2 0x7B1 PUSH2 0x7AC CALLDATASIZE PUSH1 0x4 PUSH2 0x3ACD JUMP JUMPDEST PUSH2 0x2672 JUMP JUMPDEST PUSH1 0x40 MLOAD PUSH2 0x353 SWAP10 SWAP9 SWAP8 SWAP7 SWAP6 SWAP5 SWAP4 SWAP3 SWAP2 SWAP1 PUSH2 0x3ECF JUMP JUMPDEST CALLVALUE DUP1 ISZERO PUSH2 0x7D2 JUMPI PUSH1 0x0 DUP1 REVERT JUMPDEST POP PUSH2 0x346 PUSH2 0x7E1 CALLDATASIZE PUSH1 0x4 PUSH2 0x3D0A JUMP JUMPDEST PUSH2 0x29FC JUMP JUMPDEST CALLVALUE DUP1 ISZERO PUSH2 0x7F2 JUMPI PUSH1 0x0 DUP1 REVERT JUMPDEST POP PUSH2 0x391 PUSH2 0x801 CALLDATASIZE PUSH1 0x4 PUSH2 0x3D0A JUMP JUMPDEST PUSH2 0x2A11 JUMP JUMPDEST CALLVALUE DUP1 ISZERO PUSH2 0x812 JUMPI PUSH1 0x0 DUP1 REVERT JUMPDEST POP PUSH2 0x391 PUSH2 0x821 CALLDATASIZE PUSH1 0x4 PUSH2 0x3ACD JUMP JUMPDEST PUSH2 0x2A2E JUMP JUMPDEST CALLVALUE DUP1 ISZERO PUSH2 0x832 JUMPI PUSH1 0x0 DUP1 REVERT JUMPDEST POP PUSH2 0x391 PUSH2 0x841 CALLDATASIZE PUSH1 0x4 PUSH2 0x3ACD JUMP JUMPDEST PUSH2 0x2A4D JUMP JUMPDEST CALLVALUE DUP1 ISZERO PUSH2 0x852 JUMPI PUSH1 0x0 DUP1 REVERT JUMPDEST POP PUSH2 0x866 PUSH2 0x861 CALLDATASIZE PUSH1 0x4 PUSH2 0x3D0A JUMP JUMPDEST PUSH2 0x2A76 JUMP JUMPDEST PUSH1 0x40 MLOAD PUSH2 0x353 SWAP13 SWAP12 SWAP11 SWAP10 SWAP9 SWAP8 SWAP7 SWAP6 SWAP5 SWAP4 SWAP3 SWAP2 SWAP1 PUSH2 0x44F6 JUMP JUMPDEST CALLVALUE DUP1 ISZERO PUSH2 0x88A JUMPI PUSH1 0x0 DUP1 REVERT JUMPDEST POP PUSH2 0x32F PUSH2 0x899 CALLDATASIZE PUSH1 0x4 PUSH2 0x3D0A JUMP JUMPDEST PUSH2 0x2D89 JUMP JUMPDEST CALLVALUE DUP1 ISZERO PUSH2 0x8AA JUMPI PUSH1 0x0 DUP1 REVERT JUMPDEST POP PUSH2 0x32F PUSH2 0x8B9 CALLDATASIZE PUSH1 0x4 PUSH2 0x3C11 JUMP JUMPDEST PUSH2 0x3227 JUMP JUMPDEST CALLVALUE DUP1 ISZERO PUSH2 0x8CA JUMPI PUSH1 0x0 DUP1 REVERT JUMPDEST POP PUSH2 0x346 PUSH2 0x3452 JUMP JUMPDEST PUSH2 0x32F PUSH2 0x8E1 CALLDATASIZE PUSH1 0x4 PUSH2 0x3AF0 JUMP JUMPDEST PUSH2 0x3458 JUMP JUMPDEST CALLVALUE DUP1 ISZERO PUSH2 0x8F2 JUMPI PUSH1 0x0 DUP1 REVERT JUMPDEST POP PUSH2 0x32F PUSH2 0x901 CALLDATASIZE PUSH1 0x4 PUSH2 0x3D0A JUMP JUMPDEST PUSH2 0x362F JUMP JUMPDEST CALLVALUE DUP1 ISZERO PUSH2 0x912 JUMPI PUSH1 0x0 DUP1 REVERT JUMPDEST POP PUSH2 0x391 PUSH2 0x921 CALLDATASIZE PUSH1 0x4 PUSH2 0x3D22 JUMP JUMPDEST PUSH2 0x3665 JUMP JUMPDEST CALLVALUE DUP1 ISZERO PUSH2 0x932 JUMPI PUSH1 0x0 DUP1 REVERT JUMPDEST POP PUSH2 0x391 PUSH2 0x941 CALLDATASIZE PUSH1 0x4 PUSH2 0x3ACD JUMP JUMPDEST PUSH2 0x393C JUMP JUMPDEST CALLER PUSH1 0x0 SWAP1 DUP2 MSTORE PUSH1 0xD PUSH1 0x20 MSTORE PUSH1 0x40 SWAP1 KECCAK256 SLOAD PUSH1 0xFF AND ISZERO ISZERO PUSH1 0x1 EQ PUSH2 0x983 JUMPI PUSH1 0x40 MLOAD PUSH3 0x461BCD PUSH1 0xE5 SHL DUP2 MSTORE PUSH1 0x4 ADD PUSH2 0x97A SWAP1 PUSH2 0x40A2 JUMP JUMPDEST PUSH1 0x40 MLOAD DUP1 SWAP2 SUB SWAP1 REVERT JUMPDEST CALLER PUSH1 0x0 SWAP1 DUP2 MSTORE PUSH1 0xA PUSH1 0x20 SWAP1 DUP2 MSTORE PUSH1 0x40 SWAP1 SWAP2 KECCAK256 DUP3 MLOAD PUSH2 0x9A9 SWAP3 PUSH1 0x8 SWAP1 SWAP3 ADD SWAP2 DUP5 ADD SWAP1 PUSH2 0x395A JUMP JUMPDEST POP POP JUMP JUMPDEST PUSH1 0x2 SLOAD DUP2 JUMP JUMPDEST PUSH1 0x3 SLOAD SWAP1 JUMP JUMPDEST PUSH1 0x1 PUSH1 0x1 PUSH1 0xA0 SHL SUB DUP2 AND PUSH1 0x0 SWAP1 DUP2 MSTORE PUSH1 0xD PUSH1 0x20 MSTORE PUSH1 0x40 DUP2 KECCAK256 SLOAD PUSH1 0xFF AND ISZERO PUSH2 0x9E2 JUMPI POP PUSH1 0x1 PUSH2 0x9E6 JUMP JUMPDEST POP PUSH1 0x0 JUMPDEST SWAP2 SWAP1 POP JUMP JUMPDEST PUSH1 0x3 SLOAD DUP2 JUMP JUMPDEST PUSH1 0x0 DUP1 SLOAD PUSH1 0x1 PUSH1 0x1 PUSH1 0xA0 SHL SUB AND CALLER EQ PUSH2 0xA1C JUMPI PUSH1 0x40 MLOAD PUSH3 0x461BCD PUSH1 0xE5 SHL DUP2 MSTORE PUSH1 0x4 ADD PUSH2 0x97A SWAP1 PUSH2 0x414C JUMP JUMPDEST PUSH1 0x1 PUSH1 0x1 PUSH1 0xA0 SHL SUB DUP8 AND PUSH1 0x0 SWAP1 DUP2 MSTORE PUSH1 0x9 PUSH1 0x20 MSTORE PUSH1 0x40 SWAP1 KECCAK256 SLOAD PUSH1 0xFF AND ISZERO PUSH2 0xA55 JUMPI PUSH1 0x40 MLOAD PUSH3 0x461BCD PUSH1 0xE5 SHL DUP2 MSTORE PUSH1 0x4 ADD PUSH2 0x97A SWAP1 PUSH2 0x4392 JUMP JUMPDEST PUSH1 0x1 PUSH1 0x1 PUSH1 0xA0 SHL SUB DUP1 DUP9 AND PUSH1 0x0 DUP2 DUP2 MSTORE PUSH1 0x9 PUSH1 0x20 SWAP1 DUP2 MSTORE PUSH1 0x40 DUP1 DUP4 KECCAK256 DUP1 SLOAD PUSH1 0xFF NOT AND PUSH1 0x1 SWAP1 DUP2 OR SWAP1 SWAP2 SSTORE PUSH1 0x0 DUP1 MLOAD PUSH1 0x20 PUSH2 0x46F2 DUP4 CODECOPY DUP2 MLOAD SWAP2 MSTORE DUP1 SLOAD DUP1 DUP4 ADD SWAP1 SWAP2 SSTORE PUSH32 0x8048725117155AD5EF9CB75F77FBE235A4558A61159F5364C90D55C3A0D15B7A ADD DUP1 SLOAD PUSH1 0x1 PUSH1 0x1 PUSH1 0xA0 SHL SUB NOT SWAP1 DUP2 AND DUP8 OR SWAP1 SWAP2 SSTORE DUP3 MLOAD PUSH1 0xE0 DUP2 ADD DUP5 MSTORE DUP3 SLOAD DUP2 MSTORE DUP1 DUP6 ADD DUP8 DUP2 MSTORE DUP2 DUP6 ADD DUP16 DUP2 MSTORE PUSH1 0x60 DUP4 ADD DUP16 SWAP1 MSTORE PUSH1 0x80 DUP4 ADD DUP15 SWAP1 MSTORE PUSH1 0xA0 DUP4 ADD DUP14 SWAP1 MSTORE PUSH1 0xC0 DUP4 ADD DUP13 SWAP1 MSTORE SWAP8 DUP8 MSTORE PUSH1 0x7 DUP7 MSTORE SWAP4 SWAP1 SWAP6 KECCAK256 DUP6 MLOAD DUP2 SSTORE SWAP3 MLOAD SWAP2 DUP4 ADD DUP1 SLOAD SWAP3 SWAP1 SWAP8 AND SWAP2 AND OR SWAP1 SWAP5 SSTORE SWAP2 MLOAD DUP1 MLOAD SWAP2 SWAP4 SWAP3 PUSH2 0xB38 SWAP3 PUSH1 0x2 DUP6 ADD SWAP3 SWAP1 SWAP2 ADD SWAP1 PUSH2 0x395A JUMP JUMPDEST POP PUSH1 0x60 DUP3 ADD MLOAD PUSH1 0x3 DUP3 ADD SSTORE PUSH1 0x80 DUP3 ADD MLOAD PUSH1 0x4 DUP3 ADD SSTORE PUSH1 0xA0 DUP3 ADD MLOAD DUP1 MLOAD PUSH2 0xB68 SWAP2 PUSH1 0x5 DUP5 ADD SWAP2 PUSH1 0x20 SWAP1 SWAP2 ADD SWAP1 PUSH2 0x395A JUMP JUMPDEST POP PUSH1 0xC0 DUP3 ADD MLOAD DUP1 MLOAD PUSH2 0xB84 SWAP2 PUSH1 0x6 DUP5 ADD SWAP2 PUSH1 0x20 SWAP1 SWAP2 ADD SWAP1 PUSH2 0x395A JUMP JUMPDEST POP PUSH1 0x1 SWAP10 SWAP9 POP POP POP POP POP POP POP POP POP JUMP JUMPDEST PUSH1 0x1 PUSH1 0x0 MSTORE PUSH1 0x13 PUSH1 0x20 SWAP1 DUP2 MSTORE PUSH1 0x0 DUP1 MLOAD PUSH1 0x20 PUSH2 0x46D2 DUP4 CODECOPY DUP2 MLOAD SWAP2 MSTORE DUP1 SLOAD PUSH1 0x40 DUP1 MLOAD DUP3 DUP6 MUL DUP2 ADD DUP6 ADD SWAP1 SWAP2 MSTORE DUP2 DUP2 MSTORE PUSH1 0x60 SWAP4 SWAP1 SWAP3 SWAP2 SWAP1 DUP4 ADD DUP3 DUP3 DUP1 ISZERO PUSH2 0xBF8 JUMPI PUSH1 0x20 MUL DUP3 ADD SWAP2 SWAP1 PUSH1 0x0 MSTORE PUSH1 0x20 PUSH1 0x0 KECCAK256 SWAP1 JUMPDEST DUP2 SLOAD DUP2 MSTORE PUSH1 0x20 ADD SWAP1 PUSH1 0x1 ADD SWAP1 DUP1 DUP4 GT PUSH2 0xBE4 JUMPI JUMPDEST POP POP POP POP POP SWAP1 POP SWAP1 JUMP JUMPDEST PUSH1 0x0 DUP1 PUSH1 0x1 JUMPDEST PUSH1 0x3 SLOAD DUP2 GT PUSH2 0xC51 JUMPI PUSH1 0x0 DUP2 DUP2 MSTORE PUSH1 0xF PUSH1 0x20 MSTORE PUSH1 0x40 SWAP1 KECCAK256 PUSH1 0x9 ADD SLOAD PUSH1 0x1 PUSH1 0xA8 SHL SWAP1 DIV PUSH1 0xFF AND PUSH2 0xC3F JUMPI DUP2 PUSH2 0xC3B DUP2 PUSH2 0x4655 JUMP JUMPDEST SWAP3 POP POP JUMPDEST DUP1 PUSH2 0xC49 DUP2 PUSH2 0x4655 JUMP JUMPDEST SWAP2 POP POP PUSH2 0xC08 JUMP JUMPDEST POP SWAP1 POP SWAP1 JUMP JUMPDEST PUSH1 0x0 DUP2 DUP2 MSTORE PUSH1 0x10 PUSH1 0x20 MSTORE PUSH1 0x40 SWAP1 KECCAK256 PUSH1 0x1 ADD SLOAD PUSH1 0x1 PUSH1 0x1 PUSH1 0xA0 SHL SUB AND CALLER EQ PUSH2 0xC7D JUMPI PUSH1 0x0 DUP1 REVERT JUMPDEST PUSH1 0x0 PUSH1 0x3 PUSH1 0x0 DUP4 DUP2 MSTORE PUSH1 0x10 PUSH1 0x20 MSTORE PUSH1 0x40 SWAP1 KECCAK256 PUSH1 0x5 ADD SLOAD PUSH1 0xFF AND PUSH1 0x4 DUP2 GT ISZERO PUSH2 0xCB5 JUMPI PUSH4 0x4E487B71 PUSH1 0xE0 SHL PUSH1 0x0 MSTORE PUSH1 0x21 PUSH1 0x4 MSTORE PUSH1 0x24 PUSH1 0x0 REVERT JUMPDEST EQ ISZERO PUSH2 0xCBF JUMPI POP PUSH1 0x1 JUMPDEST DUP1 ISZERO PUSH2 0xCDD JUMPI PUSH1 0x40 MLOAD PUSH3 0x461BCD PUSH1 0xE5 SHL DUP2 MSTORE PUSH1 0x4 ADD PUSH2 0x97A SWAP1 PUSH2 0x4051 JUMP JUMPDEST POP PUSH1 0x0 SWAP1 DUP2 MSTORE PUSH1 0x10 PUSH1 0x20 SWAP1 DUP2 MSTORE PUSH1 0x40 DUP1 DUP4 KECCAK256 PUSH1 0x5 DUP2 ADD DUP1 SLOAD PUSH1 0x2 PUSH1 0xFF NOT SWAP2 DUP3 AND DUP2 OR SWAP1 SWAP3 SSTORE SWAP1 DUP3 ADD SLOAD PUSH1 0x1 PUSH1 0x1 PUSH1 0xA0 SHL SUB AND DUP6 MSTORE PUSH1 0x15 DUP5 MSTORE DUP3 DUP6 KECCAK256 PUSH1 0x3 SWAP1 SWAP3 ADD SLOAD DUP6 MSTORE SWAP3 MSTORE SWAP1 SWAP2 KECCAK256 DUP1 SLOAD SWAP1 SWAP2 AND SWAP1 SSTORE JUMP JUMPDEST PUSH1 0x0 SLOAD PUSH1 0x1 PUSH1 0x1 PUSH1 0xA0 SHL SUB AND CALLER EQ PUSH2 0xD58 JUMPI PUSH1 0x40 MLOAD PUSH3 0x461BCD PUSH1 0xE5 SHL DUP2 MSTORE PUSH1 0x4 ADD PUSH2 0x97A SWAP1 PUSH2 0x40CF JUMP JUMPDEST PUSH1 0x0 DUP1 SLOAD PUSH1 0x1 PUSH1 0x1 PUSH1 0xA0 SHL SUB NOT AND PUSH1 0x1 PUSH1 0x1 PUSH1 0xA0 SHL SUB SWAP3 SWAP1 SWAP3 AND SWAP2 SWAP1 SWAP2 OR SWAP1 SSTORE JUMP JUMPDEST PUSH2 0xD83 CALLER PUSH2 0x244F JUMP JUMPDEST PUSH2 0xD8C JUMPI PUSH1 0x0 DUP1 REVERT JUMPDEST PUSH1 0x3 DUP1 SLOAD SWAP1 PUSH1 0x0 PUSH2 0xD9C DUP4 PUSH2 0x4655 JUMP JUMPDEST SWAP2 SWAP1 POP SSTORE POP PUSH1 0x40 MLOAD DUP1 PUSH2 0x180 ADD PUSH1 0x40 MSTORE DUP1 PUSH1 0x3 SLOAD DUP2 MSTORE PUSH1 0x20 ADD DUP10 DUP2 MSTORE PUSH1 0x20 ADD DUP9 DUP2 MSTORE PUSH1 0x20 ADD PUSH8 0xDE0B6B3A7640000 DUP9 PUSH8 0xDE0B6B3A7640000 PUSH2 0xDDE SWAP2 SWAP1 PUSH2 0x45E4 JUMP JUMPDEST PUSH2 0xDE8 SWAP2 SWAP1 PUSH2 0x45C4 JUMP JUMPDEST DUP2 MSTORE PUSH1 0x20 DUP1 DUP3 ADD DUP9 SWAP1 MSTORE PUSH1 0x40 DUP1 DUP4 ADD DUP9 SWAP1 MSTORE PUSH1 0x60 DUP4 ADD DUP8 SWAP1 MSTORE PUSH1 0x80 DUP4 ADD DUP7 SWAP1 MSTORE PUSH1 0xA0 DUP4 ADD DUP6 SWAP1 MSTORE PUSH1 0x0 PUSH1 0xC0 DUP5 ADD DUP2 SWAP1 MSTORE CALLER PUSH1 0xE0 DUP6 ADD MSTORE PUSH2 0x100 SWAP1 SWAP4 ADD DUP4 SWAP1 MSTORE PUSH1 0x3 SLOAD DUP4 MSTORE PUSH1 0xF DUP3 MSTORE SWAP2 DUP3 SWAP1 KECCAK256 DUP4 MLOAD DUP2 SSTORE DUP4 DUP3 ADD MLOAD PUSH1 0x1 DUP3 ADD SSTORE SWAP2 DUP4 ADD MLOAD DUP1 MLOAD PUSH2 0xE57 SWAP3 PUSH1 0x2 DUP6 ADD SWAP3 ADD SWAP1 PUSH2 0x395A JUMP JUMPDEST POP PUSH1 0x60 DUP3 ADD MLOAD PUSH1 0x3 DUP3 ADD SSTORE PUSH1 0x80 DUP3 ADD MLOAD DUP1 MLOAD PUSH2 0xE7D SWAP2 PUSH1 0x4 DUP5 ADD SWAP2 PUSH1 0x20 SWAP1 SWAP2 ADD SWAP1 PUSH2 0x395A JUMP JUMPDEST POP PUSH1 0xA0 DUP3 ADD MLOAD PUSH1 0x5 DUP3 ADD SSTORE PUSH1 0xC0 DUP3 ADD MLOAD DUP1 MLOAD PUSH2 0xEA3 SWAP2 PUSH1 0x6 DUP5 ADD SWAP2 PUSH1 0x20 SWAP1 SWAP2 ADD SWAP1 PUSH2 0x395A JUMP JUMPDEST POP PUSH1 0xE0 DUP3 ADD MLOAD DUP1 MLOAD PUSH2 0xEBF SWAP2 PUSH1 0x7 DUP5 ADD SWAP2 PUSH1 0x20 SWAP1 SWAP2 ADD SWAP1 PUSH2 0x395A JUMP JUMPDEST POP PUSH2 0x100 DUP3 ADD MLOAD DUP1 MLOAD PUSH2 0xEDC SWAP2 PUSH1 0x8 DUP5 ADD SWAP2 PUSH1 0x20 SWAP1 SWAP2 ADD SWAP1 PUSH2 0x395A JUMP JUMPDEST POP PUSH2 0x120 DUP3 ADD MLOAD PUSH1 0x9 SWAP1 SWAP2 ADD DUP1 SLOAD PUSH2 0x140 DUP5 ADD MLOAD PUSH2 0x160 SWAP1 SWAP5 ADD MLOAD ISZERO ISZERO PUSH1 0x1 PUSH1 0xA8 SHL MUL PUSH1 0xFF PUSH1 0xA8 SHL NOT PUSH1 0x1 PUSH1 0x1 PUSH1 0xA0 SHL SUB SWAP1 SWAP6 AND PUSH2 0x100 MUL PUSH2 0x100 PUSH1 0x1 PUSH1 0xA8 SHL SUB NOT SWAP5 ISZERO ISZERO PUSH1 0xFF NOT SWAP1 SWAP4 AND SWAP3 SWAP1 SWAP3 OR SWAP4 SWAP1 SWAP4 AND OR SWAP3 SWAP1 SWAP3 AND OR SWAP1 SSTORE POP POP CALLER PUSH1 0x0 SWAP1 DUP2 MSTORE PUSH1 0xE PUSH1 0x20 SWAP1 DUP2 MSTORE PUSH1 0x40 DUP3 KECCAK256 PUSH1 0x3 DUP1 SLOAD DUP3 SLOAD PUSH1 0x1 DUP2 DUP2 ADD DUP6 SSTORE SWAP4 DUP7 MSTORE DUP5 DUP7 KECCAK256 ADD SSTORE PUSH1 0x13 SWAP1 SWAP3 MSTORE SWAP1 SLOAD PUSH1 0x0 DUP1 MLOAD PUSH1 0x20 PUSH2 0x46D2 DUP4 CODECOPY DUP2 MLOAD SWAP2 MSTORE DUP1 SLOAD SWAP3 DUP4 ADD DUP2 SSTORE SWAP1 SWAP3 MSTORE PUSH32 0x3CE2CB385EDCBF7185FD469186DD769993781141B215A1A4715EBB7F94FD59AB ADD SSTORE POP POP POP POP POP POP JUMP JUMPDEST CALLER PUSH1 0x0 SWAP1 DUP2 MSTORE PUSH1 0x11 PUSH1 0x20 SWAP1 DUP2 MSTORE PUSH1 0x40 SWAP2 DUP3 SWAP1 KECCAK256 DUP1 SLOAD DUP4 MLOAD DUP2 DUP5 MUL DUP2 ADD DUP5 ADD SWAP1 SWAP5 MSTORE DUP1 DUP5 MSTORE PUSH1 0x60 SWAP4 SWAP3 DUP4 ADD DUP3 DUP3 DUP1 ISZERO PUSH2 0xBF8 JUMPI PUSH1 0x20 MUL DUP3 ADD SWAP2 SWAP1 PUSH1 0x0 MSTORE PUSH1 0x20 PUSH1 0x0 KECCAK256 SWAP1 DUP2 SLOAD DUP2 MSTORE PUSH1 0x20 ADD SWAP1 PUSH1 0x1 ADD SWAP1 DUP1 DUP4 GT PUSH2 0xBE4 JUMPI POP POP POP POP POP SWAP1 POP SWAP1 JUMP JUMPDEST PUSH1 0x0 DUP2 DUP2 MSTORE PUSH1 0x10 PUSH1 0x20 MSTORE PUSH1 0x40 SWAP1 KECCAK256 PUSH1 0x1 ADD SLOAD PUSH1 0x1 PUSH1 0x1 PUSH1 0xA0 SHL SUB AND CALLER EQ PUSH2 0x102F JUMPI PUSH1 0x0 DUP1 REVERT JUMPDEST PUSH1 0x0 SWAP1 DUP2 MSTORE PUSH1 0x10 PUSH1 0x20 SWAP1 DUP2 MSTORE PUSH1 0x40 DUP1 DUP4 KECCAK256 PUSH1 0x5 DUP2 ADD DUP1 SLOAD PUSH1 0xFF NOT SWAP1 DUP2 AND PUSH1 0x1 OR SWAP1 SWAP2 SSTORE PUSH1 0x2 DUP3 ADD SLOAD PUSH1 0x1 PUSH1 0x1 PUSH1 0xA0 SHL SUB AND DUP6 MSTORE PUSH1 0x15 DUP5 MSTORE DUP3 DUP6 KECCAK256 PUSH1 0x3 SWAP1 SWAP3 ADD SLOAD DUP6 MSTORE SWAP3 MSTORE SWAP1 SWAP2 KECCAK256 DUP1 SLOAD SWAP1 SWAP2 AND SWAP1 SSTORE JUMP JUMPDEST PUSH2 0x1088 DUP2 PUSH2 0x393C JUMP JUMPDEST ISZERO PUSH2 0x10A5 JUMPI PUSH1 0x40 MLOAD PUSH3 0x461BCD PUSH1 0xE5 SHL DUP2 MSTORE PUSH1 0x4 ADD PUSH2 0x97A SWAP1 PUSH2 0x424E JUMP JUMPDEST PUSH2 0x10AE CALLER PUSH2 0x2A4D JUMP JUMPDEST PUSH2 0x10B7 JUMPI PUSH1 0x0 DUP1 REVERT JUMPDEST PUSH1 0x1 PUSH1 0x1 PUSH1 0xA0 SHL SUB AND PUSH1 0x0 SWAP1 DUP2 MSTORE PUSH1 0xA PUSH1 0x20 SWAP1 DUP2 MSTORE PUSH1 0x40 DUP1 DUP4 KECCAK256 PUSH1 0x7 ADD DUP1 SLOAD PUSH1 0xFF NOT SWAP1 DUP2 AND PUSH1 0x1 OR SWAP1 SWAP2 SSTORE PUSH1 0x6 SWAP1 SWAP3 MSTORE SWAP1 SWAP2 KECCAK256 DUP1 SLOAD SWAP1 SWAP2 AND SWAP1 SSTORE JUMP JUMPDEST PUSH2 0x10FC CALLER PUSH2 0x2A4D JUMP JUMPDEST PUSH2 0x1105 JUMPI PUSH1 0x0 DUP1 REVERT JUMPDEST PUSH1 0x1 PUSH1 0x1 PUSH1 0xA0 SHL SUB DUP2 AND PUSH1 0x0 SWAP1 DUP2 MSTORE PUSH1 0xA PUSH1 0x20 SWAP1 DUP2 MSTORE PUSH1 0x40 DUP1 DUP4 KECCAK256 PUSH1 0x7 ADD DUP1 SLOAD PUSH1 0xFF NOT SWAP1 DUP2 AND SWAP1 SWAP2 SSTORE PUSH1 0x6 DUP4 MSTORE DUP2 DUP5 KECCAK256 DUP1 SLOAD DUP3 AND PUSH1 0x1 SWAP1 DUP2 OR SWAP1 SWAP2 SSTORE PUSH1 0xD DUP5 MSTORE SWAP2 DUP5 KECCAK256 DUP1 SLOAD SWAP1 SWAP2 AND SWAP1 SSTORE DUP3 MSTORE PUSH1 0xC SWAP1 MSTORE PUSH1 0x0 DUP1 MLOAD PUSH1 0x20 PUSH2 0x46B2 DUP4 CODECOPY DUP2 MLOAD SWAP2 MSTORE SLOAD SWAP1 JUMPDEST DUP2 DUP2 LT ISZERO PUSH2 0x12FF JUMPI PUSH1 0x1 PUSH1 0x0 MSTORE PUSH1 0xC PUSH1 0x20 MSTORE PUSH1 0x0 DUP1 MLOAD PUSH1 0x20 PUSH2 0x46B2 DUP4 CODECOPY DUP2 MLOAD SWAP2 MSTORE DUP1 SLOAD PUSH1 0x1 PUSH1 0x1 PUSH1 0xA0 SHL SUB DUP6 AND SWAP2 SWAP1 DUP4 SWAP1 DUP2 LT PUSH2 0x11B4 JUMPI PUSH4 0x4E487B71 PUSH1 0xE0 SHL PUSH1 0x0 MSTORE PUSH1 0x32 PUSH1 0x4 MSTORE PUSH1 0x24 PUSH1 0x0 REVERT JUMPDEST PUSH1 0x0 SWAP2 DUP3 MSTORE PUSH1 0x20 SWAP1 SWAP2 KECCAK256 ADD SLOAD PUSH1 0x1 PUSH1 0x1 PUSH1 0xA0 SHL SUB AND EQ ISZERO PUSH2 0x12ED JUMPI PUSH1 0x1 PUSH1 0x0 DUP2 SWAP1 MSTORE PUSH1 0xC PUSH1 0x20 MSTORE PUSH1 0x0 DUP1 MLOAD PUSH1 0x20 PUSH2 0x46B2 DUP4 CODECOPY DUP2 MLOAD SWAP2 MSTORE SWAP1 PUSH2 0x11F5 SWAP1 DUP5 PUSH2 0x4603 JUMP JUMPDEST DUP2 SLOAD DUP2 LT PUSH2 0x1213 JUMPI PUSH4 0x4E487B71 PUSH1 0xE0 SHL PUSH1 0x0 MSTORE PUSH1 0x32 PUSH1 0x4 MSTORE PUSH1 0x24 PUSH1 0x0 REVERT JUMPDEST PUSH1 0x0 SWAP2 DUP3 MSTORE PUSH1 0x20 DUP1 DUP4 KECCAK256 SWAP1 SWAP2 ADD SLOAD PUSH1 0x1 SWAP1 SWAP3 MSTORE PUSH1 0xC SWAP1 MSTORE PUSH1 0x0 DUP1 MLOAD PUSH1 0x20 PUSH2 0x46B2 DUP4 CODECOPY DUP2 MLOAD SWAP2 MSTORE DUP1 SLOAD PUSH1 0x1 PUSH1 0x1 PUSH1 0xA0 SHL SUB SWAP1 SWAP3 AND SWAP2 DUP4 SWAP1 DUP2 LT PUSH2 0x1265 JUMPI PUSH4 0x4E487B71 PUSH1 0xE0 SHL PUSH1 0x0 MSTORE PUSH1 0x32 PUSH1 0x4 MSTORE PUSH1 0x24 PUSH1 0x0 REVERT JUMPDEST PUSH1 0x0 SWAP2 DUP3 MSTORE PUSH1 0x20 DUP1 DUP4 KECCAK256 SWAP2 SWAP1 SWAP2 ADD DUP1 SLOAD PUSH1 0x1 PUSH1 0x1 PUSH1 0xA0 SHL SUB NOT AND PUSH1 0x1 PUSH1 0x1 PUSH1 0xA0 SHL SUB SWAP5 SWAP1 SWAP5 AND SWAP4 SWAP1 SWAP4 OR SWAP1 SWAP3 SSTORE PUSH1 0x1 SWAP1 MSTORE PUSH1 0xC SWAP1 MSTORE PUSH1 0x0 DUP1 MLOAD PUSH1 0x20 PUSH2 0x46B2 DUP4 CODECOPY DUP2 MLOAD SWAP2 MSTORE DUP1 SLOAD DUP1 PUSH2 0x12C6 JUMPI PUSH4 0x4E487B71 PUSH1 0xE0 SHL PUSH1 0x0 MSTORE PUSH1 0x31 PUSH1 0x4 MSTORE PUSH1 0x24 PUSH1 0x0 REVERT JUMPDEST PUSH1 0x0 DUP3 DUP2 MSTORE PUSH1 0x20 SWAP1 KECCAK256 DUP2 ADD PUSH1 0x0 NOT SWAP1 DUP2 ADD DUP1 SLOAD PUSH1 0x1 PUSH1 0x1 PUSH1 0xA0 SHL SUB NOT AND SWAP1 SSTORE ADD SWAP1 SSTORE PUSH2 0x12FF JUMP JUMPDEST DUP1 PUSH2 0x12F7 DUP2 PUSH2 0x4655 JUMP JUMPDEST SWAP2 POP POP PUSH2 0x1167 JUMP JUMPDEST POP POP PUSH1 0x1 PUSH1 0x1 PUSH1 0xA0 SHL SUB DUP2 AND PUSH1 0x0 SWAP1 DUP2 MSTORE PUSH1 0xE PUSH1 0x20 MSTORE PUSH1 0x40 DUP2 KECCAK256 SLOAD SWAP1 JUMPDEST DUP2 DUP2 LT ISZERO PUSH2 0x1573 JUMPI PUSH1 0x1 PUSH1 0x1 PUSH1 0xA0 SHL SUB DUP4 AND PUSH1 0x0 SWAP1 DUP2 MSTORE PUSH1 0xE PUSH1 0x20 MSTORE PUSH1 0x40 DUP2 KECCAK256 DUP1 SLOAD DUP4 SWAP1 DUP2 LT PUSH2 0x135C JUMPI PUSH4 0x4E487B71 PUSH1 0xE0 SHL PUSH1 0x0 MSTORE PUSH1 0x32 PUSH1 0x4 MSTORE PUSH1 0x24 PUSH1 0x0 REVERT JUMPDEST PUSH1 0x0 SWAP2 DUP3 MSTORE PUSH1 0x20 DUP1 DUP4 KECCAK256 SWAP1 SWAP2 ADD SLOAD DUP1 DUP4 MSTORE PUSH1 0xF SWAP1 SWAP2 MSTORE PUSH1 0x40 DUP3 KECCAK256 DUP3 DUP2 SSTORE PUSH1 0x1 DUP2 ADD DUP4 SWAP1 SSTORE SWAP1 SWAP3 POP SWAP1 PUSH2 0x1391 PUSH1 0x2 DUP4 ADD DUP3 PUSH2 0x39DE JUMP JUMPDEST PUSH1 0x3 DUP3 ADD PUSH1 0x0 SWAP1 SSTORE PUSH1 0x4 DUP3 ADD PUSH1 0x0 PUSH2 0x13A9 SWAP2 SWAP1 PUSH2 0x39DE JUMP JUMPDEST PUSH1 0x5 DUP3 ADD PUSH1 0x0 SWAP1 SSTORE PUSH1 0x6 DUP3 ADD PUSH1 0x0 PUSH2 0x13C1 SWAP2 SWAP1 PUSH2 0x39DE JUMP JUMPDEST PUSH2 0x13CF PUSH1 0x7 DUP4 ADD PUSH1 0x0 PUSH2 0x39DE JUMP JUMPDEST PUSH2 0x13DD PUSH1 0x8 DUP4 ADD PUSH1 0x0 PUSH2 0x39DE JUMP JUMPDEST POP PUSH1 0x9 ADD DUP1 SLOAD PUSH1 0x1 PUSH1 0x1 PUSH1 0xB0 SHL SUB NOT AND SWAP1 SSTORE PUSH1 0x0 JUMPDEST PUSH1 0x1 PUSH1 0x0 MSTORE PUSH1 0x13 PUSH1 0x20 MSTORE PUSH1 0x0 DUP1 MLOAD PUSH1 0x20 PUSH2 0x46D2 DUP4 CODECOPY DUP2 MLOAD SWAP2 MSTORE SLOAD DUP2 LT ISZERO PUSH2 0x155E JUMPI PUSH1 0x1 PUSH1 0x0 MSTORE PUSH1 0x13 PUSH1 0x20 MSTORE PUSH1 0x0 DUP1 MLOAD PUSH1 0x20 PUSH2 0x46D2 DUP4 CODECOPY DUP2 MLOAD SWAP2 MSTORE DUP1 SLOAD DUP4 SWAP2 SWAP1 DUP4 SWAP1 DUP2 LT PUSH2 0x144F JUMPI PUSH4 0x4E487B71 PUSH1 0xE0 SHL PUSH1 0x0 MSTORE PUSH1 0x32 PUSH1 0x4 MSTORE PUSH1 0x24 PUSH1 0x0 REVERT JUMPDEST SWAP1 PUSH1 0x0 MSTORE PUSH1 0x20 PUSH1 0x0 KECCAK256 ADD SLOAD EQ ISZERO PUSH2 0x154C JUMPI PUSH1 0x1 PUSH1 0x0 DUP2 SWAP1 MSTORE PUSH1 0x13 PUSH1 0x20 MSTORE PUSH1 0x0 DUP1 MLOAD PUSH1 0x20 PUSH2 0x46D2 DUP4 CODECOPY DUP2 MLOAD SWAP2 MSTORE DUP1 SLOAD SWAP1 SWAP2 PUSH2 0x1488 SWAP2 PUSH2 0x4603 JUMP JUMPDEST DUP2 SLOAD DUP2 LT PUSH2 0x14A6 JUMPI PUSH4 0x4E487B71 PUSH1 0xE0 SHL PUSH1 0x0 MSTORE PUSH1 0x32 PUSH1 0x4 MSTORE PUSH1 0x24 PUSH1 0x0 REVERT JUMPDEST PUSH1 0x0 SWAP2 DUP3 MSTORE PUSH1 0x20 DUP1 DUP4 KECCAK256 SWAP1 SWAP2 ADD SLOAD PUSH1 0x1 SWAP1 SWAP3 MSTORE PUSH1 0x13 SWAP1 MSTORE PUSH1 0x0 DUP1 MLOAD PUSH1 0x20 PUSH2 0x46D2 DUP4 CODECOPY DUP2 MLOAD SWAP2 MSTORE DUP1 SLOAD DUP4 SWAP1 DUP2 LT PUSH2 0x14EC JUMPI PUSH4 0x4E487B71 PUSH1 0xE0 SHL PUSH1 0x0 MSTORE PUSH1 0x32 PUSH1 0x4 MSTORE PUSH1 0x24 PUSH1 0x0 REVERT JUMPDEST PUSH1 0x0 SWAP2 DUP3 MSTORE PUSH1 0x20 DUP1 DUP4 KECCAK256 SWAP1 SWAP2 ADD SWAP3 SWAP1 SWAP3 SSTORE PUSH1 0x1 SWAP1 MSTORE PUSH1 0x13 SWAP1 MSTORE PUSH1 0x0 DUP1 MLOAD PUSH1 0x20 PUSH2 0x46D2 DUP4 CODECOPY DUP2 MLOAD SWAP2 MSTORE DUP1 SLOAD DUP1 PUSH2 0x1531 JUMPI PUSH4 0x4E487B71 PUSH1 0xE0 SHL PUSH1 0x0 MSTORE PUSH1 0x31 PUSH1 0x4 MSTORE PUSH1 0x24 PUSH1 0x0 REVERT JUMPDEST PUSH1 0x1 SWAP1 SUB DUP2 DUP2 SWAP1 PUSH1 0x0 MSTORE PUSH1 0x20 PUSH1 0x0 KECCAK256 ADD PUSH1 0x0 SWAP1 SSTORE SWAP1 SSTORE PUSH2 0x155E JUMP JUMPDEST DUP1 PUSH2 0x1556 DUP2 PUSH2 0x4655 JUMP JUMPDEST SWAP2 POP POP PUSH2 0x13F2 JUMP JUMPDEST POP POP DUP1 DUP1 PUSH2 0x156B SWAP1 PUSH2 0x4655 JUMP JUMPDEST SWAP2 POP POP PUSH2 0x131C JUMP JUMPDEST POP PUSH1 0x1 PUSH1 0x1 PUSH1 0xA0 SHL SUB DUP3 AND PUSH1 0x0 SWAP1 DUP2 MSTORE PUSH1 0xE PUSH1 0x20 MSTORE PUSH1 0x40 DUP2 KECCAK256 PUSH2 0x9A9 SWAP2 PUSH2 0x3A1D JUMP JUMPDEST PUSH1 0x1 PUSH1 0x0 MSTORE PUSH1 0xC PUSH1 0x20 SWAP1 DUP2 MSTORE PUSH1 0x0 DUP1 MLOAD PUSH1 0x20 PUSH2 0x46B2 DUP4 CODECOPY DUP2 MLOAD SWAP2 MSTORE DUP1 SLOAD PUSH1 0x40 DUP1 MLOAD DUP3 DUP6 MUL DUP2 ADD DUP6 ADD SWAP1 SWAP2 MSTORE DUP2 DUP2 MSTORE PUSH1 0x60 SWAP4 SWAP1 SWAP3 SWAP2 SWAP1 DUP4 ADD DUP3 DUP3 DUP1 ISZERO PUSH2 0xBF8 JUMPI PUSH1 0x20 MUL DUP3 ADD SWAP2 SWAP1 PUSH1 0x0 MSTORE PUSH1 0x20 PUSH1 0x0 KECCAK256 SWAP1 JUMPDEST DUP2 SLOAD PUSH1 0x1 PUSH1 0x1 PUSH1 0xA0 SHL SUB AND DUP2 MSTORE PUSH1 0x1 SWAP1 SWAP2 ADD SWAP1 PUSH1 0x20 ADD DUP1 DUP4 GT PUSH2 0x15E5 JUMPI POP POP POP POP POP SWAP1 POP SWAP1 JUMP JUMPDEST PUSH1 0x0 DUP3 DUP2 MSTORE PUSH1 0xF PUSH1 0x20 MSTORE PUSH1 0x40 SWAP1 KECCAK256 PUSH1 0x9 ADD SLOAD PUSH2 0x100 SWAP1 DIV PUSH1 0x1 PUSH1 0x1 PUSH1 0xA0 SHL SUB AND CALLER EQ PUSH2 0x1637 JUMPI PUSH1 0x0 DUP1 REVERT JUMPDEST PUSH1 0x0 DUP1 JUMPDEST CALLER PUSH1 0x0 SWAP1 DUP2 MSTORE PUSH1 0x11 PUSH1 0x20 MSTORE PUSH1 0x40 SWAP1 KECCAK256 SLOAD DUP2 LT ISZERO PUSH2 0x1745 JUMPI CALLER PUSH1 0x0 SWAP1 DUP2 MSTORE PUSH1 0x11 PUSH1 0x20 MSTORE PUSH1 0x40 DUP2 KECCAK256 DUP1 SLOAD DUP4 SWAP1 DUP2 LT PUSH2 0x1681 JUMPI PUSH4 0x4E487B71 PUSH1 0xE0 SHL PUSH1 0x0 MSTORE PUSH1 0x32 PUSH1 0x4 MSTORE PUSH1 0x24 PUSH1 0x0 REVERT JUMPDEST SWAP1 PUSH1 0x0 MSTORE PUSH1 0x20 PUSH1 0x0 KECCAK256 ADD SLOAD SWAP1 POP DUP5 PUSH1 0x10 PUSH1 0x0 DUP4 DUP2 MSTORE PUSH1 0x20 ADD SWAP1 DUP2 MSTORE PUSH1 0x20 ADD PUSH1 0x0 KECCAK256 PUSH1 0x3 ADD SLOAD EQ DUP1 ISZERO PUSH2 0x1723 JUMPI POP PUSH1 0x1 PUSH1 0x0 DUP3 DUP2 MSTORE PUSH1 0x10 PUSH1 0x20 MSTORE PUSH1 0x40 SWAP1 KECCAK256 PUSH1 0x5 ADD SLOAD PUSH1 0xFF AND PUSH1 0x4 DUP2 GT ISZERO PUSH2 0x16E4 JUMPI PUSH4 0x4E487B71 PUSH1 0xE0 SHL PUSH1 0x0 MSTORE PUSH1 0x21 PUSH1 0x4 MSTORE PUSH1 0x24 PUSH1 0x0 REVERT JUMPDEST EQ DUP1 PUSH2 0x1723 JUMPI POP PUSH1 0x3 PUSH1 0x0 DUP3 DUP2 MSTORE PUSH1 0x10 PUSH1 0x20 MSTORE PUSH1 0x40 SWAP1 KECCAK256 PUSH1 0x5 ADD SLOAD PUSH1 0xFF AND PUSH1 0x4 DUP2 GT ISZERO PUSH2 0x1721 JUMPI PUSH4 0x4E487B71 PUSH1 0xE0 SHL PUSH1 0x0 MSTORE PUSH1 0x21 PUSH1 0x4 MSTORE PUSH1 0x24 PUSH1 0x0 REVERT JUMPDEST EQ JUMPDEST ISZERO PUSH2 0x1732 JUMPI PUSH1 0x1 SWAP3 POP POP PUSH2 0x1745 JUMP JUMPDEST POP DUP1 PUSH2 0x173D DUP2 PUSH2 0x4655 JUMP JUMPDEST SWAP2 POP POP PUSH2 0x163B JUMP JUMPDEST POP DUP1 ISZERO PUSH2 0x1764 JUMPI PUSH1 0x40 MLOAD PUSH3 0x461BCD PUSH1 0xE5 SHL DUP2 MSTORE PUSH1 0x4 ADD PUSH2 0x97A SWAP1 PUSH2 0x43B7 JUMP JUMPDEST PUSH8 0xDE0B6B3A7640000 PUSH2 0x1777 DUP4 DUP3 PUSH2 0x45E4 JUMP JUMPDEST PUSH2 0x1781 SWAP2 SWAP1 PUSH2 0x45C4 JUMP JUMPDEST PUSH1 0x0 SWAP4 DUP5 MSTORE PUSH1 0xF PUSH1 0x20 MSTORE PUSH1 0x40 SWAP1 SWAP4 KECCAK256 PUSH1 0x3 ADD SWAP3 SWAP1 SWAP3 SSTORE POP POP JUMP JUMPDEST PUSH1 0x5 SLOAD DUP2 JUMP JUMPDEST PUSH1 0x1 PUSH1 0x0 MSTORE PUSH1 0x14 PUSH1 0x20 MSTORE PUSH32 0xB6C61A840592CC84133E4B25BD509ABF4659307C57B160799B38490A5AA48F2C SLOAD SWAP1 JUMP JUMPDEST PUSH1 0x7 PUSH1 0x20 MSTORE PUSH1 0x0 SWAP1 DUP2 MSTORE PUSH1 0x40 SWAP1 KECCAK256 DUP1 SLOAD PUSH1 0x1 DUP3 ADD SLOAD PUSH1 0x2 DUP4 ADD DUP1 SLOAD SWAP3 SWAP4 PUSH1 0x1 PUSH1 0x1 PUSH1 0xA0 SHL SUB SWAP1 SWAP3 AND SWAP3 PUSH2 0x1802 SWAP1 PUSH2 0x461A JUMP JUMPDEST DUP1 PUSH1 0x1F ADD PUSH1 0x20 DUP1 SWAP2 DIV MUL PUSH1 0x20 ADD PUSH1 0x40 MLOAD SWAP1 DUP2 ADD PUSH1 0x40 MSTORE DUP1 SWAP3 SWAP2 SWAP1 DUP2 DUP2 MSTORE PUSH1 0x20 ADD DUP3 DUP1 SLOAD PUSH2 0x182E SWAP1 PUSH2 0x461A JUMP JUMPDEST DUP1 ISZERO PUSH2 0x187B JUMPI DUP1 PUSH1 0x1F LT PUSH2 0x1850 JUMPI PUSH2 0x100 DUP1 DUP4 SLOAD DIV MUL DUP4 MSTORE SWAP2 PUSH1 0x20 ADD SWAP2 PUSH2 0x187B JUMP JUMPDEST DUP3 ADD SWAP2 SWAP1 PUSH1 0x0 MSTORE PUSH1 0x20 PUSH1 0x0 KECCAK256 SWAP1 JUMPDEST DUP2 SLOAD DUP2 MSTORE SWAP1 PUSH1 0x1 ADD SWAP1 PUSH1 0x20 ADD DUP1 DUP4 GT PUSH2 0x185E JUMPI DUP3 SWAP1 SUB PUSH1 0x1F AND DUP3 ADD SWAP2 JUMPDEST POP POP POP POP POP SWAP1 DUP1 PUSH1 0x3 ADD SLOAD SWAP1 DUP1 PUSH1 0x4 ADD SLOAD SWAP1 DUP1 PUSH1 0x5 ADD DUP1 SLOAD PUSH2 0x189C SWAP1 PUSH2 0x461A JUMP JUMPDEST DUP1 PUSH1 0x1F ADD PUSH1 0x20 DUP1 SWAP2 DIV MUL PUSH1 0x20 ADD PUSH1 0x40 MLOAD SWAP1 DUP2 ADD PUSH1 0x40 MSTORE DUP1 SWAP3 SWAP2 SWAP1 DUP2 DUP2 MSTORE PUSH1 0x20 ADD DUP3 DUP1 SLOAD PUSH2 0x18C8 SWAP1 PUSH2 0x461A JUMP JUMPDEST DUP1 ISZERO PUSH2 0x1915 JUMPI DUP1 PUSH1 0x1F LT PUSH2 0x18EA JUMPI PUSH2 0x100 DUP1 DUP4 SLOAD DIV MUL DUP4 MSTORE SWAP2 PUSH1 0x20 ADD SWAP2 PUSH2 0x1915 JUMP JUMPDEST DUP3 ADD SWAP2 SWAP1 PUSH1 0x0 MSTORE PUSH1 0x20 PUSH1 0x0 KECCAK256 SWAP1 JUMPDEST DUP2 SLOAD DUP2 MSTORE SWAP1 PUSH1 0x1 ADD SWAP1 PUSH1 0x20 ADD DUP1 DUP4 GT PUSH2 0x18F8 JUMPI DUP3 SWAP1 SUB PUSH1 0x1F AND DUP3 ADD SWAP2 JUMPDEST POP POP POP POP POP SWAP1 DUP1 PUSH1 0x6 ADD DUP1 SLOAD PUSH2 0x192A SWAP1 PUSH2 0x461A JUMP JUMPDEST DUP1 PUSH1 0x1F ADD PUSH1 0x20 DUP1 SWAP2 DIV MUL PUSH1 0x20 ADD PUSH1 0x40 MLOAD SWAP1 DUP2 ADD PUSH1 0x40 MSTORE DUP1 SWAP3 SWAP2 SWAP1 DUP2 DUP2 MSTORE PUSH1 0x20 ADD DUP3 DUP1 SLOAD PUSH2 0x1956 SWAP1 PUSH2 0x461A JUMP JUMPDEST DUP1 ISZERO PUSH2 0x19A3 JUMPI DUP1 PUSH1 0x1F LT PUSH2 0x1978 JUMPI PUSH2 0x100 DUP1 DUP4 SLOAD DIV MUL DUP4 MSTORE SWAP2 PUSH1 0x20 ADD SWAP2 PUSH2 0x19A3 JUMP JUMPDEST DUP3 ADD SWAP2 SWAP1 PUSH1 0x0 MSTORE PUSH1 0x20 PUSH1 0x0 KECCAK256 SWAP1 JUMPDEST DUP2 SLOAD DUP2 MSTORE SWAP1 PUSH1 0x1 ADD SWAP1 PUSH1 0x20 ADD DUP1 DUP4 GT PUSH2 0x1986 JUMPI DUP3 SWAP1 SUB PUSH1 0x1F AND DUP3 ADD SWAP2 JUMPDEST POP POP POP POP POP SWAP1 POP DUP8 JUMP JUMPDEST PUSH1 0x1 PUSH1 0x1 PUSH1 0xA0 SHL SUB DUP2 AND PUSH1 0x0 SWAP1 DUP2 MSTORE PUSH1 0xD PUSH1 0x20 MSTORE PUSH1 0x40 SWAP1 KECCAK256 SLOAD PUSH1 0x60 SWAP1 PUSH1 0xFF AND ISZERO ISZERO PUSH1 0x1 EQ PUSH2 0x19ED JUMPI PUSH1 0x40 MLOAD PUSH3 0x461BCD PUSH1 0xE5 SHL DUP2 MSTORE PUSH1 0x4 ADD PUSH2 0x97A SWAP1 PUSH2 0x40A2 JUMP JUMPDEST PUSH1 0x1 PUSH1 0x1 PUSH1 0xA0 SHL SUB DUP3 AND PUSH1 0x0 SWAP1 DUP2 MSTORE PUSH1 0xA PUSH1 0x20 MSTORE PUSH1 0x40 SWAP1 KECCAK256 PUSH1 0x8 ADD DUP1 SLOAD PUSH2 0x1A13 SWAP1 PUSH2 0x461A JUMP JUMPDEST DUP1 PUSH1 0x1F ADD PUSH1 0x20 DUP1 SWAP2 DIV MUL PUSH1 0x20 ADD PUSH1 0x40 MLOAD SWAP1 DUP2 ADD PUSH1 0x40 MSTORE DUP1 SWAP3 SWAP2 SWAP1 DUP2 DUP2 MSTORE PUSH1 0x20 ADD DUP3 DUP1 SLOAD PUSH2 0x1A3F SWAP1 PUSH2 0x461A JUMP JUMPDEST DUP1 ISZERO PUSH2 0x1A8C JUMPI DUP1 PUSH1 0x1F LT PUSH2 0x1A61 JUMPI PUSH2 0x100 DUP1 DUP4 SLOAD DIV MUL DUP4 MSTORE SWAP2 PUSH1 0x20 ADD SWAP2 PUSH2 0x1A8C JUMP JUMPDEST DUP3 ADD SWAP2 SWAP1 PUSH1 0x0 MSTORE PUSH1 0x20 PUSH1 0x0 KECCAK256 SWAP1 JUMPDEST DUP2 SLOAD DUP2 MSTORE SWAP1 PUSH1 0x1 ADD SWAP1 PUSH1 0x20 ADD DUP1 DUP4 GT PUSH2 0x1A6F JUMPI DUP3 SWAP1 SUB PUSH1 0x1F AND DUP3 ADD SWAP2 JUMPDEST POP POP POP POP POP SWAP1 POP SWAP2 SWAP1 POP JUMP JUMPDEST PUSH2 0x1AA1 CALLER PUSH2 0x244F JUMP JUMPDEST DUP1 ISZERO PUSH2 0x1AB1 JUMPI POP PUSH2 0x1AB1 DUP3 PUSH2 0x1CAC JUMP JUMPDEST PUSH2 0x1ACD JUMPI PUSH1 0x40 MLOAD PUSH3 0x461BCD PUSH1 0xE5 SHL DUP2 MSTORE PUSH1 0x4 ADD PUSH2 0x97A SWAP1 PUSH2 0x41BA JUMP JUMPDEST CALLER PUSH1 0x0 SWAP1 DUP2 MSTORE PUSH1 0x15 PUSH1 0x20 SWAP1 DUP2 MSTORE PUSH1 0x40 DUP1 DUP4 KECCAK256 DUP6 DUP5 MSTORE SWAP1 SWAP2 MSTORE SWAP1 KECCAK256 SLOAD PUSH1 0xFF AND ISZERO PUSH2 0x1B08 JUMPI PUSH1 0x40 MLOAD PUSH3 0x461BCD PUSH1 0xE5 SHL DUP2 MSTORE PUSH1 0x4 ADD PUSH2 0x97A SWAP1 PUSH2 0x4200 JUMP JUMPDEST PUSH1 0x5 DUP1 SLOAD SWAP1 PUSH1 0x0 PUSH2 0x1B18 DUP4 PUSH2 0x4655 JUMP JUMPDEST SWAP1 SWAP2 SSTORE POP POP PUSH1 0x40 DUP1 MLOAD PUSH1 0xE0 DUP2 ADD DUP3 MSTORE PUSH1 0x5 SLOAD DUP1 DUP3 MSTORE PUSH1 0x0 DUP6 DUP2 MSTORE PUSH1 0xF PUSH1 0x20 SWAP1 DUP2 MSTORE DUP5 DUP3 KECCAK256 PUSH1 0x9 ADD SLOAD PUSH1 0x1 PUSH1 0x1 PUSH1 0xA0 SHL SUB PUSH2 0x100 SWAP1 SWAP2 DIV DUP2 AND DUP3 DUP7 ADD SWAP1 DUP2 MSTORE CALLER DUP7 DUP9 ADD SWAP1 DUP2 MSTORE PUSH1 0x60 DUP8 ADD DUP11 DUP2 MSTORE PUSH1 0x80 DUP9 ADD DUP11 DUP2 MSTORE PUSH1 0xA0 DUP10 ADD DUP8 SWAP1 MSTORE PUSH1 0xC0 DUP10 ADD DUP8 SWAP1 MSTORE SWAP7 DUP7 MSTORE PUSH1 0x10 DUP6 MSTORE SWAP8 SWAP1 SWAP5 KECCAK256 DUP7 MLOAD DUP2 SSTORE SWAP1 MLOAD PUSH1 0x1 DUP3 ADD DUP1 SLOAD SWAP2 DUP5 AND PUSH1 0x1 PUSH1 0x1 PUSH1 0xA0 SHL SUB NOT SWAP3 DUP4 AND OR SWAP1 SSTORE SWAP4 MLOAD PUSH1 0x2 DUP3 ADD DUP1 SLOAD SWAP2 SWAP1 SWAP4 AND SWAP5 AND SWAP4 SWAP1 SWAP4 OR SWAP1 SSTORE SWAP4 MLOAD PUSH1 0x3 DUP3 ADD SSTORE SWAP1 MLOAD DUP1 MLOAD SWAP3 SWAP4 SWAP2 SWAP3 PUSH2 0x1BD5 SWAP3 PUSH1 0x4 DUP6 ADD SWAP3 ADD SWAP1 PUSH2 0x395A JUMP JUMPDEST POP PUSH1 0xA0 DUP3 ADD MLOAD PUSH1 0x5 DUP3 ADD DUP1 SLOAD PUSH1 0xFF NOT AND PUSH1 0x1 DUP4 PUSH1 0x4 DUP2 GT ISZERO PUSH2 0x1C07 JUMPI PUSH4 0x4E487B71 PUSH1 0xE0 SHL PUSH1 0x0 MSTORE PUSH1 0x21 PUSH1 0x4 MSTORE PUSH1 0x24 PUSH1 0x0 REVERT JUMPDEST MUL OR SWAP1 SSTORE POP PUSH1 0xC0 SWAP2 SWAP1 SWAP2 ADD MLOAD PUSH1 0x5 SWAP2 DUP3 ADD DUP1 SLOAD PUSH2 0xFF00 NOT AND PUSH2 0x100 SWAP3 ISZERO ISZERO DUP4 MUL OR SWAP1 SSTORE CALLER PUSH1 0x0 DUP2 DUP2 MSTORE PUSH1 0x15 PUSH1 0x20 SWAP1 DUP2 MSTORE PUSH1 0x40 DUP1 DUP4 KECCAK256 SWAP8 DUP4 MSTORE SWAP7 DUP2 MSTORE DUP7 DUP3 KECCAK256 DUP1 SLOAD PUSH1 0xFF NOT AND PUSH1 0x1 SWAP1 DUP2 OR SWAP1 SWAP2 SSTORE PUSH1 0xF DUP3 MSTORE DUP8 DUP4 KECCAK256 PUSH1 0x9 ADD SLOAD PUSH1 0x1 PUSH1 0x1 PUSH1 0xA0 SHL SUB SWAP6 SWAP1 DIV SWAP5 SWAP1 SWAP5 AND DUP3 MSTORE PUSH1 0x11 DUP2 MSTORE DUP7 DUP3 KECCAK256 DUP6 SLOAD DUP2 SLOAD DUP1 DUP8 ADD DUP4 SSTORE SWAP2 DUP5 MSTORE DUP3 DUP5 KECCAK256 SWAP1 SWAP2 ADD SSTORE SWAP2 DUP2 MSTORE PUSH1 0x12 DUP3 MSTORE SWAP5 DUP6 KECCAK256 SWAP3 SLOAD DUP4 SLOAD SWAP3 DUP4 ADD DUP5 SSTORE SWAP3 DUP6 MSTORE SWAP1 SWAP4 KECCAK256 SWAP1 SWAP3 ADD SWAP2 SWAP1 SWAP2 SSTORE POP JUMP JUMPDEST PUSH1 0x0 SWAP1 DUP2 MSTORE PUSH1 0xF PUSH1 0x20 MSTORE PUSH1 0x40 SWAP1 KECCAK256 PUSH1 0x9 ADD SLOAD PUSH1 0x1 PUSH1 0xA8 SHL SWAP1 DIV PUSH1 0xFF AND SWAP1 JUMP JUMPDEST PUSH1 0x6 PUSH1 0x20 MSTORE PUSH1 0x0 SWAP1 DUP2 MSTORE PUSH1 0x40 SWAP1 KECCAK256 SLOAD PUSH1 0xFF AND DUP2 JUMP JUMPDEST PUSH1 0x0 SLOAD PUSH1 0x1 PUSH1 0x1 PUSH1 0xA0 SHL SUB AND CALLER EQ PUSH2 0x1D0A JUMPI PUSH1 0x40 MLOAD PUSH3 0x461BCD PUSH1 0xE5 SHL DUP2 MSTORE PUSH1 0x4 ADD PUSH2 0x97A SWAP1 PUSH2 0x414C JUMP JUMPDEST PUSH1 0x1 PUSH1 0x1 PUSH1 0xA0 SHL SUB DUP2 AND PUSH1 0x0 SWAP1 DUP2 MSTORE PUSH1 0x9 PUSH1 0x20 MSTORE PUSH1 0x40 SWAP1 KECCAK256 SLOAD PUSH1 0xFF AND PUSH2 0x1D42 JUMPI PUSH1 0x40 MLOAD PUSH3 0x461BCD PUSH1 0xE5 SHL DUP2 MSTORE PUSH1 0x4 ADD PUSH2 0x97A SWAP1 PUSH2 0x401A JUMP JUMPDEST PUSH1 0x1 PUSH1 0x1 PUSH1 0xA0 SHL SUB DUP2 AND PUSH1 0x0 SWAP1 DUP2 MSTORE PUSH1 0x9 PUSH1 0x20 SWAP1 DUP2 MSTORE PUSH1 0x40 DUP3 KECCAK256 DUP1 SLOAD PUSH1 0xFF NOT AND SWAP1 SSTORE PUSH1 0x1 DUP3 MSTORE PUSH1 0x8 SWAP1 MSTORE PUSH1 0x0 DUP1 MLOAD PUSH1 0x20 PUSH2 0x46F2 DUP4 CODECOPY DUP2 MLOAD SWAP2 MSTORE SLOAD SWAP1 JUMPDEST DUP2 DUP2 LT ISZERO PUSH2 0x1F16 JUMPI PUSH1 0x1 PUSH1 0x0 MSTORE PUSH1 0x8 PUSH1 0x20 MSTORE PUSH1 0x0 DUP1 MLOAD PUSH1 0x20 PUSH2 0x46F2 DUP4 CODECOPY DUP2 MLOAD SWAP2 MSTORE DUP1 SLOAD PUSH1 0x1 PUSH1 0x1 PUSH1 0xA0 SHL SUB DUP6 AND SWAP2 SWAP1 DUP4 SWAP1 DUP2 LT PUSH2 0x1DCB JUMPI PUSH4 0x4E487B71 PUSH1 0xE0 SHL PUSH1 0x0 MSTORE PUSH1 0x32 PUSH1 0x4 MSTORE PUSH1 0x24 PUSH1 0x0 REVERT JUMPDEST PUSH1 0x0 SWAP2 DUP3 MSTORE PUSH1 0x20 SWAP1 SWAP2 KECCAK256 ADD SLOAD PUSH1 0x1 PUSH1 0x1 PUSH1 0xA0 SHL SUB AND EQ ISZERO PUSH2 0x1F04 JUMPI PUSH1 0x1 PUSH1 0x0 DUP2 SWAP1 MSTORE PUSH1 0x8 PUSH1 0x20 MSTORE PUSH1 0x0 DUP1 MLOAD PUSH1 0x20 PUSH2 0x46F2 DUP4 CODECOPY DUP2 MLOAD SWAP2 MSTORE SWAP1 PUSH2 0x1E0C SWAP1 DUP5 PUSH2 0x4603 JUMP JUMPDEST DUP2 SLOAD DUP2 LT PUSH2 0x1E2A JUMPI PUSH4 0x4E487B71 PUSH1 0xE0 SHL PUSH1 0x0 MSTORE PUSH1 0x32 PUSH1 0x4 MSTORE PUSH1 0x24 PUSH1 0x0 REVERT JUMPDEST PUSH1 0x0 SWAP2 DUP3 MSTORE PUSH1 0x20 DUP1 DUP4 KECCAK256 SWAP1 SWAP2 ADD SLOAD PUSH1 0x1 SWAP1 SWAP3 MSTORE PUSH1 0x8 SWAP1 MSTORE PUSH1 0x0 DUP1 MLOAD PUSH1 0x20 PUSH2 0x46F2 DUP4 CODECOPY DUP2 MLOAD SWAP2 MSTORE DUP1 SLOAD PUSH1 0x1 PUSH1 0x1 PUSH1 0xA0 SHL SUB SWAP1 SWAP3 AND SWAP2 DUP4 SWAP1 DUP2 LT PUSH2 0x1E7C JUMPI PUSH4 0x4E487B71 PUSH1 0xE0 SHL PUSH1 0x0 MSTORE PUSH1 0x32 PUSH1 0x4 MSTORE PUSH1 0x24 PUSH1 0x0 REVERT JUMPDEST PUSH1 0x0 SWAP2 DUP3 MSTORE PUSH1 0x20 DUP1 DUP4 KECCAK256 SWAP2 SWAP1 SWAP2 ADD DUP1 SLOAD PUSH1 0x1 PUSH1 0x1 PUSH1 0xA0 SHL SUB NOT AND PUSH1 0x1 PUSH1 0x1 PUSH1 0xA0 SHL SUB SWAP5 SWAP1 SWAP5 AND SWAP4 SWAP1 SWAP4 OR SWAP1 SWAP3 SSTORE PUSH1 0x1 SWAP1 MSTORE PUSH1 0x8 SWAP1 MSTORE PUSH1 0x0 DUP1 MLOAD PUSH1 0x20 PUSH2 0x46F2 DUP4 CODECOPY DUP2 MLOAD SWAP2 MSTORE DUP1 SLOAD DUP1 PUSH2 0x1EDD JUMPI PUSH4 0x4E487B71 PUSH1 0xE0 SHL PUSH1 0x0 MSTORE PUSH1 0x31 PUSH1 0x4 MSTORE PUSH1 0x24 PUSH1 0x0 REVERT JUMPDEST PUSH1 0x0 DUP3 DUP2 MSTORE PUSH1 0x20 SWAP1 KECCAK256 DUP2 ADD PUSH1 0x0 NOT SWAP1 DUP2 ADD DUP1 SLOAD PUSH1 0x1 PUSH1 0x1 PUSH1 0xA0 SHL SUB NOT AND SWAP1 SSTORE ADD SWAP1 SSTORE PUSH2 0x1F16 JUMP JUMPDEST DUP1 PUSH2 0x1F0E DUP2 PUSH2 0x4655 JUMP JUMPDEST SWAP2 POP POP PUSH2 0x1D7E JUMP JUMPDEST POP POP POP JUMP JUMPDEST PUSH1 0x4 SLOAD DUP2 JUMP JUMPDEST PUSH1 0x15 PUSH1 0x20 SWAP1 DUP2 MSTORE PUSH1 0x0 SWAP3 DUP4 MSTORE PUSH1 0x40 DUP1 DUP5 KECCAK256 SWAP1 SWAP2 MSTORE SWAP1 DUP3 MSTORE SWAP1 KECCAK256 SLOAD PUSH1 0xFF AND DUP2 JUMP JUMPDEST PUSH1 0x0 DUP1 DUP1 JUMPDEST PUSH1 0x2 SLOAD DUP2 LT ISZERO PUSH2 0xC51 JUMPI PUSH1 0x0 PUSH1 0xB DUP2 PUSH2 0x1F60 DUP5 PUSH1 0x1 PUSH2 0x45AC JUMP JUMPDEST DUP2 MSTORE PUSH1 0x20 DUP1 DUP3 ADD SWAP3 SWAP1 SWAP3 MSTORE PUSH1 0x40 SWAP1 DUP2 ADD PUSH1 0x0 SWAP1 DUP2 KECCAK256 SLOAD PUSH1 0x1 PUSH1 0x1 PUSH1 0xA0 SHL SUB AND DUP1 DUP3 MSTORE PUSH1 0xA SWAP1 SWAP4 MSTORE KECCAK256 PUSH1 0x7 ADD SLOAD SWAP1 SWAP2 POP PUSH1 0xFF AND PUSH2 0x1FA4 JUMPI DUP3 PUSH2 0x1FA0 DUP2 PUSH2 0x4655 JUMP JUMPDEST SWAP4 POP POP JUMPDEST POP DUP1 PUSH2 0x1FAF DUP2 PUSH2 0x4655 JUMP JUMPDEST SWAP2 POP POP PUSH2 0x1F46 JUMP JUMPDEST PUSH1 0x0 DUP1 DUP1 JUMPDEST PUSH1 0x2 SLOAD DUP2 LT ISZERO PUSH2 0xC51 JUMPI PUSH1 0x0 PUSH1 0xB DUP2 PUSH2 0x1FD6 DUP5 PUSH1 0x1 PUSH2 0x45AC JUMP JUMPDEST DUP2 MSTORE PUSH1 0x20 DUP1 DUP3 ADD SWAP3 SWAP1 SWAP3 MSTORE PUSH1 0x40 SWAP1 DUP2 ADD PUSH1 0x0 SWAP1 DUP2 KECCAK256 SLOAD PUSH1 0x1 PUSH1 0x1 PUSH1 0xA0 SHL SUB AND DUP1 DUP3 MSTORE PUSH1 0xA SWAP1 SWAP4 MSTORE KECCAK256 PUSH1 0x7 ADD SLOAD SWAP1 SWAP2 POP PUSH1 0xFF AND ISZERO PUSH2 0x201B JUMPI DUP3 PUSH2 0x2017 DUP2 PUSH2 0x4655 JUMP JUMPDEST SWAP4 POP POP JUMPDEST POP DUP1 PUSH2 0x2026 DUP2 PUSH2 0x4655 JUMP JUMPDEST SWAP2 POP POP PUSH2 0x1FBC JUMP JUMPDEST PUSH1 0x1 SLOAD DUP2 JUMP JUMPDEST PUSH2 0x203D CALLER PUSH2 0x2A4D JUMP JUMPDEST PUSH2 0x2059 JUMPI PUSH1 0x40 MLOAD PUSH3 0x461BCD PUSH1 0xE5 SHL DUP2 MSTORE PUSH1 0x4 ADD PUSH2 0x97A SWAP1 PUSH2 0x42C4 JUMP JUMPDEST PUSH1 0x0 DUP2 DUP2 MSTORE PUSH1 0xF PUSH1 0x20 MSTORE PUSH1 0x40 SWAP1 KECCAK256 PUSH1 0x9 ADD SLOAD PUSH1 0x1 PUSH1 0xA8 SHL SWAP1 DIV PUSH1 0xFF AND ISZERO PUSH2 0x2092 JUMPI PUSH1 0x40 MLOAD PUSH3 0x461BCD PUSH1 0xE5 SHL DUP2 MSTORE PUSH1 0x4 ADD PUSH2 0x97A SWAP1 PUSH2 0x430A JUMP JUMPDEST PUSH1 0x40 MLOAD CALLER SWAP1 DUP3 SWAP1 PUSH32 0x7C557F0AD60BFF2708EADD0F87C51FF048F5779DD283CC4B208FAE0A6C2EEE3F SWAP1 PUSH1 0x0 SWAP1 LOG3 PUSH1 0x0 DUP2 DUP2 MSTORE PUSH1 0xF PUSH1 0x20 SWAP1 DUP2 MSTORE PUSH1 0x40 DUP1 DUP4 KECCAK256 PUSH1 0x9 ADD SLOAD PUSH2 0x100 SWAP1 DIV PUSH1 0x1 PUSH1 0x1 PUSH1 0xA0 SHL SUB AND DUP1 DUP5 MSTORE PUSH1 0xE SWAP1 SWAP3 MSTORE DUP3 KECCAK256 SWAP1 SWAP2 JUMPDEST DUP2 SLOAD DUP2 LT ISZERO PUSH2 0x21DC JUMPI DUP4 DUP3 DUP3 DUP2 SLOAD DUP2 LT PUSH2 0x2119 JUMPI PUSH4 0x4E487B71 PUSH1 0xE0 SHL PUSH1 0x0 MSTORE PUSH1 0x32 PUSH1 0x4 MSTORE PUSH1 0x24 PUSH1 0x0 REVERT JUMPDEST SWAP1 PUSH1 0x0 MSTORE PUSH1 0x20 PUSH1 0x0 KECCAK256 ADD SLOAD EQ ISZERO PUSH2 0x21CA JUMPI DUP2 SLOAD DUP3 SWAP1 PUSH2 0x213A SWAP1 PUSH1 0x1 SWAP1 PUSH2 0x4603 JUMP JUMPDEST DUP2 SLOAD DUP2 LT PUSH2 0x2158 JUMPI PUSH4 0x4E487B71 PUSH1 0xE0 SHL PUSH1 0x0 MSTORE PUSH1 0x32 PUSH1 0x4 MSTORE PUSH1 0x24 PUSH1 0x0 REVERT JUMPDEST SWAP1 PUSH1 0x0 MSTORE PUSH1 0x20 PUSH1 0x0 KECCAK256 ADD SLOAD DUP3 DUP3 DUP2 SLOAD DUP2 LT PUSH2 0x2183 JUMPI PUSH4 0x4E487B71 PUSH1 0xE0 SHL PUSH1 0x0 MSTORE PUSH1 0x32 PUSH1 0x4 MSTORE PUSH1 0x24 PUSH1 0x0 REVERT JUMPDEST SWAP1 PUSH1 0x0 MSTORE PUSH1 0x20 PUSH1 0x0 KECCAK256 ADD DUP2 SWAP1 SSTORE POP DUP2 DUP1 SLOAD DUP1 PUSH2 0x21AF JUMPI PUSH4 0x4E487B71 PUSH1 0xE0 SHL PUSH1 0x0 MSTORE PUSH1 0x31 PUSH1 0x4 MSTORE PUSH1 0x24 PUSH1 0x0 REVERT JUMPDEST PUSH1 0x1 SWAP1 SUB DUP2 DUP2 SWAP1 PUSH1 0x0 MSTORE PUSH1 0x20 PUSH1 0x0 KECCAK256 ADD PUSH1 0x0 SWAP1 SSTORE SWAP1 SSTORE PUSH2 0x21DC JUMP JUMPDEST DUP1 PUSH2 0x21D4 DUP2 PUSH2 0x4655 JUMP JUMPDEST SWAP2 POP POP PUSH2 0x20EF JUMP JUMPDEST POP PUSH1 0x1 PUSH1 0x0 SWAP1 DUP2 MSTORE PUSH1 0x13 PUSH1 0x20 MSTORE PUSH1 0x0 DUP1 MLOAD PUSH1 0x20 PUSH2 0x46D2 DUP4 CODECOPY DUP2 MLOAD SWAP2 MSTORE SWAP1 JUMPDEST DUP2 SLOAD DUP2 LT ISZERO PUSH2 0x22E7 JUMPI DUP5 DUP3 DUP3 DUP2 SLOAD DUP2 LT PUSH2 0x2224 JUMPI PUSH4 0x4E487B71 PUSH1 0xE0 SHL PUSH1 0x0 MSTORE PUSH1 0x32 PUSH1 0x4 MSTORE PUSH1 0x24 PUSH1 0x0 REVERT JUMPDEST SWAP1 PUSH1 0x0 MSTORE PUSH1 0x20 PUSH1 0x0 KECCAK256 ADD SLOAD EQ ISZERO PUSH2 0x22D5 JUMPI DUP2 SLOAD DUP3 SWAP1 PUSH2 0x2245 SWAP1 PUSH1 0x1 SWAP1 PUSH2 0x4603 JUMP JUMPDEST DUP2 SLOAD DUP2 LT PUSH2 0x2263 JUMPI PUSH4 0x4E487B71 PUSH1 0xE0 SHL PUSH1 0x0 MSTORE PUSH1 0x32 PUSH1 0x4 MSTORE PUSH1 0x24 PUSH1 0x0 REVERT JUMPDEST SWAP1 PUSH1 0x0 MSTORE PUSH1 0x20 PUSH1 0x0 KECCAK256 ADD SLOAD DUP3 DUP3 DUP2 SLOAD DUP2 LT PUSH2 0x228E JUMPI PUSH4 0x4E487B71 PUSH1 0xE0 SHL PUSH1 0x0 MSTORE PUSH1 0x32 PUSH1 0x4 MSTORE PUSH1 0x24 PUSH1 0x0 REVERT JUMPDEST SWAP1 PUSH1 0x0 MSTORE PUSH1 0x20 PUSH1 0x0 KECCAK256 ADD DUP2 SWAP1 SSTORE POP DUP2 DUP1 SLOAD DUP1 PUSH2 0x22BA JUMPI PUSH4 0x4E487B71 PUSH1 0xE0 SHL PUSH1 0x0 MSTORE PUSH1 0x31 PUSH1 0x4 MSTORE PUSH1 0x24 PUSH1 0x0 REVERT JUMPDEST PUSH1 0x1 SWAP1 SUB DUP2 DUP2 SWAP1 PUSH1 0x0 MSTORE PUSH1 0x20 PUSH1 0x0 KECCAK256 ADD PUSH1 0x0 SWAP1 SSTORE SWAP1 SSTORE PUSH2 0x22E7 JUMP JUMPDEST DUP1 PUSH2 0x22DF DUP2 PUSH2 0x4655 JUMP JUMPDEST SWAP2 POP POP PUSH2 0x21FA JUMP JUMPDEST POP PUSH1 0x0 DUP5 DUP2 MSTORE PUSH1 0xF PUSH1 0x20 MSTORE PUSH1 0x40 DUP2 KECCAK256 DUP2 DUP2 SSTORE PUSH1 0x1 DUP2 ADD DUP3 SWAP1 SSTORE SWAP1 PUSH2 0x230E PUSH1 0x2 DUP4 ADD DUP3 PUSH2 0x39DE JUMP JUMPDEST PUSH1 0x3 DUP3 ADD PUSH1 0x0 SWAP1 SSTORE PUSH1 0x4 DUP3 ADD PUSH1 0x0 PUSH2 0x2326 SWAP2 SWAP1 PUSH2 0x39DE JUMP JUMPDEST PUSH1 0x5 DUP3 ADD PUSH1 0x0 SWAP1 SSTORE PUSH1 0x6 DUP3 ADD PUSH1 0x0 PUSH2 0x233E SWAP2 SWAP1 PUSH2 0x39DE JUMP JUMPDEST PUSH2 0x234C PUSH1 0x7 DUP4 ADD PUSH1 0x0 PUSH2 0x39DE JUMP JUMPDEST PUSH2 0x235A PUSH1 0x8 DUP4 ADD PUSH1 0x0 PUSH2 0x39DE JUMP JUMPDEST POP PUSH1 0x9 ADD DUP1 SLOAD PUSH1 0x1 PUSH1 0x1 PUSH1 0xB0 SHL SUB NOT AND SWAP1 SSTORE POP POP POP POP JUMP JUMPDEST CALLER PUSH1 0x0 SWAP1 DUP2 MSTORE PUSH1 0x12 PUSH1 0x20 SWAP1 DUP2 MSTORE PUSH1 0x40 SWAP2 DUP3 SWAP1 KECCAK256 DUP1 SLOAD DUP4 MLOAD DUP2 DUP5 MUL DUP2 ADD DUP5 ADD SWAP1 SWAP5 MSTORE DUP1 DUP5 MSTORE PUSH1 0x60 SWAP4 SWAP3 DUP4 ADD DUP3 DUP3 DUP1 ISZERO PUSH2 0xBF8 JUMPI PUSH1 0x20 MUL DUP3 ADD SWAP2 SWAP1 PUSH1 0x0 MSTORE PUSH1 0x20 PUSH1 0x0 KECCAK256 SWAP1 DUP2 SLOAD DUP2 MSTORE PUSH1 0x20 ADD SWAP1 PUSH1 0x1 ADD SWAP1 DUP1 DUP4 GT PUSH2 0xBE4 JUMPI POP POP POP POP POP SWAP1 POP SWAP1 JUMP JUMPDEST PUSH1 0x1 PUSH1 0x0 MSTORE PUSH1 0x14 PUSH1 0x20 SWAP1 DUP2 MSTORE PUSH32 0xB6C61A840592CC84133E4B25BD509ABF4659307C57B160799B38490A5AA48F2C DUP1 SLOAD PUSH1 0x40 DUP1 MLOAD DUP3 DUP6 MUL DUP2 ADD DUP6 ADD SWAP1 SWAP2 MSTORE DUP2 DUP2 MSTORE PUSH1 0x60 SWAP4 SWAP1 SWAP3 SWAP2 SWAP1 DUP4 ADD DUP3 DUP3 DUP1 ISZERO PUSH2 0xBF8 JUMPI PUSH1 0x20 MUL DUP3 ADD SWAP2 SWAP1 PUSH1 0x0 MSTORE PUSH1 0x20 PUSH1 0x0 KECCAK256 SWAP1 DUP2 SLOAD DUP2 MSTORE PUSH1 0x20 ADD SWAP1 PUSH1 0x1 ADD SWAP1 DUP1 DUP4 GT PUSH2 0xBE4 JUMPI POP POP POP POP POP SWAP1 POP SWAP1 JUMP JUMPDEST PUSH1 0x1 PUSH1 0x1 PUSH1 0xA0 SHL SUB AND PUSH1 0x0 SWAP1 DUP2 MSTORE PUSH1 0xA PUSH1 0x20 MSTORE PUSH1 0x40 SWAP1 KECCAK256 PUSH1 0x7 ADD SLOAD PUSH1 0xFF AND SWAP1 JUMP JUMPDEST PUSH1 0x10 PUSH1 0x20 MSTORE PUSH1 0x0 SWAP1 DUP2 MSTORE PUSH1 0x40 SWAP1 KECCAK256 DUP1 SLOAD PUSH1 0x1 DUP3 ADD SLOAD PUSH1 0x2 DUP4 ADD SLOAD PUSH1 0x3 DUP5 ADD SLOAD PUSH1 0x4 DUP6 ADD DUP1 SLOAD SWAP5 SWAP6 PUSH1 0x1 PUSH1 0x1 PUSH1 0xA0 SHL SUB SWAP5 DUP6 AND SWAP6 SWAP4 SWAP1 SWAP5 AND SWAP4 SWAP2 SWAP3 PUSH2 0x24B3 SWAP1 PUSH2 0x461A JUMP JUMPDEST DUP1 PUSH1 0x1F ADD PUSH1 0x20 DUP1 SWAP2 DIV MUL PUSH1 0x20 ADD PUSH1 0x40 MLOAD SWAP1 DUP2 ADD PUSH1 0x40 MSTORE DUP1 SWAP3 SWAP2 SWAP1 DUP2 DUP2 MSTORE PUSH1 0x20 ADD DUP3 DUP1 SLOAD PUSH2 0x24DF SWAP1 PUSH2 0x461A JUMP JUMPDEST DUP1 ISZERO PUSH2 0x252C JUMPI DUP1 PUSH1 0x1F LT PUSH2 0x2501 JUMPI PUSH2 0x100 DUP1 DUP4 SLOAD DIV MUL DUP4 MSTORE SWAP2 PUSH1 0x20 ADD SWAP2 PUSH2 0x252C JUMP JUMPDEST DUP3 ADD SWAP2 SWAP1 PUSH1 0x0 MSTORE PUSH1 0x20 PUSH1 0x0 KECCAK256 SWAP1 JUMPDEST DUP2 SLOAD DUP2 MSTORE SWAP1 PUSH1 0x1 ADD SWAP1 PUSH1 0x20 ADD DUP1 DUP4 GT PUSH2 0x250F JUMPI DUP3 SWAP1 SUB PUSH1 0x1F AND DUP3 ADD SWAP2 JUMPDEST POP POP POP PUSH1 0x5 SWAP1 SWAP4 ADD SLOAD SWAP2 SWAP3 POP POP PUSH1 0xFF DUP1 DUP3 AND SWAP2 PUSH2 0x100 SWAP1 DIV AND DUP8 JUMP JUMPDEST PUSH1 0x0 DUP2 DUP2 MSTORE PUSH1 0xF PUSH1 0x20 MSTORE PUSH1 0x40 SWAP1 KECCAK256 PUSH1 0x9 ADD SLOAD PUSH2 0x100 SWAP1 DIV PUSH1 0x1 PUSH1 0x1 PUSH1 0xA0 SHL SUB AND CALLER EQ PUSH2 0x2573 JUMPI PUSH1 0x0 DUP1 REVERT JUMPDEST PUSH1 0x0 SWAP1 DUP2 MSTORE PUSH1 0xF PUSH1 0x20 MSTORE PUSH1 0x40 SWAP1 KECCAK256 PUSH1 0x9 ADD DUP1 SLOAD PUSH1 0xFF NOT AND PUSH1 0x1 OR SWAP1 SSTORE JUMP JUMPDEST PUSH1 0x1 PUSH1 0x1 PUSH1 0xA0 SHL SUB DUP2 AND PUSH1 0x0 SWAP1 DUP2 MSTORE PUSH1 0xE PUSH1 0x20 SWAP1 DUP2 MSTORE PUSH1 0x40 SWAP2 DUP3 SWAP1 KECCAK256 DUP1 SLOAD DUP4 MLOAD DUP2 DUP5 MUL DUP2 ADD DUP5 ADD SWAP1 SWAP5 MSTORE DUP1 DUP5 MSTORE PUSH1 0x60 SWAP4 SWAP3 DUP4 ADD DUP3 DUP3 DUP1 ISZERO PUSH2 0x1A8C JUMPI PUSH1 0x20 MUL DUP3 ADD SWAP2 SWAP1 PUSH1 0x0 MSTORE PUSH1 0x20 PUSH1 0x0 KECCAK256 SWAP1 JUMPDEST DUP2 SLOAD DUP2 MSTORE PUSH1 0x20 ADD SWAP1 PUSH1 0x1 ADD SWAP1 DUP1 DUP4 GT PUSH2 0x25DD JUMPI POP POP POP POP POP SWAP1 POP SWAP2 SWAP1 POP JUMP JUMPDEST PUSH1 0x1 PUSH1 0x0 MSTORE PUSH1 0x8 PUSH1 0x20 SWAP1 DUP2 MSTORE PUSH1 0x0 DUP1 MLOAD PUSH1 0x20 PUSH2 0x46F2 DUP4 CODECOPY DUP2 MLOAD SWAP2 MSTORE DUP1 SLOAD PUSH1 0x40 DUP1 MLOAD DUP3 DUP6 MUL DUP2 ADD DUP6 ADD SWAP1 SWAP2 MSTORE DUP2 DUP2 MSTORE PUSH1 0x60 SWAP4 SWAP1 SWAP3 SWAP2 SWAP1 DUP4 ADD DUP3 DUP3 DUP1 ISZERO PUSH2 0xBF8 JUMPI PUSH1 0x20 MUL DUP3 ADD SWAP2 SWAP1 PUSH1 0x0 MSTORE PUSH1 0x20 PUSH1 0x0 KECCAK256 SWAP1 DUP2 SLOAD PUSH1 0x1 PUSH1 0x1 PUSH1 0xA0 SHL SUB AND DUP2 MSTORE PUSH1 0x1 SWAP1 SWAP2 ADD SWAP1 PUSH1 0x20 ADD DUP1 DUP4 GT PUSH2 0x15E5 JUMPI POP POP POP POP POP SWAP1 POP SWAP1 JUMP JUMPDEST PUSH1 0xA PUSH1 0x20 MSTORE PUSH1 0x0 SWAP1 DUP2 MSTORE PUSH1 0x40 SWAP1 KECCAK256 DUP1 SLOAD PUSH1 0x1 DUP3 ADD DUP1 SLOAD PUSH1 0x1 PUSH1 0x1 PUSH1 0xA0 SHL SUB SWAP1 SWAP3 AND SWAP3 SWAP2 PUSH2 0x269E SWAP1 PUSH2 0x461A JUMP JUMPDEST DUP1 PUSH1 0x1F ADD PUSH1 0x20 DUP1 SWAP2 DIV MUL PUSH1 0x20 ADD PUSH1 0x40 MLOAD SWAP1 DUP2 ADD PUSH1 0x40 MSTORE DUP1 SWAP3 SWAP2 SWAP1 DUP2 DUP2 MSTORE PUSH1 0x20 ADD DUP3 DUP1 SLOAD PUSH2 0x26CA SWAP1 PUSH2 0x461A JUMP JUMPDEST DUP1 ISZERO PUSH2 0x2717 JUMPI DUP1 PUSH1 0x1F LT PUSH2 0x26EC JUMPI PUSH2 0x100 DUP1 DUP4 SLOAD DIV MUL DUP4 MSTORE SWAP2 PUSH1 0x20 ADD SWAP2 PUSH2 0x2717 JUMP JUMPDEST DUP3 ADD SWAP2 SWAP1 PUSH1 0x0 MSTORE PUSH1 0x20 PUSH1 0x0 KECCAK256 SWAP1 JUMPDEST DUP2 SLOAD DUP2 MSTORE SWAP1 PUSH1 0x1 ADD SWAP1 PUSH1 0x20 ADD DUP1 DUP4 GT PUSH2 0x26FA JUMPI DUP3 SWAP1 SUB PUSH1 0x1F AND DUP3 ADD SWAP2 JUMPDEST POP POP POP POP POP SWAP1 DUP1 PUSH1 0x2 ADD SLOAD SWAP1 DUP1 PUSH1 0x3 ADD DUP1 SLOAD PUSH2 0x2732 SWAP1 PUSH2 0x461A JUMP JUMPDEST DUP1 PUSH1 0x1F ADD PUSH1 0x20 DUP1 SWAP2 DIV MUL PUSH1 0x20 ADD PUSH1 0x40 MLOAD SWAP1 DUP2 ADD PUSH1 0x40 MSTORE DUP1 SWAP3 SWAP2 SWAP1 DUP2 DUP2 MSTORE PUSH1 0x20 ADD DUP3 DUP1 SLOAD PUSH2 0x275E SWAP1 PUSH2 0x461A JUMP JUMPDEST DUP1 ISZERO PUSH2 0x27AB JUMPI DUP1 PUSH1 0x1F LT PUSH2 0x2780 JUMPI PUSH2 0x100 DUP1 DUP4 SLOAD DIV MUL DUP4 MSTORE SWAP2 PUSH1 0x20 ADD SWAP2 PUSH2 0x27AB JUMP JUMPDEST DUP3 ADD SWAP2 SWAP1 PUSH1 0x0 MSTORE PUSH1 0x20 PUSH1 0x0 KECCAK256 SWAP1 JUMPDEST DUP2 SLOAD DUP2 MSTORE SWAP1 PUSH1 0x1 ADD SWAP1 PUSH1 0x20 ADD DUP1 DUP4 GT PUSH2 0x278E JUMPI DUP3 SWAP1 SUB PUSH1 0x1F AND DUP3 ADD SWAP2 JUMPDEST POP POP POP POP POP SWAP1 DUP1 PUSH1 0x4 ADD DUP1 SLOAD PUSH2 0x27C0 SWAP1 PUSH2 0x461A JUMP JUMPDEST DUP1 PUSH1 0x1F ADD PUSH1 0x20 DUP1 SWAP2 DIV MUL PUSH1 0x20 ADD PUSH1 0x40 MLOAD SWAP1 DUP2 ADD PUSH1 0x40 MSTORE DUP1 SWAP3 SWAP2 SWAP1 DUP2 DUP2 MSTORE PUSH1 0x20 ADD DUP3 DUP1 SLOAD PUSH2 0x27EC SWAP1 PUSH2 0x461A JUMP JUMPDEST DUP1 ISZERO PUSH2 0x2839 JUMPI DUP1 PUSH1 0x1F LT PUSH2 0x280E JUMPI PUSH2 0x100 DUP1 DUP4 SLOAD DIV MUL DUP4 MSTORE SWAP2 PUSH1 0x20 ADD SWAP2 PUSH2 0x2839 JUMP JUMPDEST DUP3 ADD SWAP2 SWAP1 PUSH1 0x0 MSTORE PUSH1 0x20 PUSH1 0x0 KECCAK256 SWAP1 JUMPDEST DUP2 SLOAD DUP2 MSTORE SWAP1 PUSH1 0x1 ADD SWAP1 PUSH1 0x20 ADD DUP1 DUP4 GT PUSH2 0x281C JUMPI DUP3 SWAP1 SUB PUSH1 0x1F AND DUP3 ADD SWAP2 JUMPDEST POP POP POP POP POP SWAP1 DUP1 PUSH1 0x5 ADD DUP1 SLOAD PUSH2 0x284E SWAP1 PUSH2 0x461A JUMP JUMPDEST DUP1 PUSH1 0x1F ADD PUSH1 0x20 DUP1 SWAP2 DIV MUL PUSH1 0x20 ADD PUSH1 0x40 MLOAD SWAP1 DUP2 ADD PUSH1 0x40 MSTORE DUP1 SWAP3 SWAP2 SWAP1 DUP2 DUP2 MSTORE PUSH1 0x20 ADD DUP3 DUP1 SLOAD PUSH2 0x287A SWAP1 PUSH2 0x461A JUMP JUMPDEST DUP1 ISZERO PUSH2 0x28C7 JUMPI DUP1 PUSH1 0x1F LT PUSH2 0x289C JUMPI PUSH2 0x100 DUP1 DUP4 SLOAD DIV MUL DUP4 MSTORE SWAP2 PUSH1 0x20 ADD SWAP2 PUSH2 0x28C7 JUMP JUMPDEST DUP3 ADD SWAP2 SWAP1 PUSH1 0x0 MSTORE PUSH1 0x20 PUSH1 0x0 KECCAK256 SWAP1 JUMPDEST DUP2 SLOAD DUP2 MSTORE SWAP1 PUSH1 0x1 ADD SWAP1 PUSH1 0x20 ADD DUP1 DUP4 GT PUSH2 0x28AA JUMPI DUP3 SWAP1 SUB PUSH1 0x1F AND DUP3 ADD SWAP2 JUMPDEST POP POP POP POP POP SWAP1 DUP1 PUSH1 0x6 ADD DUP1 SLOAD PUSH2 0x28DC SWAP1 PUSH2 0x461A JUMP JUMPDEST DUP1 PUSH1 0x1F ADD PUSH1 0x20 DUP1 SWAP2 DIV MUL PUSH1 0x20 ADD PUSH1 0x40 MLOAD SWAP1 DUP2 ADD PUSH1 0x40 MSTORE DUP1 SWAP3 SWAP2 SWAP1 DUP2 DUP2 MSTORE PUSH1 0x20 ADD DUP3 DUP1 SLOAD PUSH2 0x2908 SWAP1 PUSH2 0x461A JUMP JUMPDEST DUP1 ISZERO PUSH2 0x2955 JUMPI DUP1 PUSH1 0x1F LT PUSH2 0x292A JUMPI PUSH2 0x100 DUP1 DUP4 SLOAD DIV MUL DUP4 MSTORE SWAP2 PUSH1 0x20 ADD SWAP2 PUSH2 0x2955 JUMP JUMPDEST DUP3 ADD SWAP2 SWAP1 PUSH1 0x0 MSTORE PUSH1 0x20 PUSH1 0x0 KECCAK256 SWAP1 JUMPDEST DUP2 SLOAD DUP2 MSTORE SWAP1 PUSH1 0x1 ADD SWAP1 PUSH1 0x20 ADD DUP1 DUP4 GT PUSH2 0x2938 JUMPI DUP3 SWAP1 SUB PUSH1 0x1F AND DUP3 ADD SWAP2 JUMPDEST POP POP POP PUSH1 0x7 DUP5 ADD SLOAD PUSH1 0x8 DUP6 ADD DUP1 SLOAD SWAP5 SWAP6 PUSH1 0xFF SWAP1 SWAP3 AND SWAP5 SWAP2 SWAP4 POP SWAP2 POP PUSH2 0x2979 SWAP1 PUSH2 0x461A JUMP JUMPDEST DUP1 PUSH1 0x1F ADD PUSH1 0x20 DUP1 SWAP2 DIV MUL PUSH1 0x20 ADD PUSH1 0x40 MLOAD SWAP1 DUP2 ADD PUSH1 0x40 MSTORE DUP1 SWAP3 SWAP2 SWAP1 DUP2 DUP2 MSTORE PUSH1 0x20 ADD DUP3 DUP1 SLOAD PUSH2 0x29A5 SWAP1 PUSH2 0x461A JUMP JUMPDEST DUP1 ISZERO PUSH2 0x29F2 JUMPI DUP1 PUSH1 0x1F LT PUSH2 0x29C7 JUMPI PUSH2 0x100 DUP1 DUP4 SLOAD DIV MUL DUP4 MSTORE SWAP2 PUSH1 0x20 ADD SWAP2 PUSH2 0x29F2 JUMP JUMPDEST DUP3 ADD SWAP2 SWAP1 PUSH1 0x0 MSTORE PUSH1 0x20 PUSH1 0x0 KECCAK256 SWAP1 JUMPDEST DUP2 SLOAD DUP2 MSTORE SWAP1 PUSH1 0x1 ADD SWAP1 PUSH1 0x20 ADD DUP1 DUP4 GT PUSH2 0x29D5 JUMPI DUP3 SWAP1 SUB PUSH1 0x1F AND DUP3 ADD SWAP2 JUMPDEST POP POP POP POP POP SWAP1 POP DUP10 JUMP JUMPDEST PUSH1 0x0 SWAP1 DUP2 MSTORE PUSH1 0xF PUSH1 0x20 MSTORE PUSH1 0x40 SWAP1 KECCAK256 PUSH1 0x3 ADD SLOAD SWAP1 JUMP JUMPDEST PUSH1 0x0 SWAP1 DUP2 MSTORE PUSH1 0x10 PUSH1 0x20 MSTORE PUSH1 0x40 SWAP1 KECCAK256 PUSH1 0x5 ADD SLOAD PUSH2 0x100 SWAP1 DIV PUSH1 0xFF AND SWAP1 JUMP JUMPDEST PUSH1 0x0 DUP1 SLOAD PUSH1 0x1 PUSH1 0x1 PUSH1 0xA0 SHL SUB DUP4 DUP2 AND SWAP2 AND EQ ISZERO PUSH2 0x9E2 JUMPI POP PUSH1 0x1 PUSH2 0x9E6 JUMP JUMPDEST PUSH1 0x1 PUSH1 0x1 PUSH1 0xA0 SHL SUB DUP2 AND PUSH1 0x0 SWAP1 DUP2 MSTORE PUSH1 0x9 PUSH1 0x20 MSTORE PUSH1 0x40 DUP2 KECCAK256 SLOAD PUSH1 0xFF AND ISZERO PUSH2 0x9E2 JUMPI POP PUSH1 0x1 PUSH2 0x9E6 JUMP JUMPDEST PUSH1 0xF PUSH1 0x20 MSTORE PUSH1 0x0 SWAP1 DUP2 MSTORE PUSH1 0x40 SWAP1 KECCAK256 DUP1 SLOAD PUSH1 0x1 DUP3 ADD SLOAD PUSH1 0x2 DUP4 ADD DUP1 SLOAD SWAP3 SWAP4 SWAP2 SWAP3 PUSH2 0x2A9E SWAP1 PUSH2 0x461A JUMP JUMPDEST DUP1 PUSH1 0x1F ADD PUSH1 0x20 DUP1 SWAP2 DIV MUL PUSH1 0x20 ADD PUSH1 0x40 MLOAD SWAP1 DUP2 ADD PUSH1 0x40 MSTORE DUP1 SWAP3 SWAP2 SWAP1 DUP2 DUP2 MSTORE PUSH1 0x20 ADD DUP3 DUP1 SLOAD PUSH2 0x2ACA SWAP1 PUSH2 0x461A JUMP JUMPDEST DUP1 ISZERO PUSH2 0x2B17 JUMPI DUP1 PUSH1 0x1F LT PUSH2 0x2AEC JUMPI PUSH2 0x100 DUP1 DUP4 SLOAD DIV MUL DUP4 MSTORE SWAP2 PUSH1 0x20 ADD SWAP2 PUSH2 0x2B17 JUMP JUMPDEST DUP3 ADD SWAP2 SWAP1 PUSH1 0x0 MSTORE PUSH1 0x20 PUSH1 0x0 KECCAK256 SWAP1 JUMPDEST DUP2 SLOAD DUP2 MSTORE SWAP1 PUSH1 0x1 ADD SWAP1 PUSH1 0x20 ADD DUP1 DUP4 GT PUSH2 0x2AFA JUMPI DUP3 SWAP1 SUB PUSH1 0x1F AND DUP3 ADD SWAP2 JUMPDEST POP POP POP POP POP SWAP1 DUP1 PUSH1 0x3 ADD SLOAD SWAP1 DUP1 PUSH1 0x4 ADD DUP1 SLOAD PUSH2 0x2B32 SWAP1 PUSH2 0x461A JUMP JUMPDEST DUP1 PUSH1 0x1F ADD PUSH1 0x20 DUP1 SWAP2 DIV MUL PUSH1 0x20 ADD PUSH1 0x40 MLOAD SWAP1 DUP2 ADD PUSH1 0x40 MSTORE DUP1 SWAP3 SWAP2 SWAP1 DUP2 DUP2 MSTORE PUSH1 0x20 ADD DUP3 DUP1 SLOAD PUSH2 0x2B5E SWAP1 PUSH2 0x461A JUMP JUMPDEST DUP1 ISZERO PUSH2 0x2BAB JUMPI DUP1 PUSH1 0x1F LT PUSH2 0x2B80 JUMPI PUSH2 0x100 DUP1 DUP4 SLOAD DIV MUL DUP4 MSTORE SWAP2 PUSH1 0x20 ADD SWAP2 PUSH2 0x2BAB JUMP JUMPDEST DUP3 ADD SWAP2 SWAP1 PUSH1 0x0 MSTORE PUSH1 0x20 PUSH1 0x0 KECCAK256 SWAP1 JUMPDEST DUP2 SLOAD DUP2 MSTORE SWAP1 PUSH1 0x1 ADD SWAP1 PUSH1 0x20 ADD DUP1 DUP4 GT PUSH2 0x2B8E JUMPI DUP3 SWAP1 SUB PUSH1 0x1F AND DUP3 ADD SWAP2 JUMPDEST POP POP POP POP POP SWAP1 DUP1 PUSH1 0x5 ADD SLOAD SWAP1 DUP1 PUSH1 0x6 ADD DUP1 SLOAD PUSH2 0x2BC6 SWAP1 PUSH2 0x461A JUMP JUMPDEST DUP1 PUSH1 0x1F ADD PUSH1 0x20 DUP1 SWAP2 DIV MUL PUSH1 0x20 ADD PUSH1 0x40 MLOAD SWAP1 DUP2 ADD PUSH1 0x40 MSTORE DUP1 SWAP3 SWAP2 SWAP1 DUP2 DUP2 MSTORE PUSH1 0x20 ADD DUP3 DUP1 SLOAD PUSH2 0x2BF2 SWAP1 PUSH2 0x461A JUMP JUMPDEST DUP1 ISZERO PUSH2 0x2C3F JUMPI DUP1 PUSH1 0x1F LT PUSH2 0x2C14 JUMPI PUSH2 0x100 DUP1 DUP4 SLOAD DIV MUL DUP4 MSTORE SWAP2 PUSH1 0x20 ADD SWAP2 PUSH2 0x2C3F JUMP JUMPDEST DUP3 ADD SWAP2 SWAP1 PUSH1 0x0 MSTORE PUSH1 0x20 PUSH1 0x0 KECCAK256 SWAP1 JUMPDEST DUP2 SLOAD DUP2 MSTORE SWAP1 PUSH1 0x1 ADD SWAP1 PUSH1 0x20 ADD DUP1 DUP4 GT PUSH2 0x2C22 JUMPI DUP3 SWAP1 SUB PUSH1 0x1F AND DUP3 ADD SWAP2 JUMPDEST POP POP POP POP POP SWAP1 DUP1 PUSH1 0x7 ADD DUP1 SLOAD PUSH2 0x2C54 SWAP1 PUSH2 0x461A JUMP JUMPDEST DUP1 PUSH1 0x1F ADD PUSH1 0x20 DUP1 SWAP2 DIV MUL PUSH1 0x20 ADD PUSH1 0x40 MLOAD SWAP1 DUP2 ADD PUSH1 0x40 MSTORE DUP1 SWAP3 SWAP2 SWAP1 DUP2 DUP2 MSTORE PUSH1 0x20 ADD DUP3 DUP1 SLOAD PUSH2 0x2C80 SWAP1 PUSH2 0x461A JUMP JUMPDEST DUP1 ISZERO PUSH2 0x2CCD JUMPI DUP1 PUSH1 0x1F LT PUSH2 0x2CA2 JUMPI PUSH2 0x100 DUP1 DUP4 SLOAD DIV MUL DUP4 MSTORE SWAP2 PUSH1 0x20 ADD SWAP2 PUSH2 0x2CCD JUMP JUMPDEST DUP3 ADD SWAP2 SWAP1 PUSH1 0x0 MSTORE PUSH1 0x20 PUSH1 0x0 KECCAK256 SWAP1 JUMPDEST DUP2 SLOAD DUP2 MSTORE SWAP1 PUSH1 0x1 ADD SWAP1 PUSH1 0x20 ADD DUP1 DUP4 GT PUSH2 0x2CB0 JUMPI DUP3 SWAP1 SUB PUSH1 0x1F AND DUP3 ADD SWAP2 JUMPDEST POP POP POP POP POP SWAP1 DUP1 PUSH1 0x8 ADD DUP1 SLOAD PUSH2 0x2CE2 SWAP1 PUSH2 0x461A JUMP JUMPDEST DUP1 PUSH1 0x1F ADD PUSH1 0x20 DUP1 SWAP2 DIV MUL PUSH1 0x20 ADD PUSH1 0x40 MLOAD SWAP1 DUP2 ADD PUSH1 0x40 MSTORE DUP1 SWAP3 SWAP2 SWAP1 DUP2 DUP2 MSTORE PUSH1 0x20 ADD DUP3 DUP1 SLOAD PUSH2 0x2D0E SWAP1 PUSH2 0x461A JUMP JUMPDEST DUP1 ISZERO PUSH2 0x2D5B JUMPI DUP1 PUSH1 0x1F LT PUSH2 0x2D30 JUMPI PUSH2 0x100 DUP1 DUP4 SLOAD DIV MUL DUP4 MSTORE SWAP2 PUSH1 0x20 ADD SWAP2 PUSH2 0x2D5B JUMP JUMPDEST DUP3 ADD SWAP2 SWAP1 PUSH1 0x0 MSTORE PUSH1 0x20 PUSH1 0x0 KECCAK256 SWAP1 JUMPDEST DUP2 SLOAD DUP2 MSTORE SWAP1 PUSH1 0x1 ADD SWAP1 PUSH1 0x20 ADD DUP1 DUP4 GT PUSH2 0x2D3E JUMPI DUP3 SWAP1 SUB PUSH1 0x1F AND DUP3 ADD SWAP2 JUMPDEST POP POP POP PUSH1 0x9 SWAP1 SWAP4 ADD SLOAD SWAP2 SWAP3 POP POP PUSH1 0xFF DUP1 DUP3 AND SWAP2 PUSH1 0x1 PUSH1 0x1 PUSH1 0xA0 SHL SUB PUSH2 0x100 DUP3 DIV AND SWAP2 PUSH1 0x1 PUSH1 0xA8 SHL SWAP1 SWAP2 DIV AND DUP13 JUMP JUMPDEST PUSH1 0x0 DUP2 DUP2 MSTORE PUSH1 0xF PUSH1 0x20 MSTORE PUSH1 0x40 SWAP1 KECCAK256 PUSH1 0x9 ADD SLOAD PUSH2 0x100 SWAP1 DIV PUSH1 0x1 PUSH1 0x1 PUSH1 0xA0 SHL SUB AND CALLER EQ PUSH2 0x2DC7 JUMPI PUSH1 0x40 MLOAD PUSH3 0x461BCD PUSH1 0xE5 SHL DUP2 MSTORE PUSH1 0x4 ADD PUSH2 0x97A SWAP1 PUSH2 0x427D JUMP JUMPDEST PUSH1 0x0 DUP2 DUP2 MSTORE PUSH1 0xF PUSH1 0x20 MSTORE PUSH1 0x40 SWAP1 KECCAK256 PUSH1 0x9 ADD SLOAD PUSH1 0xFF AND ISZERO ISZERO PUSH1 0x1 EQ PUSH2 0x2DFD JUMPI PUSH1 0x40 MLOAD PUSH3 0x461BCD PUSH1 0xE5 SHL DUP2 MSTORE PUSH1 0x4 ADD PUSH2 0x97A SWAP1 PUSH2 0x4183 JUMP JUMPDEST PUSH1 0x0 DUP1 JUMPDEST CALLER PUSH1 0x0 SWAP1 DUP2 MSTORE PUSH1 0x11 PUSH1 0x20 MSTORE PUSH1 0x40 SWAP1 KECCAK256 SLOAD DUP2 LT ISZERO PUSH2 0x2ECE JUMPI CALLER PUSH1 0x0 SWAP1 DUP2 MSTORE PUSH1 0x11 PUSH1 0x20 MSTORE PUSH1 0x40 DUP2 KECCAK256 DUP1 SLOAD DUP4 SWAP1 DUP2 LT PUSH2 0x2E47 JUMPI PUSH4 0x4E487B71 PUSH1 0xE0 SHL PUSH1 0x0 MSTORE PUSH1 0x32 PUSH1 0x4 MSTORE PUSH1 0x24 PUSH1 0x0 REVERT JUMPDEST SWAP1 PUSH1 0x0 MSTORE PUSH1 0x20 PUSH1 0x0 KECCAK256 ADD SLOAD SWAP1 POP DUP4 PUSH1 0x10 PUSH1 0x0 DUP4 DUP2 MSTORE PUSH1 0x20 ADD SWAP1 DUP2 MSTORE PUSH1 0x20 ADD PUSH1 0x0 KECCAK256 PUSH1 0x3 ADD SLOAD EQ DUP1 ISZERO PUSH2 0x2EAC JUMPI POP PUSH1 0x3 PUSH1 0x0 DUP3 DUP2 MSTORE PUSH1 0x10 PUSH1 0x20 MSTORE PUSH1 0x40 SWAP1 KECCAK256 PUSH1 0x5 ADD SLOAD PUSH1 0xFF AND PUSH1 0x4 DUP2 GT ISZERO PUSH2 0x2EAA JUMPI PUSH4 0x4E487B71 PUSH1 0xE0 SHL PUSH1 0x0 MSTORE PUSH1 0x21 PUSH1 0x4 MSTORE PUSH1 0x24 PUSH1 0x0 REVERT JUMPDEST EQ JUMPDEST ISZERO PUSH2 0x2EBB JUMPI PUSH1 0x1 SWAP3 POP POP PUSH2 0x2ECE JUMP JUMPDEST POP DUP1 PUSH2 0x2EC6 DUP2 PUSH2 0x4655 JUMP JUMPDEST SWAP2 POP POP PUSH2 0x2E01 JUMP JUMPDEST POP DUP1 ISZERO PUSH2 0x2EED JUMPI PUSH1 0x40 MLOAD PUSH3 0x461BCD PUSH1 0xE5 SHL DUP2 MSTORE PUSH1 0x4 ADD PUSH2 0x97A SWAP1 PUSH2 0x4341 JUMP JUMPDEST PUSH1 0x1 PUSH1 0x0 SWAP1 DUP2 MSTORE PUSH1 0x13 PUSH1 0x20 MSTORE PUSH1 0x0 DUP1 MLOAD PUSH1 0x20 PUSH2 0x46D2 DUP4 CODECOPY DUP2 MLOAD SWAP2 MSTORE SLOAD SWAP1 JUMPDEST DUP2 DUP2 LT ISZERO PUSH2 0x305C JUMPI PUSH1 0x1 PUSH1 0x0 MSTORE PUSH1 0x13 PUSH1 0x20 MSTORE PUSH1 0x0 DUP1 MLOAD PUSH1 0x20 PUSH2 0x46D2 DUP4 CODECOPY DUP2 MLOAD SWAP2 MSTORE DUP1 SLOAD DUP6 SWAP2 SWAP1 DUP4 SWAP1 DUP2 LT PUSH2 0x2F4F JUMPI PUSH4 0x4E487B71 PUSH1 0xE0 SHL PUSH1 0x0 MSTORE PUSH1 0x32 PUSH1 0x4 MSTORE PUSH1 0x24 PUSH1 0x0 REVERT JUMPDEST SWAP1 PUSH1 0x0 MSTORE PUSH1 0x20 PUSH1 0x0 KECCAK256 ADD SLOAD EQ ISZERO PUSH2 0x304A JUMPI PUSH1 0x1 PUSH1 0x0 DUP2 SWAP1 MSTORE PUSH1 0x13 PUSH1 0x20 MSTORE PUSH1 0x0 DUP1 MLOAD PUSH1 0x20 PUSH2 0x46D2 DUP4 CODECOPY DUP2 MLOAD SWAP2 MSTORE SWAP1 PUSH2 0x2F86 SWAP1 DUP5 PUSH2 0x4603 JUMP JUMPDEST DUP2 SLOAD DUP2 LT PUSH2 0x2FA4 JUMPI PUSH4 0x4E487B71 PUSH1 0xE0 SHL PUSH1 0x0 MSTORE PUSH1 0x32 PUSH1 0x4 MSTORE PUSH1 0x24 PUSH1 0x0 REVERT JUMPDEST PUSH1 0x0 SWAP2 DUP3 MSTORE PUSH1 0x20 DUP1 DUP4 KECCAK256 SWAP1 SWAP2 ADD SLOAD PUSH1 0x1 SWAP1 SWAP3 MSTORE PUSH1 0x13 SWAP1 MSTORE PUSH1 0x0 DUP1 MLOAD PUSH1 0x20 PUSH2 0x46D2 DUP4 CODECOPY DUP2 MLOAD SWAP2 MSTORE DUP1 SLOAD DUP4 SWAP1 DUP2 LT PUSH2 0x2FEA JUMPI PUSH4 0x4E487B71 PUSH1 0xE0 SHL PUSH1 0x0 MSTORE PUSH1 0x32 PUSH1 0x4 MSTORE PUSH1 0x24 PUSH1 0x0 REVERT JUMPDEST PUSH1 0x0 SWAP2 DUP3 MSTORE PUSH1 0x20 DUP1 DUP4 KECCAK256 SWAP1 SWAP2 ADD SWAP3 SWAP1 SWAP3 SSTORE PUSH1 0x1 SWAP1 MSTORE PUSH1 0x13 SWAP1 MSTORE PUSH1 0x0 DUP1 MLOAD PUSH1 0x20 PUSH2 0x46D2 DUP4 CODECOPY DUP2 MLOAD SWAP2 MSTORE DUP1 SLOAD DUP1 PUSH2 0x302F JUMPI PUSH4 0x4E487B71 PUSH1 0xE0 SHL PUSH1 0x0 MSTORE PUSH1 0x31 PUSH1 0x4 MSTORE PUSH1 0x24 PUSH1 0x0 REVERT JUMPDEST PUSH1 0x1 SWAP1 SUB DUP2 DUP2 SWAP1 PUSH1 0x0 MSTORE PUSH1 0x20 PUSH1 0x0 KECCAK256 ADD PUSH1 0x0 SWAP1 SSTORE SWAP1 SSTORE PUSH2 0x305C JUMP JUMPDEST DUP1 PUSH2 0x3054 DUP2 PUSH2 0x4655 JUMP JUMPDEST SWAP2 POP POP PUSH2 0x2F0B JUMP JUMPDEST POP POP PUSH1 0x0 DUP3 DUP2 MSTORE PUSH1 0xF PUSH1 0x20 SWAP1 DUP2 MSTORE PUSH1 0x40 DUP1 DUP4 KECCAK256 PUSH1 0x9 ADD DUP1 SLOAD PUSH1 0xFF NOT AND SWAP1 SSTORE CALLER DUP4 MSTORE PUSH1 0x12 SWAP1 SWAP2 MSTORE DUP2 KECCAK256 SLOAD SWAP1 JUMPDEST DUP2 DUP2 LT ISZERO PUSH2 0x314A JUMPI CALLER PUSH1 0x0 SWAP1 DUP2 MSTORE PUSH1 0x12 PUSH1 0x20 MSTORE PUSH1 0x40 DUP2 KECCAK256 DUP1 SLOAD DUP4 SWAP1 DUP2 LT PUSH2 0x30BE JUMPI PUSH4 0x4E487B71 PUSH1 0xE0 SHL PUSH1 0x0 MSTORE PUSH1 0x32 PUSH1 0x4 MSTORE PUSH1 0x24 PUSH1 0x0 REVERT JUMPDEST SWAP1 PUSH1 0x0 MSTORE PUSH1 0x20 PUSH1 0x0 KECCAK256 ADD SLOAD SWAP1 POP DUP5 PUSH1 0x10 PUSH1 0x0 DUP4 DUP2 MSTORE PUSH1 0x20 ADD SWAP1 DUP2 MSTORE PUSH1 0x20 ADD PUSH1 0x0 KECCAK256 PUSH1 0x3 ADD SLOAD EQ ISZERO PUSH2 0x3137 JUMPI PUSH1 0x0 SWAP1 DUP2 MSTORE PUSH1 0x10 PUSH1 0x20 SWAP1 DUP2 MSTORE PUSH1 0x40 DUP1 DUP4 KECCAK256 PUSH1 0x5 DUP2 ADD DUP1 SLOAD PUSH1 0x2 PUSH1 0xFF NOT SWAP2 DUP3 AND DUP2 OR SWAP1 SWAP3 SSTORE SWAP2 ADD SLOAD PUSH1 0x1 PUSH1 0x1 PUSH1 0xA0 SHL SUB AND DUP5 MSTORE PUSH1 0x15 DUP4 MSTORE DUP2 DUP5 KECCAK256 DUP9 DUP6 MSTORE SWAP1 SWAP3 MSTORE SWAP1 SWAP2 KECCAK256 DUP1 SLOAD SWAP1 SWAP2 AND SWAP1 SSTORE PUSH2 0x314A JUMP JUMPDEST POP DUP1 PUSH2 0x3142 DUP2 PUSH2 0x4655 JUMP JUMPDEST SWAP2 POP POP PUSH2 0x3087 JUMP JUMPDEST POP POP CALLER PUSH1 0x0 SWAP1 DUP2 MSTORE PUSH1 0x11 PUSH1 0x20 MSTORE PUSH1 0x40 DUP2 KECCAK256 SLOAD SWAP1 JUMPDEST DUP2 DUP2 LT ISZERO PUSH2 0x3221 JUMPI CALLER PUSH1 0x0 SWAP1 DUP2 MSTORE PUSH1 0x11 PUSH1 0x20 MSTORE PUSH1 0x40 DUP2 KECCAK256 DUP1 SLOAD DUP4 SWAP1 DUP2 LT PUSH2 0x3195 JUMPI PUSH4 0x4E487B71 PUSH1 0xE0 SHL PUSH1 0x0 MSTORE PUSH1 0x32 PUSH1 0x4 MSTORE PUSH1 0x24 PUSH1 0x0 REVERT JUMPDEST SWAP1 PUSH1 0x0 MSTORE PUSH1 0x20 PUSH1 0x0 KECCAK256 ADD SLOAD SWAP1 POP DUP5 PUSH1 0x10 PUSH1 0x0 DUP4 DUP2 MSTORE PUSH1 0x20 ADD SWAP1 DUP2 MSTORE PUSH1 0x20 ADD PUSH1 0x0 KECCAK256 PUSH1 0x3 ADD SLOAD EQ ISZERO PUSH2 0x320E JUMPI PUSH1 0x0 SWAP1 DUP2 MSTORE PUSH1 0x10 PUSH1 0x20 SWAP1 DUP2 MSTORE PUSH1 0x40 DUP1 DUP4 KECCAK256 PUSH1 0x5 DUP2 ADD DUP1 SLOAD PUSH1 0x2 PUSH1 0xFF NOT SWAP2 DUP3 AND DUP2 OR SWAP1 SWAP3 SSTORE SWAP2 ADD SLOAD PUSH1 0x1 PUSH1 0x1 PUSH1 0xA0 SHL SUB AND DUP5 MSTORE PUSH1 0x15 DUP4 MSTORE DUP2 DUP5 KECCAK256 DUP9 DUP6 MSTORE SWAP1 SWAP3 MSTORE SWAP1 SWAP2 KECCAK256 DUP1 SLOAD SWAP1 SWAP2 AND SWAP1 SSTORE PUSH2 0x3221 JUMP JUMPDEST POP DUP1 PUSH2 0x3219 DUP2 PUSH2 0x4655 JUMP JUMPDEST SWAP2 POP POP PUSH2 0x315E JUMP JUMPDEST POP POP POP POP JUMP JUMPDEST PUSH2 0x3230 CALLER PUSH2 0x2A4D JUMP JUMPDEST ISZERO PUSH2 0x324D JUMPI PUSH1 0x40 MLOAD PUSH3 0x461BCD PUSH1 0xE5 SHL DUP2 MSTORE PUSH1 0x4 ADD PUSH2 0x97A SWAP1 PUSH2 0x4106 JUMP JUMPDEST CALLER PUSH1 0x0 SWAP1 DUP2 MSTORE PUSH1 0xD PUSH1 0x20 MSTORE PUSH1 0x40 SWAP1 KECCAK256 SLOAD PUSH1 0xFF AND ISZERO ISZERO PUSH1 0x1 EQ ISZERO PUSH2 0x326F JUMPI PUSH2 0x3449 JUMP JUMPDEST CALLER PUSH1 0x0 SWAP1 DUP2 MSTORE PUSH1 0x6 PUSH1 0x20 SWAP1 DUP2 MSTORE PUSH1 0x40 DUP1 DUP4 KECCAK256 DUP1 SLOAD PUSH1 0xFF NOT SWAP1 DUP2 AND SWAP1 SWAP2 SSTORE PUSH1 0xD SWAP1 SWAP3 MSTORE DUP3 KECCAK256 DUP1 SLOAD SWAP1 SWAP2 AND PUSH1 0x1 OR SWAP1 SSTORE PUSH1 0x2 DUP1 SLOAD SWAP2 PUSH2 0x32AB DUP4 PUSH2 0x4655 JUMP JUMPDEST SWAP1 SWAP2 SSTORE POP POP PUSH1 0x0 DUP1 MLOAD PUSH1 0x20 PUSH2 0x46B2 DUP4 CODECOPY DUP2 MLOAD SWAP2 MSTORE DUP1 SLOAD PUSH1 0x1 DUP1 DUP3 ADD SWAP1 SWAP3 SSTORE PUSH32 0x316D947374D71758E457E80486787A2C828942C59266CC0C2FB7ED856B0E118D ADD DUP1 SLOAD CALLER PUSH1 0x1 PUSH1 0x1 PUSH1 0xA0 SHL SUB NOT SWAP2 DUP3 AND DUP2 OR SWAP1 SWAP3 SSTORE PUSH1 0x2 SLOAD PUSH1 0x0 SWAP1 DUP2 MSTORE PUSH1 0xB PUSH1 0x20 SWAP1 DUP2 MSTORE PUSH1 0x40 DUP1 DUP4 KECCAK256 DUP1 SLOAD DUP6 AND DUP7 OR SWAP1 SSTORE DUP1 MLOAD PUSH2 0x120 DUP2 ADD DUP3 MSTORE DUP6 DUP2 MSTORE DUP1 DUP4 ADD DUP15 DUP2 MSTORE DUP2 DUP4 ADD DUP15 SWAP1 MSTORE PUSH1 0x60 DUP3 ADD DUP14 SWAP1 MSTORE PUSH1 0x80 DUP3 ADD DUP13 SWAP1 MSTORE PUSH1 0xA0 DUP3 ADD DUP12 SWAP1 MSTORE PUSH1 0xC0 DUP3 ADD DUP10 SWAP1 MSTORE PUSH1 0xE0 DUP3 ADD DUP6 SWAP1 MSTORE PUSH2 0x100 DUP3 ADD DUP11 SWAP1 MSTORE SWAP6 DUP5 MSTORE PUSH1 0xA DUP4 MSTORE SWAP3 KECCAK256 DUP3 MLOAD DUP2 SLOAD SWAP1 SWAP5 AND PUSH1 0x1 PUSH1 0x1 PUSH1 0xA0 SHL SUB SWAP1 SWAP5 AND SWAP4 SWAP1 SWAP4 OR DUP4 SSTORE SWAP3 MLOAD DUP1 MLOAD SWAP2 SWAP5 SWAP3 SWAP4 PUSH2 0x3396 SWAP4 DUP6 ADD SWAP3 SWAP2 ADD SWAP1 PUSH2 0x395A JUMP JUMPDEST POP PUSH1 0x40 DUP3 ADD MLOAD PUSH1 0x2 DUP3 ADD SSTORE PUSH1 0x60 DUP3 ADD MLOAD DUP1 MLOAD PUSH2 0x33BC SWAP2 PUSH1 0x3 DUP5 ADD SWAP2 PUSH1 0x20 SWAP1 SWAP2 ADD SWAP1 PUSH2 0x395A JUMP JUMPDEST POP PUSH1 0x80 DUP3 ADD MLOAD DUP1 MLOAD PUSH2 0x33D8 SWAP2 PUSH1 0x4 DUP5 ADD SWAP2 PUSH1 0x20 SWAP1 SWAP2 ADD SWAP1 PUSH2 0x395A JUMP JUMPDEST POP PUSH1 0xA0 DUP3 ADD MLOAD DUP1 MLOAD PUSH2 0x33F4 SWAP2 PUSH1 0x5 DUP5 ADD SWAP2 PUSH1 0x20 SWAP1 SWAP2 ADD SWAP1 PUSH2 0x395A JUMP JUMPDEST POP PUSH1 0xC0 DUP3 ADD MLOAD DUP1 MLOAD PUSH2 0x3410 SWAP2 PUSH1 0x6 DUP5 ADD SWAP2 PUSH1 0x20 SWAP1 SWAP2 ADD SWAP1 PUSH2 0x395A JUMP JUMPDEST POP PUSH1 0xE0 DUP3 ADD MLOAD PUSH1 0x7 DUP3 ADD DUP1 SLOAD PUSH1 0xFF NOT AND SWAP2 ISZERO ISZERO SWAP2 SWAP1 SWAP2 OR SWAP1 SSTORE PUSH2 0x100 DUP3 ADD MLOAD DUP1 MLOAD PUSH2 0x3445 SWAP2 PUSH1 0x8 DUP5 ADD SWAP2 PUSH1 0x20 SWAP1 SWAP2 ADD SWAP1 PUSH2 0x395A JUMP JUMPDEST POP POP POP JUMPDEST POP POP POP POP POP POP POP JUMP JUMPDEST PUSH1 0x5 SLOAD SWAP1 JUMP JUMPDEST PUSH1 0x0 DUP2 DUP2 MSTORE PUSH1 0x10 PUSH1 0x20 MSTORE PUSH1 0x40 SWAP1 KECCAK256 PUSH1 0x2 ADD SLOAD PUSH1 0x1 PUSH1 0x1 PUSH1 0xA0 SHL SUB AND CALLER EQ DUP1 ISZERO PUSH2 0x34B4 JUMPI POP PUSH1 0x1 PUSH1 0x0 DUP3 DUP2 MSTORE PUSH1 0x10 PUSH1 0x20 MSTORE PUSH1 0x40 SWAP1 KECCAK256 PUSH1 0x5 ADD SLOAD PUSH1 0xFF AND PUSH1 0x4 DUP2 GT ISZERO PUSH2 0x34B2 JUMPI PUSH4 0x4E487B71 PUSH1 0xE0 SHL PUSH1 0x0 MSTORE PUSH1 0x21 PUSH1 0x4 MSTORE PUSH1 0x24 PUSH1 0x0 REVERT JUMPDEST EQ JUMPDEST DUP1 ISZERO PUSH2 0x34DC JUMPI POP PUSH1 0x0 DUP2 DUP2 MSTORE PUSH1 0x10 PUSH1 0x20 MSTORE PUSH1 0x40 SWAP1 KECCAK256 PUSH1 0x1 ADD SLOAD PUSH1 0x1 PUSH1 0x1 PUSH1 0xA0 SHL SUB DUP4 DUP2 AND SWAP2 AND EQ JUMPDEST DUP1 ISZERO PUSH2 0x3509 JUMPI POP PUSH1 0x0 DUP2 DUP2 MSTORE PUSH1 0x10 PUSH1 0x20 SWAP1 DUP2 MSTORE PUSH1 0x40 DUP1 DUP4 KECCAK256 PUSH1 0x3 SWAP1 DUP2 ADD SLOAD DUP5 MSTORE PUSH1 0xF SWAP1 SWAP3 MSTORE SWAP1 SWAP2 KECCAK256 ADD SLOAD CALLVALUE EQ JUMPDEST ISZERO PUSH2 0x30A JUMPI PUSH1 0x0 DUP2 DUP2 MSTORE PUSH1 0x10 PUSH1 0x20 SWAP1 DUP2 MSTORE PUSH1 0x40 DUP1 DUP4 KECCAK256 PUSH1 0x5 ADD DUP1 SLOAD PUSH1 0x3 PUSH1 0xFF NOT SWAP1 SWAP2 AND OR PUSH2 0xFF00 NOT AND PUSH2 0x100 OR SWAP1 SSTORE PUSH1 0x14 SWAP1 SWAP2 MSTORE PUSH32 0xB6C61A840592CC84133E4B25BD509ABF4659307C57B160799B38490A5AA48F2C DUP1 SLOAD PUSH1 0x1 DUP2 ADD DUP3 SSTORE SWAP1 DUP4 MSTORE PUSH32 0x2FDC54BEBE143AF21BC9F7874666206C3383B1C51A1A7063FA557C077952093E ADD DUP4 SWAP1 SSTORE MLOAD PUSH1 0x1 PUSH1 0x1 PUSH1 0xA0 SHL SUB DUP5 AND SWAP2 CALLVALUE DUP1 ISZERO PUSH2 0x8FC MUL SWAP3 SWAP1 SWAP2 DUP2 DUP2 DUP2 DUP6 DUP9 DUP9 CALL SWAP4 POP POP POP POP ISZERO DUP1 ISZERO PUSH2 0x35C1 JUMPI RETURNDATASIZE PUSH1 0x0 DUP1 RETURNDATACOPY RETURNDATASIZE PUSH1 0x0 REVERT JUMPDEST POP PUSH1 0x0 DUP2 DUP2 MSTORE PUSH1 0x10 PUSH1 0x20 SWAP1 DUP2 MSTORE PUSH1 0x40 DUP1 DUP4 KECCAK256 PUSH1 0x3 SWAP1 DUP2 ADD SLOAD DUP5 MSTORE PUSH1 0xF SWAP1 SWAP3 MSTORE SWAP2 DUP3 SWAP1 KECCAK256 ADD SLOAD SWAP1 MLOAD PUSH1 0x1 PUSH1 0x1 PUSH1 0xA0 SHL SUB DUP5 AND SWAP2 CALLER SWAP2 PUSH32 0x46661DAB58311A6838247AFECBEE792192B4F27FC8B3E7168C66BC55EC2E404E SWAP2 PUSH2 0x3622 SWAP2 CALLVALUE SWAP1 PUSH2 0x44E8 JUMP JUMPDEST PUSH1 0x40 MLOAD DUP1 SWAP2 SUB SWAP1 LOG3 PUSH2 0x9A9 JUMP JUMPDEST PUSH2 0x3638 CALLER PUSH2 0x2A4D JUMP JUMPDEST PUSH2 0x3641 JUMPI PUSH1 0x0 DUP1 REVERT JUMPDEST PUSH1 0x0 SWAP1 DUP2 MSTORE PUSH1 0xF PUSH1 0x20 MSTORE PUSH1 0x40 SWAP1 KECCAK256 PUSH1 0x9 ADD DUP1 SLOAD PUSH1 0xFF PUSH1 0xA8 SHL NOT AND PUSH1 0x1 PUSH1 0xA8 SHL OR SWAP1 SSTORE JUMP JUMPDEST PUSH1 0x0 PUSH2 0x3670 CALLER PUSH2 0x2A4D JUMP JUMPDEST PUSH2 0x3679 JUMPI PUSH1 0x0 DUP1 REVERT JUMPDEST PUSH1 0x0 DUP4 DUP2 MSTORE PUSH1 0x10 PUSH1 0x20 MSTORE PUSH1 0x40 SWAP1 KECCAK256 PUSH1 0x5 ADD SLOAD PUSH2 0x100 SWAP1 DIV PUSH1 0xFF AND PUSH2 0x369F JUMPI POP PUSH1 0x0 PUSH2 0x3936 JUMP JUMPDEST PUSH1 0x4 DUP1 SLOAD SWAP1 PUSH1 0x0 PUSH2 0x36AF DUP4 PUSH2 0x4655 JUMP JUMPDEST SWAP1 SWAP2 SSTORE POP POP PUSH1 0x0 DUP4 DUP2 MSTORE PUSH1 0x10 PUSH1 0x20 SWAP1 DUP2 MSTORE PUSH1 0x40 DUP1 DUP4 KECCAK256 PUSH1 0x5 DUP2 ADD DUP1 SLOAD PUSH1 0xFF NOT AND PUSH1 0x4 OR SWAP1 SSTORE PUSH1 0x2 DUP2 ADD SLOAD PUSH1 0x1 PUSH1 0x1 PUSH1 0xA0 SHL SUB SWAP1 DUP2 AND DUP6 MSTORE PUSH1 0xE DUP5 MSTORE DUP3 DUP6 KECCAK256 PUSH1 0x3 DUP4 ADD SLOAD DUP2 SLOAD PUSH1 0x1 DUP2 DUP2 ADD DUP5 SSTORE SWAP3 DUP9 MSTORE SWAP6 DUP8 KECCAK256 SWAP1 SWAP6 ADD SWAP5 SWAP1 SWAP5 SSTORE SWAP3 ADD SLOAD SWAP1 SWAP2 AND DUP3 MSTORE DUP2 KECCAK256 SLOAD SWAP1 JUMPDEST DUP2 DUP2 LT ISZERO PUSH2 0x389C JUMPI PUSH1 0x0 DUP6 DUP2 MSTORE PUSH1 0x10 PUSH1 0x20 SWAP1 DUP2 MSTORE PUSH1 0x40 DUP1 DUP4 KECCAK256 PUSH1 0x3 DUP2 ADD SLOAD PUSH1 0x1 SWAP1 SWAP2 ADD SLOAD PUSH1 0x1 PUSH1 0x1 PUSH1 0xA0 SHL SUB AND DUP5 MSTORE PUSH1 0xE SWAP1 SWAP3 MSTORE SWAP1 SWAP2 KECCAK256 DUP1 SLOAD DUP4 SWAP1 DUP2 LT PUSH2 0x376C JUMPI PUSH4 0x4E487B71 PUSH1 0xE0 SHL PUSH1 0x0 MSTORE PUSH1 0x32 PUSH1 0x4 MSTORE PUSH1 0x24 PUSH1 0x0 REVERT JUMPDEST SWAP1 PUSH1 0x0 MSTORE PUSH1 0x20 PUSH1 0x0 KECCAK256 ADD SLOAD EQ ISZERO PUSH2 0x388A JUMPI PUSH1 0x0 DUP6 DUP2 MSTORE PUSH1 0x10 PUSH1 0x20 SWAP1 DUP2 MSTORE PUSH1 0x40 DUP1 DUP4 KECCAK256 PUSH1 0x1 SWAP1 DUP2 ADD SLOAD PUSH1 0x1 PUSH1 0x1 PUSH1 0xA0 SHL SUB AND DUP5 MSTORE PUSH1 0xE SWAP1 SWAP3 MSTORE SWAP1 SWAP2 KECCAK256 SWAP1 PUSH2 0x37B2 SWAP1 DUP5 PUSH2 0x4603 JUMP JUMPDEST DUP2 SLOAD DUP2 LT PUSH2 0x37D0 JUMPI PUSH4 0x4E487B71 PUSH1 0xE0 SHL PUSH1 0x0 MSTORE PUSH1 0x32 PUSH1 0x4 MSTORE PUSH1 0x24 PUSH1 0x0 REVERT JUMPDEST PUSH1 0x0 SWAP2 DUP3 MSTORE PUSH1 0x20 DUP1 DUP4 KECCAK256 SWAP1 SWAP2 ADD SLOAD DUP8 DUP4 MSTORE PUSH1 0x10 DUP3 MSTORE PUSH1 0x40 DUP1 DUP5 KECCAK256 PUSH1 0x1 ADD SLOAD PUSH1 0x1 PUSH1 0x1 PUSH1 0xA0 SHL SUB AND DUP5 MSTORE PUSH1 0xE SWAP1 SWAP3 MSTORE SWAP2 KECCAK256 DUP1 SLOAD DUP4 SWAP1 DUP2 LT PUSH2 0x3820 JUMPI PUSH4 0x4E487B71 PUSH1 0xE0 SHL PUSH1 0x0 MSTORE PUSH1 0x32 PUSH1 0x4 MSTORE PUSH1 0x24 PUSH1 0x0 REVERT JUMPDEST PUSH1 0x0 SWAP2 DUP3 MSTORE PUSH1 0x20 DUP1 DUP4 KECCAK256 SWAP1 SWAP2 ADD SWAP3 SWAP1 SWAP3 SSTORE DUP7 DUP2 MSTORE PUSH1 0x10 DUP3 MSTORE PUSH1 0x40 DUP1 DUP3 KECCAK256 PUSH1 0x1 ADD SLOAD PUSH1 0x1 PUSH1 0x1 PUSH1 0xA0 SHL SUB AND DUP3 MSTORE PUSH1 0xE SWAP1 SWAP3 MSTORE KECCAK256 DUP1 SLOAD DUP1 PUSH2 0x386F JUMPI PUSH4 0x4E487B71 PUSH1 0xE0 SHL PUSH1 0x0 MSTORE PUSH1 0x31 PUSH1 0x4 MSTORE PUSH1 0x24 PUSH1 0x0 REVERT JUMPDEST PUSH1 0x1 SWAP1 SUB DUP2 DUP2 SWAP1 PUSH1 0x0 MSTORE PUSH1 0x20 PUSH1 0x0 KECCAK256 ADD PUSH1 0x0 SWAP1 SSTORE SWAP1 SSTORE PUSH2 0x389C JUMP JUMPDEST DUP1 PUSH2 0x3894 DUP2 PUSH2 0x4655 JUMP JUMPDEST SWAP2 POP POP PUSH2 0x3715 JUMP JUMPDEST POP PUSH1 0x0 DUP5 DUP2 MSTORE PUSH1 0x10 PUSH1 0x20 SWAP1 DUP2 MSTORE PUSH1 0x40 DUP1 DUP4 KECCAK256 PUSH1 0x3 ADD SLOAD DUP4 MSTORE PUSH1 0xF DUP3 MSTORE SWAP1 SWAP2 KECCAK256 DUP5 MLOAD PUSH2 0x38CF SWAP3 PUSH1 0x7 SWAP1 SWAP3 ADD SWAP2 DUP7 ADD SWAP1 PUSH2 0x395A JUMP JUMPDEST POP POP POP PUSH1 0x0 DUP3 DUP2 MSTORE PUSH1 0x10 PUSH1 0x20 SWAP1 DUP2 MSTORE PUSH1 0x40 DUP1 DUP4 KECCAK256 PUSH1 0x3 DUP2 ADD DUP1 SLOAD DUP6 MSTORE PUSH1 0xF SWAP1 SWAP4 MSTORE DUP2 DUP5 KECCAK256 PUSH1 0x9 SWAP1 DUP2 ADD DUP1 SLOAD PUSH1 0xFF NOT AND SWAP1 SSTORE PUSH1 0x2 SWAP1 SWAP2 ADD SLOAD SWAP3 SLOAD DUP5 MSTORE SWAP3 KECCAK256 SWAP1 SWAP2 ADD DUP1 SLOAD PUSH1 0x1 PUSH1 0x1 PUSH1 0xA0 SHL SUB SWAP1 SWAP3 AND PUSH2 0x100 MUL PUSH2 0x100 PUSH1 0x1 PUSH1 0xA8 SHL SUB NOT SWAP1 SWAP3 AND SWAP2 SWAP1 SWAP2 OR SWAP1 SSTORE PUSH1 0x1 JUMPDEST SWAP3 SWAP2 POP POP JUMP JUMPDEST PUSH1 0x1 PUSH1 0x1 PUSH1 0xA0 SHL SUB AND PUSH1 0x0 SWAP1 DUP2 MSTORE PUSH1 0x6 PUSH1 0x20 MSTORE PUSH1 0x40 SWAP1 KECCAK256 SLOAD PUSH1 0xFF AND SWAP1 JUMP JUMPDEST DUP3 DUP1 SLOAD PUSH2 0x3966 SWAP1 PUSH2 0x461A JUMP JUMPDEST SWAP1 PUSH1 0x0 MSTORE PUSH1 0x20 PUSH1 0x0 KECCAK256 SWAP1 PUSH1 0x1F ADD PUSH1 0x20 SWAP1 DIV DUP2 ADD SWAP3 DUP3 PUSH2 0x3988 JUMPI PUSH1 0x0 DUP6 SSTORE PUSH2 0x39CE JUMP JUMPDEST DUP3 PUSH1 0x1F LT PUSH2 0x39A1 JUMPI DUP1 MLOAD PUSH1 0xFF NOT AND DUP4 DUP1 ADD OR DUP6 SSTORE PUSH2 0x39CE JUMP JUMPDEST DUP3 DUP1 ADD PUSH1 0x1 ADD DUP6 SSTORE DUP3 ISZERO PUSH2 0x39CE JUMPI SWAP2 DUP3 ADD JUMPDEST DUP3 DUP2 GT ISZERO PUSH2 0x39CE JUMPI DUP3 MLOAD DUP3 SSTORE SWAP2 PUSH1 0x20 ADD SWAP2 SWAP1 PUSH1 0x1 ADD SWAP1 PUSH2 0x39B3 JUMP JUMPDEST POP PUSH2 0x39DA SWAP3 SWAP2 POP PUSH2 0x3A37 JUMP JUMPDEST POP SWAP1 JUMP JUMPDEST POP DUP1 SLOAD PUSH2 0x39EA SWAP1 PUSH2 0x461A JUMP JUMPDEST PUSH1 0x0 DUP3 SSTORE DUP1 PUSH1 0x1F LT PUSH2 0x39FC JUMPI POP PUSH2 0x3A1A JUMP JUMPDEST PUSH1 0x1F ADD PUSH1 0x20 SWAP1 DIV SWAP1 PUSH1 0x0 MSTORE PUSH1 0x20 PUSH1 0x0 KECCAK256 SWAP1 DUP2 ADD SWAP1 PUSH2 0x3A1A SWAP2 SWAP1 PUSH2 0x3A37 JUMP JUMPDEST POP JUMP JUMPDEST POP DUP1 SLOAD PUSH1 0x0 DUP3 SSTORE SWAP1 PUSH1 0x0 MSTORE PUSH1 0x20 PUSH1 0x0 KECCAK256 SWAP1 DUP2 ADD SWAP1 PUSH2 0x3A1A SWAP2 SWAP1 JUMPDEST JUMPDEST DUP1 DUP3 GT ISZERO PUSH2 0x39DA JUMPI PUSH1 0x0 DUP2 SSTORE PUSH1 0x1 ADD PUSH2 0x3A38 JUMP JUMPDEST PUSH1 0x0 DUP3 PUSH1 0x1F DUP4 ADD SLT PUSH2 0x3A5C JUMPI DUP1 DUP2 REVERT JUMPDEST DUP2 CALLDATALOAD PUSH8 0xFFFFFFFFFFFFFFFF DUP1 DUP3 GT ISZERO PUSH2 0x3A77 JUMPI PUSH2 0x3A77 PUSH2 0x4686 JUMP JUMPDEST PUSH1 0x40 MLOAD PUSH1 0x1F DUP4 ADD PUSH1 0x1F NOT AND DUP2 ADD PUSH1 0x20 ADD DUP3 DUP2 GT DUP3 DUP3 LT OR ISZERO PUSH2 0x3A9B JUMPI PUSH2 0x3A9B PUSH2 0x4686 JUMP JUMPDEST PUSH1 0x40 MSTORE DUP3 DUP2 MSTORE DUP5 DUP4 ADD PUSH1 0x20 ADD DUP7 LT ISZERO PUSH2 0x3AB2 JUMPI DUP4 DUP5 REVERT JUMPDEST DUP3 PUSH1 0x20 DUP7 ADD PUSH1 0x20 DUP4 ADD CALLDATACOPY SWAP2 DUP3 ADD PUSH1 0x20 ADD SWAP3 SWAP1 SWAP3 MSTORE SWAP4 SWAP3 POP POP POP JUMP JUMPDEST PUSH1 0x0 PUSH1 0x20 DUP3 DUP5 SUB SLT ISZERO PUSH2 0x3ADE JUMPI DUP1 DUP2 REVERT JUMPDEST DUP2 CALLDATALOAD PUSH2 0x3AE9 DUP2 PUSH2 0x469C JUMP JUMPDEST SWAP4 SWAP3 POP POP POP JUMP JUMPDEST PUSH1 0x0 DUP1 PUSH1 0x40 DUP4 DUP6 SUB SLT ISZERO PUSH2 0x3B02 JUMPI DUP1 DUP2 REVERT JUMPDEST DUP3 CALLDATALOAD PUSH2 0x3B0D DUP2 PUSH2 0x469C JUMP JUMPDEST SWAP5 PUSH1 0x20 SWAP4 SWAP1 SWAP4 ADD CALLDATALOAD SWAP4 POP POP POP JUMP JUMPDEST PUSH1 0x0 DUP1 PUSH1 0x0 DUP1 PUSH1 0x0 DUP1 PUSH1 0xC0 DUP8 DUP10 SUB SLT ISZERO PUSH2 0x3B33 JUMPI DUP2 DUP3 REVERT JUMPDEST DUP7 CALLDATALOAD PUSH2 0x3B3E DUP2 PUSH2 0x469C JUMP JUMPDEST SWAP6 POP PUSH1 0x20 DUP8 ADD CALLDATALOAD PUSH8 0xFFFFFFFFFFFFFFFF DUP1 DUP3 GT ISZERO PUSH2 0x3B5A JUMPI DUP4 DUP5 REVERT JUMPDEST PUSH2 0x3B66 DUP11 DUP4 DUP12 ADD PUSH2 0x3A4C JUMP JUMPDEST SWAP7 POP PUSH1 0x40 DUP10 ADD CALLDATALOAD SWAP6 POP PUSH1 0x60 DUP10 ADD CALLDATALOAD SWAP5 POP PUSH1 0x80 DUP10 ADD CALLDATALOAD SWAP2 POP DUP1 DUP3 GT ISZERO PUSH2 0x3B89 JUMPI DUP4 DUP5 REVERT JUMPDEST PUSH2 0x3B95 DUP11 DUP4 DUP12 ADD PUSH2 0x3A4C JUMP JUMPDEST SWAP4 POP PUSH1 0xA0 DUP10 ADD CALLDATALOAD SWAP2 POP DUP1 DUP3 GT ISZERO PUSH2 0x3BAA JUMPI DUP3 DUP4 REVERT JUMPDEST POP PUSH2 0x3BB7 DUP10 DUP3 DUP11 ADD PUSH2 0x3A4C JUMP JUMPDEST SWAP2 POP POP SWAP3 SWAP6 POP SWAP3 SWAP6 POP SWAP3 SWAP6 JUMP JUMPDEST PUSH1 0x0 DUP1 PUSH1 0x40 DUP4 DUP6 SUB SLT ISZERO PUSH2 0x3B02 JUMPI DUP2 DUP3 REVERT JUMPDEST PUSH1 0x0 PUSH1 0x20 DUP3 DUP5 SUB SLT ISZERO PUSH2 0x3BE7 JUMPI DUP1 DUP2 REVERT JUMPDEST DUP2 CALLDATALOAD PUSH8 0xFFFFFFFFFFFFFFFF DUP2 GT ISZERO PUSH2 0x3BFD JUMPI DUP2 DUP3 REVERT JUMPDEST PUSH2 0x3C09 DUP5 DUP3 DUP6 ADD PUSH2 0x3A4C JUMP JUMPDEST SWAP5 SWAP4 POP POP POP POP JUMP JUMPDEST PUSH1 0x0 DUP1 PUSH1 0x0 DUP1 PUSH1 0x0 DUP1 PUSH1 0x0 PUSH1 0xE0 DUP9 DUP11 SUB SLT ISZERO PUSH2 0x3C2B JUMPI DUP1 DUP2 REVERT JUMPDEST DUP8 CALLDATALOAD PUSH8 0xFFFFFFFFFFFFFFFF DUP1 DUP3 GT ISZERO PUSH2 0x3C42 JUMPI DUP3 DUP4 REVERT JUMPDEST PUSH2 0x3C4E DUP12 DUP4 DUP13 ADD PUSH2 0x3A4C JUMP JUMPDEST SWAP9 POP PUSH1 0x20 DUP11 ADD CALLDATALOAD SWAP8 POP PUSH1 0x40 DUP11 ADD CALLDATALOAD SWAP2 POP DUP1 DUP3 GT ISZERO PUSH2 0x3C6A JUMPI DUP3 DUP4 REVERT JUMPDEST PUSH2 0x3C76 DUP12 DUP4 DUP13 ADD PUSH2 0x3A4C JUMP JUMPDEST SWAP7 POP PUSH1 0x60 DUP11 ADD CALLDATALOAD SWAP2 POP DUP1 DUP3 GT ISZERO PUSH2 0x3C8B JUMPI DUP3 DUP4 REVERT JUMPDEST PUSH2 0x3C97 DUP12 DUP4 DUP13 ADD PUSH2 0x3A4C JUMP JUMPDEST SWAP6 POP PUSH1 0x80 DUP11 ADD CALLDATALOAD SWAP2 POP DUP1 DUP3 GT ISZERO PUSH2 0x3CAC JUMPI DUP3 DUP4 REVERT JUMPDEST PUSH2 0x3CB8 DUP12 DUP4 DUP13 ADD PUSH2 0x3A4C JUMP JUMPDEST SWAP5 POP PUSH1 0xA0 DUP11 ADD CALLDATALOAD SWAP2 POP DUP1 DUP3 GT ISZERO PUSH2 0x3CCD JUMPI DUP3 DUP4 REVERT JUMPDEST PUSH2 0x3CD9 DUP12 DUP4 DUP13 ADD PUSH2 0x3A4C JUMP JUMPDEST SWAP4 POP PUSH1 0xC0 DUP11 ADD CALLDATALOAD SWAP2 POP DUP1 DUP3 GT ISZERO PUSH2 0x3CEE JUMPI DUP3 DUP4 REVERT JUMPDEST POP PUSH2 0x3CFB DUP11 DUP3 DUP12 ADD PUSH2 0x3A4C JUMP JUMPDEST SWAP2 POP POP SWAP3 SWAP6 SWAP9 SWAP2 SWAP5 SWAP8 POP SWAP3 SWAP6 POP JUMP JUMPDEST PUSH1 0x0 PUSH1 0x20 DUP3 DUP5 SUB SLT ISZERO PUSH2 0x3D1B JUMPI DUP1 DUP2 REVERT JUMPDEST POP CALLDATALOAD SWAP2 SWAP1 POP JUMP JUMPDEST PUSH1 0x0 DUP1 PUSH1 0x40 DUP4 DUP6 SUB SLT ISZERO PUSH2 0x3D34 JUMPI DUP2 DUP3 REVERT JUMPDEST DUP3 CALLDATALOAD SWAP2 POP PUSH1 0x20 DUP4 ADD CALLDATALOAD PUSH8 0xFFFFFFFFFFFFFFFF DUP2 GT ISZERO PUSH2 0x3D51 JUMPI DUP2 DUP3 REVERT JUMPDEST PUSH2 0x3D5D DUP6 DUP3 DUP7 ADD PUSH2 0x3A4C JUMP JUMPDEST SWAP2 POP POP SWAP3 POP SWAP3 SWAP1 POP JUMP JUMPDEST PUSH1 0x0 DUP1 PUSH1 0x0 DUP1 PUSH1 0x0 DUP1 PUSH1 0x0 DUP1 PUSH2 0x100 DUP10 DUP12 SUB SLT ISZERO PUSH2 0x3D83 JUMPI DUP1 DUP2 REVERT JUMPDEST DUP9 CALLDATALOAD SWAP8 POP PUSH1 0x20 DUP10 ADD CALLDATALOAD PUSH8 0xFFFFFFFFFFFFFFFF DUP1 DUP3 GT ISZERO PUSH2 0x3DA1 JUMPI DUP3 DUP4 REVERT JUMPDEST PUSH2 0x3DAD DUP13 DUP4 DUP14 ADD PUSH2 0x3A4C JUMP JUMPDEST SWAP9 POP PUSH1 0x40 DUP12 ADD CALLDATALOAD SWAP8 POP PUSH1 0x60 DUP12 ADD CALLDATALOAD SWAP2 POP DUP1 DUP3 GT ISZERO PUSH2 0x3DC9 JUMPI DUP3 DUP4 REVERT JUMPDEST PUSH2 0x3DD5 DUP13 DUP4 DUP14 ADD PUSH2 0x3A4C JUMP JUMPDEST SWAP7 POP PUSH1 0x80 DUP12 ADD CALLDATALOAD SWAP6 POP PUSH1 0xA0 DUP12 ADD CALLDATALOAD SWAP2 POP DUP1 DUP3 GT ISZERO PUSH2 0x3DF1 JUMPI DUP3 DUP4 REVERT JUMPDEST PUSH2 0x3DFD DUP13 DUP4 DUP14 ADD PUSH2 0x3A4C JUMP JUMPDEST SWAP5 POP PUSH1 0xC0 DUP12 ADD CALLDATALOAD SWAP2 POP DUP1 DUP3 GT ISZERO PUSH2 0x3E12 JUMPI DUP3 DUP4 REVERT JUMPDEST PUSH2 0x3E1E DUP13 DUP4 DUP14 ADD PUSH2 0x3A4C JUMP JUMPDEST SWAP4 POP PUSH1 0xE0 DUP12 ADD CALLDATALOAD SWAP2 POP DUP1 DUP3 GT ISZERO PUSH2 0x3E33 JUMPI DUP3 DUP4 REVERT JUMPDEST POP PUSH2 0x3E40 DUP12 DUP3 DUP13 ADD PUSH2 0x3A4C JUMP JUMPDEST SWAP2 POP POP SWAP3 SWAP6 SWAP9 POP SWAP3 SWAP6 SWAP9 SWAP1 SWAP4 SWAP7 POP JUMP JUMPDEST PUSH1 0x0 DUP1 PUSH1 0x40 DUP4 DUP6 SUB SLT ISZERO PUSH2 0x3E62 JUMPI DUP2 DUP3 REVERT JUMPDEST POP POP DUP1 CALLDATALOAD SWAP3 PUSH1 0x20 SWAP1 SWAP2 ADD CALLDATALOAD SWAP2 POP JUMP JUMPDEST PUSH1 0x1 PUSH1 0x1 PUSH1 0xA0 SHL SUB AND SWAP1 MSTORE JUMP JUMPDEST ISZERO ISZERO SWAP1 MSTORE JUMP JUMPDEST PUSH1 0x0 DUP2 MLOAD DUP1 DUP5 MSTORE DUP2 JUMPDEST DUP2 DUP2 LT ISZERO PUSH2 0x3EA9 JUMPI PUSH1 0x20 DUP2 DUP6 ADD DUP2 ADD MLOAD DUP7 DUP4 ADD DUP3 ADD MSTORE ADD PUSH2 0x3E8D JUMP JUMPDEST DUP2 DUP2 GT ISZERO PUSH2 0x3EBA JUMPI DUP3 PUSH1 0x20 DUP4 DUP8 ADD ADD MSTORE JUMPDEST POP PUSH1 0x1F ADD PUSH1 0x1F NOT AND SWAP3 SWAP1 SWAP3 ADD PUSH1 0x20 ADD SWAP3 SWAP2 POP POP JUMP JUMPDEST PUSH1 0x1 PUSH1 0x1 PUSH1 0xA0 SHL SUB DUP11 AND DUP2 MSTORE PUSH2 0x120 PUSH1 0x20 DUP3 ADD DUP2 SWAP1 MSTORE PUSH1 0x0 SWAP1 PUSH2 0x3EF4 DUP4 DUP3 ADD DUP13 PUSH2 0x3E84 JUMP JUMPDEST SWAP1 POP DUP10 PUSH1 0x40 DUP5 ADD MSTORE DUP3 DUP2 SUB PUSH1 0x60 DUP5 ADD MSTORE PUSH2 0x3F0E DUP2 DUP11 PUSH2 0x3E84 JUMP JUMPDEST SWAP1 POP DUP3 DUP2 SUB PUSH1 0x80 DUP5 ADD MSTORE PUSH2 0x3F22 DUP2 DUP10 PUSH2 0x3E84 JUMP JUMPDEST SWAP1 POP DUP3 DUP2 SUB PUSH1 0xA0 DUP5 ADD MSTORE PUSH2 0x3F36 DUP2 DUP9 PUSH2 0x3E84 JUMP JUMPDEST SWAP1 POP DUP3 DUP2 SUB PUSH1 0xC0 DUP5 ADD MSTORE PUSH2 0x3F4A DUP2 DUP8 PUSH2 0x3E84 JUMP JUMPDEST SWAP1 POP DUP5 ISZERO ISZERO PUSH1 0xE0 DUP5 ADD MSTORE DUP3 DUP2 SUB PUSH2 0x100 DUP5 ADD MSTORE PUSH2 0x3F67 DUP2 DUP6 PUSH2 0x3E84 JUMP JUMPDEST SWAP13 SWAP12 POP POP POP POP POP POP POP POP POP POP POP POP JUMP JUMPDEST PUSH1 0x20 DUP1 DUP3 MSTORE DUP3 MLOAD DUP3 DUP3 ADD DUP2 SWAP1 MSTORE PUSH1 0x0 SWAP2 SWAP1 DUP5 DUP3 ADD SWAP1 PUSH1 0x40 DUP6 ADD SWAP1 DUP5 JUMPDEST DUP2 DUP2 LT ISZERO PUSH2 0x3FB8 JUMPI DUP4 MLOAD PUSH1 0x1 PUSH1 0x1 PUSH1 0xA0 SHL SUB AND DUP4 MSTORE SWAP3 DUP5 ADD SWAP3 SWAP2 DUP5 ADD SWAP2 PUSH1 0x1 ADD PUSH2 0x3F93 JUMP JUMPDEST POP SWAP1 SWAP7 SWAP6 POP POP POP POP POP POP JUMP JUMPDEST PUSH1 0x20 DUP1 DUP3 MSTORE DUP3 MLOAD DUP3 DUP3 ADD DUP2 SWAP1 MSTORE PUSH1 0x0 SWAP2 SWAP1 DUP5 DUP3 ADD SWAP1 PUSH1 0x40 DUP6 ADD SWAP1 DUP5 JUMPDEST DUP2 DUP2 LT ISZERO PUSH2 0x3FB8 JUMPI DUP4 MLOAD DUP4 MSTORE SWAP3 DUP5 ADD SWAP3 SWAP2 DUP5 ADD SWAP2 PUSH1 0x1 ADD PUSH2 0x3FE0 JUMP JUMPDEST SWAP1 ISZERO ISZERO DUP2 MSTORE PUSH1 0x20 ADD SWAP1 JUMP JUMPDEST PUSH1 0x0 PUSH1 0x20 DUP3 MSTORE PUSH2 0x3AE9 PUSH1 0x20 DUP4 ADD DUP5 PUSH2 0x3E84 JUMP JUMPDEST PUSH1 0x20 DUP1 DUP3 MSTORE PUSH1 0x18 SWAP1 DUP3 ADD MSTORE PUSH32 0x4C616E6420496E73706563746F72206E6F7420666F756E640000000000000000 PUSH1 0x40 DUP3 ADD MSTORE PUSH1 0x60 ADD SWAP1 JUMP JUMPDEST PUSH1 0x20 DUP1 DUP3 MSTORE PUSH1 0x31 SWAP1 DUP3 ADD MSTORE PUSH32 0x5061796D656E7420616C726561647920646F6E6520666F722074686973206C61 PUSH1 0x40 DUP3 ADD MSTORE PUSH17 0x1B990B0818D85B9B9BDD081C995A9958DD PUSH1 0x7A SHL PUSH1 0x60 DUP3 ADD MSTORE PUSH1 0x80 ADD SWAP1 JUMP JUMPDEST PUSH1 0x20 DUP1 DUP3 MSTORE PUSH1 0x13 SWAP1 DUP3 ADD MSTORE PUSH19 0x155CD95C881B9BDD081C9959DA5CDD195C9959 PUSH1 0x6A SHL PUSH1 0x40 DUP3 ADD MSTORE PUSH1 0x60 ADD SWAP1 JUMP JUMPDEST PUSH1 0x20 DUP1 DUP3 MSTORE PUSH1 0x19 SWAP1 DUP3 ADD MSTORE PUSH32 0x796F7520617265206E6F7420636F6E74726163744F776E657200000000000000 PUSH1 0x40 DUP3 ADD MSTORE PUSH1 0x60 ADD SWAP1 JUMP JUMPDEST PUSH1 0x20 DUP1 DUP3 MSTORE PUSH1 0x26 SWAP1 DUP3 ADD MSTORE PUSH32 0x4C616E6420696E73706563746F722063616E6E6F742072656769737465722061 PUSH1 0x40 DUP3 ADD MSTORE PUSH6 0x39903AB9B2B9 PUSH1 0xD1 SHL PUSH1 0x60 DUP3 ADD MSTORE PUSH1 0x80 ADD SWAP1 JUMP JUMPDEST PUSH1 0x20 DUP1 DUP3 MSTORE PUSH1 0x19 SWAP1 DUP3 ADD MSTORE PUSH32 0x596F7520617265206E6F7420636F6E74726163744F776E657200000000000000 PUSH1 0x40 DUP3 ADD MSTORE PUSH1 0x60 ADD SWAP1 JUMP JUMPDEST PUSH1 0x20 DUP1 DUP3 MSTORE PUSH1 0x18 SWAP1 DUP3 ADD MSTORE PUSH32 0x546865206C616E64206973206E6F7420666F722073616C650000000000000000 PUSH1 0x40 DUP3 ADD MSTORE PUSH1 0x60 ADD SWAP1 JUMP JUMPDEST PUSH1 0x20 DUP1 DUP3 MSTORE PUSH1 0x26 SWAP1 DUP3 ADD MSTORE PUSH32 0x55736572206E6F74207665726966696564206F72206C616E64206E6F74207665 PUSH1 0x40 DUP3 ADD MSTORE PUSH6 0x1C9A599A5959 PUSH1 0xD2 SHL PUSH1 0x60 DUP3 ADD MSTORE PUSH1 0x80 ADD SWAP1 JUMP JUMPDEST PUSH1 0x20 DUP1 DUP3 MSTORE PUSH1 0x2E SWAP1 DUP3 ADD MSTORE PUSH32 0x5265717565737420666F722074686973206C616E6420616C7265616479207365 PUSH1 0x40 DUP3 ADD MSTORE PUSH14 0x373A10313C903A3432903AB9B2B9 PUSH1 0x91 SHL PUSH1 0x60 DUP3 ADD MSTORE PUSH1 0x80 ADD SWAP1 JUMP JUMPDEST PUSH1 0x20 DUP1 DUP3 MSTORE PUSH1 0x15 SWAP1 DUP3 ADD MSTORE PUSH21 0x151A1A5CC81D5CD95C881A5CC81C995A9958DD1959 PUSH1 0x5A SHL PUSH1 0x40 DUP3 ADD MSTORE PUSH1 0x60 ADD SWAP1 JUMP JUMPDEST PUSH1 0x20 DUP1 DUP3 MSTORE PUSH1 0x27 SWAP1 DUP3 ADD MSTORE PUSH32 0x4F6E6C7920746865206C616E64206F776E65722063616E2063616E63656C2074 PUSH1 0x40 DUP3 ADD MSTORE PUSH7 0x68652073616C65 PUSH1 0xC8 SHL PUSH1 0x60 DUP3 ADD MSTORE PUSH1 0x80 ADD SWAP1 JUMP JUMPDEST PUSH1 0x20 DUP1 DUP3 MSTORE PUSH1 0x26 SWAP1 DUP3 ADD MSTORE PUSH32 0x4F6E6C79206C616E6420696E73706563746F72732063616E2072656A65637420 PUSH1 0x40 DUP3 ADD MSTORE PUSH6 0x18481B185B99 PUSH1 0xD2 SHL PUSH1 0x60 DUP3 ADD MSTORE PUSH1 0x80 ADD SWAP1 JUMP JUMPDEST PUSH1 0x20 DUP1 DUP3 MSTORE PUSH1 0x18 SWAP1 DUP3 ADD MSTORE PUSH32 0x4C616E6420697320616C72656164792076657269666965640000000000000000 PUSH1 0x40 DUP3 ADD MSTORE PUSH1 0x60 ADD SWAP1 JUMP JUMPDEST PUSH1 0x20 DUP1 DUP3 MSTORE PUSH1 0x31 SWAP1 DUP3 ADD MSTORE PUSH32 0x5061796D656E7420616C726561647920646F6E6520666F722074686973206C61 PUSH1 0x40 DUP3 ADD MSTORE PUSH17 0x1B990B0818D85B9B9BDD0818D85B98D95B PUSH1 0x7A SHL PUSH1 0x60 DUP3 ADD MSTORE PUSH1 0x80 ADD SWAP1 JUMP JUMPDEST PUSH1 0x20 DUP1 DUP3 MSTORE PUSH1 0xB SWAP1 DUP3 ADD MSTORE PUSH11 0x4E65772061646472657373 PUSH1 0xA8 SHL PUSH1 0x40 DUP3 ADD MSTORE PUSH1 0x60 ADD SWAP1 JUMP JUMPDEST PUSH1 0x20 DUP1 DUP3 MSTORE PUSH1 0x2B SWAP1 DUP3 ADD MSTORE PUSH32 0x4C616E642068617320612061636365707465642072657175657374206F722070 PUSH1 0x40 DUP3 ADD MSTORE PUSH11 0x61796D656E7420646F6E65 PUSH1 0xA8 SHL PUSH1 0x60 DUP3 ADD MSTORE PUSH1 0x80 ADD SWAP1 JUMP JUMPDEST SWAP1 DUP2 MSTORE PUSH1 0x20 ADD SWAP1 JUMP JUMPDEST DUP8 DUP2 MSTORE PUSH1 0x1 PUSH1 0x1 PUSH1 0xA0 SHL SUB DUP8 DUP2 AND PUSH1 0x20 DUP4 ADD MSTORE DUP7 AND PUSH1 0x40 DUP3 ADD MSTORE PUSH1 0x60 DUP2 ADD DUP6 SWAP1 MSTORE PUSH1 0xE0 PUSH1 0x80 DUP3 ADD DUP2 SWAP1 MSTORE PUSH1 0x0 SWAP1 PUSH2 0x4444 SWAP1 DUP4 ADD DUP7 PUSH2 0x3E84 JUMP JUMPDEST SWAP1 POP PUSH1 0x5 DUP5 LT PUSH2 0x4464 JUMPI PUSH4 0x4E487B71 PUSH1 0xE0 SHL PUSH1 0x0 MSTORE PUSH1 0x21 PUSH1 0x4 MSTORE PUSH1 0x24 PUSH1 0x0 REVERT JUMPDEST DUP4 PUSH1 0xA0 DUP4 ADD MSTORE DUP3 ISZERO ISZERO PUSH1 0xC0 DUP4 ADD MSTORE SWAP9 SWAP8 POP POP POP POP POP POP POP POP JUMP JUMPDEST DUP8 DUP2 MSTORE PUSH1 0x1 PUSH1 0x1 PUSH1 0xA0 SHL SUB DUP8 AND PUSH1 0x20 DUP3 ADD MSTORE PUSH1 0xE0 PUSH1 0x40 DUP3 ADD DUP2 SWAP1 MSTORE PUSH1 0x0 SWAP1 PUSH2 0x44A8 SWAP1 DUP4 ADD DUP9 PUSH2 0x3E84 JUMP JUMPDEST DUP7 PUSH1 0x60 DUP5 ADD MSTORE DUP6 PUSH1 0x80 DUP5 ADD MSTORE DUP3 DUP2 SUB PUSH1 0xA0 DUP5 ADD MSTORE PUSH2 0x44C6 DUP2 DUP7 PUSH2 0x3E84 JUMP JUMPDEST SWAP1 POP DUP3 DUP2 SUB PUSH1 0xC0 DUP5 ADD MSTORE PUSH2 0x44DA DUP2 DUP6 PUSH2 0x3E84 JUMP JUMPDEST SWAP11 SWAP10 POP POP POP POP POP POP POP POP POP POP JUMP JUMPDEST SWAP2 DUP3 MSTORE PUSH1 0x20 DUP3 ADD MSTORE PUSH1 0x40 ADD SWAP1 JUMP JUMPDEST PUSH1 0x0 PUSH2 0x180 DUP15 DUP4 MSTORE DUP14 PUSH1 0x20 DUP5 ADD MSTORE DUP1 PUSH1 0x40 DUP5 ADD MSTORE PUSH2 0x4516 DUP2 DUP5 ADD DUP15 PUSH2 0x3E84 JUMP JUMPDEST SWAP1 POP DUP12 PUSH1 0x60 DUP5 ADD MSTORE DUP3 DUP2 SUB PUSH1 0x80 DUP5 ADD MSTORE PUSH2 0x4530 DUP2 DUP13 PUSH2 0x3E84 JUMP JUMPDEST SWAP1 POP DUP10 PUSH1 0xA0 DUP5 ADD MSTORE DUP3 DUP2 SUB PUSH1 0xC0 DUP5 ADD MSTORE PUSH2 0x454A DUP2 DUP11 PUSH2 0x3E84 JUMP JUMPDEST SWAP1 POP DUP3 DUP2 SUB PUSH1 0xE0 DUP5 ADD MSTORE PUSH2 0x455E DUP2 DUP10 PUSH2 0x3E84 JUMP JUMPDEST SWAP1 POP DUP3 DUP2 SUB PUSH2 0x100 DUP5 ADD MSTORE PUSH2 0x4573 DUP2 DUP9 PUSH2 0x3E84 JUMP JUMPDEST SWAP2 POP POP DUP5 ISZERO ISZERO PUSH2 0x120 DUP4 ADD MSTORE PUSH2 0x458D PUSH2 0x140 DUP4 ADD DUP6 PUSH2 0x3E71 JUMP JUMPDEST PUSH2 0x459B PUSH2 0x160 DUP4 ADD DUP5 PUSH2 0x3E7E JUMP JUMPDEST SWAP14 SWAP13 POP POP POP POP POP POP POP POP POP POP POP POP POP JUMP JUMPDEST PUSH1 0x0 DUP3 NOT DUP3 GT ISZERO PUSH2 0x45BF JUMPI PUSH2 0x45BF PUSH2 0x4670 JUMP JUMPDEST POP ADD SWAP1 JUMP JUMPDEST PUSH1 0x0 DUP3 PUSH2 0x45DF JUMPI PUSH4 0x4E487B71 PUSH1 0xE0 SHL DUP2 MSTORE PUSH1 0x12 PUSH1 0x4 MSTORE PUSH1 0x24 DUP2 REVERT JUMPDEST POP DIV SWAP1 JUMP JUMPDEST PUSH1 0x0 DUP2 PUSH1 0x0 NOT DIV DUP4 GT DUP3 ISZERO ISZERO AND ISZERO PUSH2 0x45FE JUMPI PUSH2 0x45FE PUSH2 0x4670 JUMP JUMPDEST POP MUL SWAP1 JUMP JUMPDEST PUSH1 0x0 DUP3 DUP3 LT ISZERO PUSH2 0x4615 JUMPI PUSH2 0x4615 PUSH2 0x4670 JUMP JUMPDEST POP SUB SWAP1 JUMP JUMPDEST PUSH1 0x2 DUP2 DIV PUSH1 0x1 DUP3 AND DUP1 PUSH2 0x462E JUMPI PUSH1 0x7F DUP3 AND SWAP2 POP JUMPDEST PUSH1 0x20 DUP3 LT DUP2 EQ ISZERO PUSH2 0x464F JUMPI PUSH4 0x4E487B71 PUSH1 0xE0 SHL PUSH1 0x0 MSTORE PUSH1 0x22 PUSH1 0x4 MSTORE PUSH1 0x24 PUSH1 0x0 REVERT JUMPDEST POP SWAP2 SWAP1 POP JUMP JUMPDEST PUSH1 0x0 PUSH1 0x0 NOT DUP3 EQ ISZERO PUSH2 0x4669 JUMPI PUSH2 0x4669 PUSH2 0x4670 JUMP JUMPDEST POP PUSH1 0x1 ADD SWAP1 JUMP JUMPDEST PUSH4 0x4E487B71 PUSH1 0xE0 SHL PUSH1 0x0 MSTORE PUSH1 0x11 PUSH1 0x4 MSTORE PUSH1 0x24 PUSH1 0x0 REVERT JUMPDEST PUSH4 0x4E487B71 PUSH1 0xE0 SHL PUSH1 0x0 MSTORE PUSH1 0x41 PUSH1 0x4 MSTORE PUSH1 0x24 PUSH1 0x0 REVERT JUMPDEST PUSH1 0x1 PUSH1 0x1 PUSH1 0xA0 SHL SUB DUP2 AND DUP2 EQ PUSH2 0x3A1A JUMPI PUSH1 0x0 DUP1 REVERT INVALID 0xD4 0x21 0xA5 XOR SHR JUMPI SHL 0xBA EXTCODEHASH ADD NOT 0xC SWAP3 0x2C EXTCODESIZE 0x2A DUP10 PUSH16 0xC1D84E86C9F17AC10E67EBEF8B5C4155 0xC2 0xF7 GT CALLCODE 0xCD 0xD3 0x4F DUP3 PUSH3 0xAB8FB9 0xB7 MUL EXP PUSH17 0xFE7B6948222152F7670D1FDF34DAD67D7 JUMPI 0xC3 GASLIMIT SMOD CALL JUMPI 0xCA 0xCF LOG2 0xE3 ISZERO RETURNDATACOPY SWAP16 0x26 EXP 0x22 DIFFICULTY RETURN DIV 0x28 DUP3 SHL 0xE7 0xBE PUSH5 0x587AC55FA2 PUSH5 0x6970667358 0x22 SLT KECCAK256 STATICCALL PUSH3 0x795442 0xC0 0xDB 0xF 0xD0 SWAP13 PUSH27 0xC2D58386B2E0A254BDBD74B8ED4C51ACB43F334C4664736F6C6343 STOP ADDMOD STOP STOP CALLER "},"methodIdentifiers":{"InspectorMapping(address)":"64efa002","LandRequestMapping(uint256)":"b10a30ed","ReturnAllLandIncpectorList()":"d251839b","ReturnAllLandList()":"23393d77","ReturnAllUserList()":"553a998d","UserMapping(address)":"d61ff68c","acceptRequest(uint256)":"4ba1f098","addLand(uint256,string,uint256,string,uint256,string,string,string)":"416f958f","addLandInspector(address,string,uint256,uint256,string,string)":"22748ab0","cancelLandSale(uint256)":"e87596c0","changeContractOwner(address)":"3ead67b5","chnageLandPrice(uint256,uint256)":"592a3fcf","documentId()":"78f7c83f","getTotalLands()":"842e7dba","getTotalPaymentDoneLands()":"5eb43181","getTotalRegisteredLands()":"14417707","getTotalRequests()":"f0e22d52","getTotalUnverifiedLands()":"27c3d3ad","getTotalUnverifiedUsers()":"864f4a4b","getTotalVerifiedUsers()":"8c1f3a8c","getUserProfilePic(address)":"6727d827","inspectorsCount()":"941e2426","isContractOwner(address)":"de117688","isLandInspector(address)":"e165af87","isLandVerified(uint256)":"6cbf6cf8","isUserRegistered(address)":"163f7522","isUserRejected(address)":"fa1e178e","isUserVerified(address)":"ace417e0","landPrice(uint256)":"d72ca9ec","lands(uint256)":"e261f1e5","landsCount()":"1c9afd0f","makeItforSell(uint256)":"c26e11eb","makePayment(address,uint256)":"f98cf07c","myAllLands(address)":"d196ebf2","myReceivedLandRequests()":"499701b2","mySentLandRequests()":"9c32e3b4","registerUser(string,uint256,string,string,string,string,string)":"edfbe247","rejectAndRemoveLand(uint256)":"9684806d","rejectRequest(uint256)":"2d7788db","rejectUser(address)":"4dc92885","rejectedUsers(address)":"71b5d9ed","removeLandInspector(address)":"7517e00f","requestCount()":"5badbe4c","requesteStatus(uint256)":"d8513de4","requestforBuy(uint256,string)":"693f3231","returnPaymentDoneList()":"a846fc8f","setProfilePic(string)":"011f2cce","transferOwnership(uint256,string)":"fa024549","userCount()":"07973ccf","userLandRequestSent(address,uint256)":"8570c300","verifyLand(uint256)":"f9c43bdf","verifyUser(address)":"4d813120"}}}}}