{
  "_format": "hh-sol-artifact-1",
  "contractName": "landregistry",
  "sourceName": "contracts/landregistry.sol",
  "abi": [
    {
      "inputs": [],
      "stateMutability": "nonpayable",
      "type": "constructor"
    },
    {
      "anonymous": false,
      "inputs": [
        {
          "indexed": true,
          "internalType": "uint256",
          "name": "landId",
          "type": "uint256"
        },
        {
          "indexed": true,
          "internalType": "address",
          "name": "inspector",
          "type": "address"
        }
      ],
      "name": "LandRejected",
      "type": "event"
    },
    {
      "anonymous": false,
      "inputs": [
        {
          "indexed": true,
          "internalType": "address",
          "name": "buyer",
          "type": "address"
        },
        {
          "indexed": true,
          "internalType": "address",
          "name": "seller",
          "type": "address"
        },
        {
          "indexed": false,
          "internalType": "uint256",
          "name": "landPrice",
          "type": "uint256"
        },
        {
          "indexed": false,
          "internalType": "uint256",
          "name": "amountPaid",
          "type": "uint256"
        }
      ],
      "name": "Purchase",
      "type": "event"
    },
    {
      "inputs": [
        {
          "internalType": "address",
          "name": "",
          "type": "address"
        }
      ],
      "name": "InspectorMapping",
      "outputs": [
        {
          "internalType": "uint256",
          "name": "id",
          "type": "uint256"
        },
        {
          "internalType": "address",
          "name": "_addr",
          "type": "address"
        },
        {
          "internalType": "string",
          "name": "name",
          "type": "string"
        },
        {
          "internalType": "uint256",
          "name": "cnic",
          "type": "uint256"
        },
        {
          "internalType": "uint256",
          "name": "age",
          "type": "uint256"
        },
        {
          "internalType": "string",
          "name": "designation",
          "type": "string"
        },
        {
          "internalType": "string",
          "name": "city",
          "type": "string"
        }
      ],
      "stateMutability": "view",
      "type": "function"
    },
    {
      "inputs": [
        {
          "internalType": "uint256",
          "name": "",
          "type": "uint256"
        }
      ],
      "name": "LandRequestMapping",
      "outputs": [
        {
          "internalType": "uint256",
          "name": "reqId",
          "type": "uint256"
        },
        {
          "internalType": "address payable",
          "name": "sellerId",
          "type": "address"
        },
        {
          "internalType": "address payable",
          "name": "buyerId",
          "type": "address"
        },
        {
          "internalType": "uint256",
          "name": "landId",
          "type": "uint256"
        },
        {
          "internalType": "string",
          "name": "buyerMessage",
          "type": "string"
        },
        {
          "internalType": "enum landregistry.reqStatus",
          "name": "requestStatus",
          "type": "uint8"
        },
        {
          "internalType": "bool",
          "name": "isPaymentDone",
          "type": "bool"
        }
      ],
      "stateMutability": "view",
      "type": "function"
    },
    {
      "inputs": [],
      "name": "ReturnAllLandIncpectorList",
      "outputs": [
        {
          "internalType": "address[]",
          "name": "",
          "type": "address[]"
        }
      ],
      "stateMutability": "view",
      "type": "function"
    },
    {
      "inputs": [],
      "name": "ReturnAllLandList",
      "outputs": [
        {
          "internalType": "uint256[]",
          "name": "",
          "type": "uint256[]"
        }
      ],
      "stateMutability": "view",
      "type": "function"
    },
    {
      "inputs": [],
      "name": "ReturnAllUserList",
      "outputs": [
        {
          "internalType": "address[]",
          "name": "",
          "type": "address[]"
        }
      ],
      "stateMutability": "view",
      "type": "function"
    },
    {
      "inputs": [
        {
          "internalType": "address",
          "name": "",
          "type": "address"
        }
      ],
      "name": "UserMapping",
      "outputs": [
        {
          "internalType": "address",
          "name": "id",
          "type": "address"
        },
        {
          "internalType": "string",
          "name": "name",
          "type": "string"
        },
        {
          "internalType": "uint256",
          "name": "age",
          "type": "uint256"
        },
        {
          "internalType": "string",
          "name": "city",
          "type": "string"
        },
        {
          "internalType": "string",
          "name": "cinc",
          "type": "string"
        },
        {
          "internalType": "string",
          "name": "document",
          "type": "string"
        },
        {
          "internalType": "string",
          "name": "email",
          "type": "string"
        },
        {
          "internalType": "bool",
          "name": "isUserVerified",
          "type": "bool"
        },
        {
          "internalType": "string",
          "name": "profilePic",
          "type": "string"
        }
      ],
      "stateMutability": "view",
      "type": "function"
    },
    {
      "inputs": [
        {
          "internalType": "uint256",
          "name": "_requestId",
          "type": "uint256"
        }
      ],
      "name": "acceptRequest",
      "outputs": [],
      "stateMutability": "nonpayable",
      "type": "function"
    },
    {
      "inputs": [
        {
          "internalType": "uint256",
          "name": "_area",
          "type": "uint256"
        },
        {
          "internalType": "string",
          "name": "_address",
          "type": "string"
        },
        {
          "internalType": "uint256",
          "name": "_landPrice",
          "type": "uint256"
        },
        {
          "internalType": "string",
          "name": "_allLatiLongi",
          "type": "string"
        },
        {
          "internalType": "uint256",
          "name": "_propertyPID",
          "type": "uint256"
        },
        {
          "internalType": "string",
          "name": "_surveyNum",
          "type": "string"
        },
        {
          "internalType": "string",
          "name": "_document",
          "type": "string"
        },
        {
          "internalType": "string",
          "name": "_landpic",
          "type": "string"
        }
      ],
      "name": "addLand",
      "outputs": [],
      "stateMutability": "nonpayable",
      "type": "function"
    },
    {
      "inputs": [
        {
          "internalType": "address",
          "name": "_addr",
          "type": "address"
        },
        {
          "internalType": "string",
          "name": "_name",
          "type": "string"
        },
        {
          "internalType": "uint256",
          "name": "_cnic",
          "type": "uint256"
        },
        {
          "internalType": "uint256",
          "name": "_age",
          "type": "uint256"
        },
        {
          "internalType": "string",
          "name": "_designation",
          "type": "string"
        },
        {
          "internalType": "string",
          "name": "_city",
          "type": "string"
        }
      ],
      "name": "addLandInspector",
      "outputs": [
        {
          "internalType": "bool",
          "name": "",
          "type": "bool"
        }
      ],
      "stateMutability": "nonpayable",
      "type": "function"
    },
    {
      "inputs": [
        {
          "internalType": "uint256",
          "name": "_landId",
          "type": "uint256"
        }
      ],
      "name": "cancelLandSale",
      "outputs": [],
      "stateMutability": "nonpayable",
      "type": "function"
    },
    {
      "inputs": [
        {
          "internalType": "address",
          "name": "_addr",
          "type": "address"
        }
      ],
      "name": "changeContractOwner",
      "outputs": [],
      "stateMutability": "nonpayable",
      "type": "function"
    },
    {
      "inputs": [
        {
          "internalType": "uint256",
          "name": "_landId",
          "type": "uint256"
        },
        {
          "internalType": "uint256",
          "name": "_price",
          "type": "uint256"
        }
      ],
      "name": "chnageLandPrice",
      "outputs": [],
      "stateMutability": "nonpayable",
      "type": "function"
    },
    {
      "inputs": [],
      "name": "documentId",
      "outputs": [
        {
          "internalType": "uint256",
          "name": "",
          "type": "uint256"
        }
      ],
      "stateMutability": "view",
      "type": "function"
    },
    {
      "inputs": [],
      "name": "getTotalLands",
      "outputs": [
        {
          "internalType": "uint256",
          "name": "",
          "type": "uint256"
        }
      ],
      "stateMutability": "view",
      "type": "function"
    },
    {
      "inputs": [],
      "name": "getTotalPaymentDoneLands",
      "outputs": [
        {
          "internalType": "uint256",
          "name": "",
          "type": "uint256"
        }
      ],
      "stateMutability": "view",
      "type": "function"
    },
    {
      "inputs": [],
      "name": "getTotalRegisteredLands",
      "outputs": [
        {
          "internalType": "uint256",
          "name": "",
          "type": "uint256"
        }
      ],
      "stateMutability": "view",
      "type": "function"
    },
    {
      "inputs": [],
      "name": "getTotalRequests",
      "outputs": [
        {
          "internalType": "uint256",
          "name": "",
          "type": "uint256"
        }
      ],
      "stateMutability": "view",
      "type": "function"
    },
    {
      "inputs": [],
      "name": "getTotalUnverifiedLands",
      "outputs": [
        {
          "internalType": "uint256",
          "name": "",
          "type": "uint256"
        }
      ],
      "stateMutability": "view",
      "type": "function"
    },
    {
      "inputs": [],
      "name": "getTotalUnverifiedUsers",
      "outputs": [
        {
          "internalType": "uint256",
          "name": "",
          "type": "uint256"
        }
      ],
      "stateMutability": "view",
      "type": "function"
    },
    {
      "inputs": [],
      "name": "getTotalVerifiedUsers",
      "outputs": [
        {
          "internalType": "uint256",
          "name": "",
          "type": "uint256"
        }
      ],
      "stateMutability": "view",
      "type": "function"
    },
    {
      "inputs": [
        {
          "internalType": "address",
          "name": "id",
          "type": "address"
        }
      ],
      "name": "getUserProfilePic",
      "outputs": [
        {
          "internalType": "string",
          "name": "",
          "type": "string"
        }
      ],
      "stateMutability": "view",
      "type": "function"
    },
    {
      "inputs": [],
      "name": "inspectorsCount",
      "outputs": [
        {
          "internalType": "uint256",
          "name": "",
          "type": "uint256"
        }
      ],
      "stateMutability": "view",
      "type": "function"
    },
    {
      "inputs": [
        {
          "internalType": "address",
          "name": "_addr",
          "type": "address"
        }
      ],
      "name": "isContractOwner",
      "outputs": [
        {
          "internalType": "bool",
          "name": "",
          "type": "bool"
        }
      ],
      "stateMutability": "view",
      "type": "function"
    },
    {
      "inputs": [
        {
          "internalType": "address",
          "name": "_id",
          "type": "address"
        }
      ],
      "name": "isLandInspector",
      "outputs": [
        {
          "internalType": "bool",
          "name": "",
          "type": "bool"
        }
      ],
      "stateMutability": "view",
      "type": "function"
    },
    {
      "inputs": [
        {
          "internalType": "uint256",
          "name": "id",
          "type": "uint256"
        }
      ],
      "name": "isLandVerified",
      "outputs": [
        {
          "internalType": "bool",
          "name": "",
          "type": "bool"
        }
      ],
      "stateMutability": "view",
      "type": "function"
    },
    {
      "inputs": [
        {
          "internalType": "address",
          "name": "_addr",
          "type": "address"
        }
      ],
      "name": "isUserRegistered",
      "outputs": [
        {
          "internalType": "bool",
          "name": "",
          "type": "bool"
        }
      ],
      "stateMutability": "view",
      "type": "function"
    },
    {
      "inputs": [
        {
          "internalType": "address",
          "name": "_addr",
          "type": "address"
        }
      ],
      "name": "isUserRejected",
      "outputs": [
        {
          "internalType": "bool",
          "name": "",
          "type": "bool"
        }
      ],
      "stateMutability": "view",
      "type": "function"
    },
    {
      "inputs": [
        {
          "internalType": "address",
          "name": "id",
          "type": "address"
        }
      ],
      "name": "isUserVerified",
      "outputs": [
        {
          "internalType": "bool",
          "name": "",
          "type": "bool"
        }
      ],
      "stateMutability": "view",
      "type": "function"
    },
    {
      "inputs": [
        {
          "internalType": "uint256",
          "name": "id",
          "type": "uint256"
        }
      ],
      "name": "landPrice",
      "outputs": [
        {
          "internalType": "uint256",
          "name": "",
          "type": "uint256"
        }
      ],
      "stateMutability": "view",
      "type": "function"
    },
    {
      "inputs": [
        {
          "internalType": "uint256",
          "name": "",
          "type": "uint256"
        }
      ],
      "name": "lands",
      "outputs": [
        {
          "internalType": "uint256",
          "name": "id",
          "type": "uint256"
        },
        {
          "internalType": "uint256",
          "name": "area",
          "type": "uint256"
        },
        {
          "internalType": "string",
          "name": "landAddress",
          "type": "string"
        },
        {
          "internalType": "uint256",
          "name": "landPrice",
          "type": "uint256"
        },
        {
          "internalType": "string",
          "name": "allLatitudeLongitude",
          "type": "string"
        },
        {
          "internalType": "uint256",
          "name": "propertyPID",
          "type": "uint256"
        },
        {
          "internalType": "string",
          "name": "physicalSurveyNumber",
          "type": "string"
        },
        {
          "internalType": "string",
          "name": "document",
          "type": "string"
        },
        {
          "internalType": "string",
          "name": "landpic",
          "type": "string"
        },
        {
          "internalType": "bool",
          "name": "isforSell",
          "type": "bool"
        },
        {
          "internalType": "address payable",
          "name": "ownerAddress",
          "type": "address"
        },
        {
          "internalType": "bool",
          "name": "isLandVerified",
          "type": "bool"
        }
      ],
      "stateMutability": "view",
      "type": "function"
    },
    {
      "inputs": [],
      "name": "landsCount",
      "outputs": [
        {
          "internalType": "uint256",
          "name": "",
          "type": "uint256"
        }
      ],
      "stateMutability": "view",
      "type": "function"
    },
    {
      "inputs": [
        {
          "internalType": "uint256",
          "name": "id",
          "type": "uint256"
        }
      ],
      "name": "makeItforSell",
      "outputs": [],
      "stateMutability": "nonpayable",
      "type": "function"
    },
    {
      "inputs": [
        {
          "internalType": "address payable",
          "name": "_receiver",
          "type": "address"
        },
        {
          "internalType": "uint256",
          "name": "_requestId",
          "type": "uint256"
        }
      ],
      "name": "makePayment",
      "outputs": [],
      "stateMutability": "payable",
      "type": "function"
    },
    {
      "inputs": [
        {
          "internalType": "address",
          "name": "id",
          "type": "address"
        }
      ],
      "name": "myAllLands",
      "outputs": [
        {
          "internalType": "uint256[]",
          "name": "",
          "type": "uint256[]"
        }
      ],
      "stateMutability": "view",
      "type": "function"
    },
    {
      "inputs": [],
      "name": "myReceivedLandRequests",
      "outputs": [
        {
          "internalType": "uint256[]",
          "name": "",
          "type": "uint256[]"
        }
      ],
      "stateMutability": "view",
      "type": "function"
    },
    {
      "inputs": [],
      "name": "mySentLandRequests",
      "outputs": [
        {
          "internalType": "uint256[]",
          "name": "",
          "type": "uint256[]"
        }
      ],
      "stateMutability": "view",
      "type": "function"
    },
    {
      "inputs": [
        {
          "internalType": "string",
          "name": "_name",
          "type": "string"
        },
        {
          "internalType": "uint256",
          "name": "_age",
          "type": "uint256"
        },
        {
          "internalType": "string",
          "name": "_city",
          "type": "string"
        },
        {
          "internalType": "string",
          "name": "_cinc",
          "type": "string"
        },
        {
          "internalType": "string",
          "name": "_document",
          "type": "string"
        },
        {
          "internalType": "string",
          "name": "_profilePic",
          "type": "string"
        },
        {
          "internalType": "string",
          "name": "_email",
          "type": "string"
        }
      ],
      "name": "registerUser",
      "outputs": [],
      "stateMutability": "nonpayable",
      "type": "function"
    },
    {
      "inputs": [
        {
          "internalType": "uint256",
          "name": "_landId",
          "type": "uint256"
        }
      ],
      "name": "rejectAndRemoveLand",
      "outputs": [],
      "stateMutability": "nonpayable",
      "type": "function"
    },
    {
      "inputs": [
        {
          "internalType": "uint256",
          "name": "_requestId",
          "type": "uint256"
        }
      ],
      "name": "rejectRequest",
      "outputs": [],
      "stateMutability": "nonpayable",
      "type": "function"
    },
    {
      "inputs": [
        {
          "internalType": "address",
          "name": "_userId",
          "type": "address"
        }
      ],
      "name": "rejectUser",
      "outputs": [],
      "stateMutability": "nonpayable",
      "type": "function"
    },
    {
      "inputs": [
        {
          "internalType": "address",
          "name": "",
          "type": "address"
        }
      ],
      "name": "rejectedUsers",
      "outputs": [
        {
          "internalType": "bool",
          "name": "",
          "type": "bool"
        }
      ],
      "stateMutability": "view",
      "type": "function"
    },
    {
      "inputs": [
        {
          "internalType": "address",
          "name": "_addr",
          "type": "address"
        }
      ],
      "name": "removeLandInspector",
      "outputs": [],
      "stateMutability": "nonpayable",
      "type": "function"
    },
    {
      "inputs": [],
      "name": "requestCount",
      "outputs": [
        {
          "internalType": "uint256",
          "name": "",
          "type": "uint256"
        }
      ],
      "stateMutability": "view",
      "type": "function"
    },
    {
      "inputs": [
        {
          "internalType": "uint256",
          "name": "id",
          "type": "uint256"
        }
      ],
      "name": "requesteStatus",
      "outputs": [
        {
          "internalType": "bool",
          "name": "",
          "type": "bool"
        }
      ],
      "stateMutability": "view",
      "type": "function"
    },
    {
      "inputs": [
        {
          "internalType": "uint256",
          "name": "_landId",
          "type": "uint256"
        },
        {
          "internalType": "string",
          "name": "_message",
          "type": "string"
        }
      ],
      "name": "requestforBuy",
      "outputs": [],
      "stateMutability": "nonpayable",
      "type": "function"
    },
    {
      "inputs": [],
      "name": "returnPaymentDoneList",
      "outputs": [
        {
          "internalType": "uint256[]",
          "name": "",
          "type": "uint256[]"
        }
      ],
      "stateMutability": "view",
      "type": "function"
    },
    {
      "inputs": [
        {
          "internalType": "string",
          "name": "_profilePic",
          "type": "string"
        }
      ],
      "name": "setProfilePic",
      "outputs": [],
      "stateMutability": "nonpayable",
      "type": "function"
    },
    {
      "inputs": [
        {
          "internalType": "uint256",
          "name": "_requestId",
          "type": "uint256"
        },
        {
          "internalType": "string",
          "name": "documentUrl",
          "type": "string"
        }
      ],
      "name": "transferOwnership",
      "outputs": [
        {
          "internalType": "bool",
          "name": "",
          "type": "bool"
        }
      ],
      "stateMutability": "nonpayable",
      "type": "function"
    },
    {
      "inputs": [],
      "name": "userCount",
      "outputs": [
        {
          "internalType": "uint256",
          "name": "",
          "type": "uint256"
        }
      ],
      "stateMutability": "view",
      "type": "function"
    },
    {
      "inputs": [
        {
          "internalType": "address",
          "name": "",
          "type": "address"
        },
        {
          "internalType": "uint256",
          "name": "",
          "type": "uint256"
        }
      ],
      "name": "userLandRequestSent",
      "outputs": [
        {
          "internalType": "bool",
          "name": "",
          "type": "bool"
        }
      ],
      "stateMutability": "view",
      "type": "function"
    },
    {
      "inputs": [
        {
          "internalType": "uint256",
          "name": "_id",
          "type": "uint256"
        }
      ],
      "name": "verifyLand",
      "outputs": [],
      "stateMutability": "nonpayable",
      "type": "function"
    },
    {
      "inputs": [
        {
          "internalType": "address",
          "name": "_userId",
          "type": "address"
        }
      ],
      "name": "verifyUser",
      "outputs": [],
      "stateMutability": "nonpayable",
      "type": "function"
    },
    {
      "stateMutability": "payable",
      "type": "receive"
    }
  ],
  "bytecode": "0x608060405234801561001057600080fd5b50600080546001600160a01b03191633179055614747806100326000396000f3fe6080604052600436106103035760003560e01c8063842e7dba11610190578063d61ff68c116100dc578063e87596c011610095578063f98cf07c1161006f578063f98cf07c146108d3578063f9c43bdf146108e6578063fa02454914610906578063fa1e178e146109265761030a565b8063e87596c01461087e578063edfbe2471461089e578063f0e22d52146108be5761030a565b8063d61ff68c14610791578063d72ca9ec146107c6578063d8513de4146107e6578063de11768814610806578063e165af8714610826578063e261f1e5146108465761030a565b80639c32e3b411610149578063b10a30ed11610123578063b10a30ed14610709578063c26e11eb1461073c578063d196ebf21461075c578063d251839b1461077c5761030a565b80639c32e3b4146106bf578063a846fc8f146106d4578063ace417e0146106e95761030a565b8063842e7dba1461035c5780638570c30014610640578063864f4a4b146106605780638c1f3a8c14610675578063941e24261461068a5780639684806d1461069f5761030a565b80634d8131201161024f57806364efa002116102085780636cbf6cf8116101e25780636cbf6cf8146105cb57806371b5d9ed146105eb5780637517e00f1461060b57806378f7c83f1461062b5761030a565b806364efa0021461054b5780636727d8271461057e578063693f3231146105ab5761030a565b80634d8131201461049f5780634dc92885146104bf578063553a998d146104df578063592a3fcf146105015780635badbe4c146105215780635eb43181146105365761030a565b806323393d77116102bc5780633ead67b5116102965780633ead67b51461042a578063416f958f1461044a578063499701b21461046a5780634ba1f0981461047f5761030a565b806323393d77146103d357806327c3d3ad146103f55780632d7788db1461040a5761030a565b8063011f2cce1461030f57806307973ccf14610331578063144177071461035c578063163f7522146103715780631c9afd0f1461039e57806322748ab0146103b35761030a565b3661030a57005b600080fd5b34801561031b57600080fd5b5061032f61032a366004613bd6565b610946565b005b34801561033d57600080fd5b506103466109ad565b6040516103539190614402565b60405180910390f35b34801561036857600080fd5b506103466109b3565b34801561037d57600080fd5b5061039161038c366004613acd565b6109b9565b6040516103539190613ffc565b3480156103aa57600080fd5b506103466109eb565b3480156103bf57600080fd5b506103916103ce366004613b1b565b6109f1565b3480156103df57600080fd5b506103e8610b94565b6040516103539190613fc4565b34801561040157600080fd5b50610346610c02565b34801561041657600080fd5b5061032f610425366004613d0a565b610c57565b34801561043657600080fd5b5061032f610445366004613acd565b610d2e565b34801561045657600080fd5b5061032f610465366004613d67565b610d7a565b34801561047657600080fd5b506103e8610faa565b34801561048b57600080fd5b5061032f61049a366004613d0a565b611009565b3480156104ab57600080fd5b5061032f6104ba366004613acd565b61107f565b3480156104cb57600080fd5b5061032f6104da366004613acd565b6110f3565b3480156104eb57600080fd5b506104f4611595565b6040516103539190613f77565b34801561050d57600080fd5b5061032f61051c366004613e50565b61160c565b34801561052d57600080fd5b5061034661179b565b34801561054257600080fd5b506103466117a1565b34801561055757600080fd5b5061056b610566366004613acd565b6117d0565b604051610353979695949392919061447e565b34801561058a57600080fd5b5061059e610599366004613acd565b6119ad565b6040516103539190614007565b3480156105b757600080fd5b5061032f6105c6366004613d22565b611a98565b3480156105d757600080fd5b506103916105e6366004613d0a565b611cac565b3480156105f757600080fd5b50610391610606366004613acd565b611ccb565b34801561061757600080fd5b5061032f610626366004613acd565b611ce0565b34801561063757600080fd5b50610346611f1b565b34801561064c57600080fd5b5061039161065b366004613bc4565b611f21565b34801561066c57600080fd5b50610346611f41565b34801561068157600080fd5b50610346611fb7565b34801561069657600080fd5b5061034661202e565b3480156106ab57600080fd5b5061032f6106ba366004613d0a565b612034565b3480156106cb57600080fd5b506103e8612372565b3480156106e057600080fd5b506103e86123d1565b3480156106f557600080fd5b50610391610704366004613acd565b61244f565b34801561071557600080fd5b50610729610724366004613d0a565b612470565b604051610353979695949392919061440b565b34801561074857600080fd5b5061032f610757366004613d0a565b612548565b34801561076857600080fd5b506103e8610777366004613acd565b612591565b34801561078857600080fd5b506104f46125fc565b34801561079d57600080fd5b506107b16107ac366004613acd565b612672565b60405161035399989796959493929190613ecf565b3480156107d257600080fd5b506103466107e1366004613d0a565b6129fc565b3480156107f257600080fd5b50610391610801366004613d0a565b612a11565b34801561081257600080fd5b50610391610821366004613acd565b612a2e565b34801561083257600080fd5b50610391610841366004613acd565b612a4d565b34801561085257600080fd5b50610866610861366004613d0a565b612a76565b6040516103539c9b9a999897969594939291906144f6565b34801561088a57600080fd5b5061032f610899366004613d0a565b612d89565b3480156108aa57600080fd5b5061032f6108b9366004613c11565b613227565b3480156108ca57600080fd5b50610346613452565b61032f6108e1366004613af0565b613458565b3480156108f257600080fd5b5061032f610901366004613d0a565b61362f565b34801561091257600080fd5b50610391610921366004613d22565b613665565b34801561093257600080fd5b50610391610941366004613acd565b61393c565b336000908152600d602052604090205460ff1615156001146109835760405162461bcd60e51b815260040161097a906140a2565b60405180910390fd5b336000908152600a6020908152604090912082516109a99260089092019184019061395a565b5050565b60025481565b60035490565b6001600160a01b0381166000908152600d602052604081205460ff16156109e2575060016109e6565b5060005b919050565b60035481565b600080546001600160a01b03163314610a1c5760405162461bcd60e51b815260040161097a9061414c565b6001600160a01b03871660009081526009602052604090205460ff1615610a555760405162461bcd60e51b815260040161097a90614392565b6001600160a01b038088166000818152600960209081526040808320805460ff191660019081179091556000805160206146f283398151915280548083019091557f8048725117155ad5ef9cb75f77fbe235a4558a61159f5364c90d55c3a0d15b7a0180546001600160a01b03199081168717909155825160e081018452825481528085018781528185018f8152606083018f9052608083018e905260a083018d905260c083018c9052978752600786529390952085518155925191830180549290971691161790945591518051919392610b389260028501929091019061395a565b50606082015160038201556080820151600482015560a08201518051610b6891600584019160209091019061395a565b5060c08201518051610b8491600684019160209091019061395a565b5060019998505050505050505050565b6001600052601360209081526000805160206146d28339815191528054604080518285028101850190915281815260609390929190830182828015610bf857602002820191906000526020600020905b815481526020019060010190808311610be4575b5050505050905090565b60008060015b6003548111610c51576000818152600f6020526040902060090154600160a81b900460ff16610c3f5781610c3b81614655565b9250505b80610c4981614655565b915050610c08565b50905090565b6000818152601060205260409020600101546001600160a01b03163314610c7d57600080fd5b6000600360008381526010602052604090206005015460ff166004811115610cb557634e487b7160e01b600052602160045260246000fd5b1415610cbf575060015b8015610cdd5760405162461bcd60e51b815260040161097a90614051565b506000908152601060209081526040808320600581018054600260ff199182168117909255908201546001600160a01b03168552601584528285206003909201548552925290912080549091169055565b6000546001600160a01b03163314610d585760405162461bcd60e51b815260040161097a906140cf565b600080546001600160a01b0319166001600160a01b0392909216919091179055565b610d833361244f565b610d8c57600080fd5b60038054906000610d9c83614655565b91905055506040518061018001604052806003548152602001898152602001888152602001670de0b6b3a764000088670de0b6b3a7640000610dde91906145e4565b610de891906145c4565b815260208082018890526040808301889052606083018790526080830186905260a08301859052600060c084018190523360e08501526101009093018390526003548352600f82529182902083518155838201516001820155918301518051610e57926002850192019061395a565b506060820151600382015560808201518051610e7d91600484019160209091019061395a565b5060a0820151600582015560c08201518051610ea391600684019160209091019061395a565b5060e08201518051610ebf91600784019160209091019061395a565b506101008201518051610edc91600884019160209091019061395a565b5061012082015160099091018054610140840151610160909401511515600160a81b0260ff60a81b196001600160a01b0390951661010002610100600160a81b031994151560ff19909316929092179390931617929092161790555050336000908152600e602090815260408220600380548254600181810185559386528486200155601390925290546000805160206146d2833981519152805492830181559092527f3ce2cb385edcbf7185fd469186dd769993781141b215a1a4715ebb7f94fd59ab0155505050505050565b33600090815260116020908152604091829020805483518184028101840190945280845260609392830182828015610bf85760200282019190600052602060002090815481526020019060010190808311610be4575050505050905090565b6000818152601060205260409020600101546001600160a01b0316331461102f57600080fd5b600090815260106020908152604080832060058101805460ff1990811660011790915560028201546001600160a01b03168552601584528285206003909201548552925290912080549091169055565b6110888161393c565b156110a55760405162461bcd60e51b815260040161097a9061424e565b6110ae33612a4d565b6110b757600080fd5b6001600160a01b03166000908152600a60209081526040808320600701805460ff19908116600117909155600690925290912080549091169055565b6110fc33612a4d565b61110557600080fd5b6001600160a01b0381166000908152600a60209081526040808320600701805460ff1990811690915560068352818420805482166001908117909155600d8452918420805490911690558252600c90526000805160206146b283398151915254905b818110156112ff576001600052600c6020526000805160206146b283398151915280546001600160a01b0385169190839081106111b457634e487b7160e01b600052603260045260246000fd5b6000918252602090912001546001600160a01b031614156112ed5760016000819052600c6020526000805160206146b2833981519152906111f59084614603565b8154811061121357634e487b7160e01b600052603260045260246000fd5b60009182526020808320909101546001909252600c90526000805160206146b283398151915280546001600160a01b03909216918390811061126557634e487b7160e01b600052603260045260246000fd5b600091825260208083209190910180546001600160a01b0319166001600160a01b03949094169390931790925560019052600c90526000805160206146b28339815191528054806112c657634e487b7160e01b600052603160045260246000fd5b600082815260209020810160001990810180546001600160a01b03191690550190556112ff565b806112f781614655565b915050611167565b50506001600160a01b0381166000908152600e6020526040812054905b81811015611573576001600160a01b0383166000908152600e6020526040812080548390811061135c57634e487b7160e01b600052603260045260246000fd5b6000918252602080832090910154808352600f90915260408220828155600181018390559092509061139160028301826139de565b60038201600090556004820160006113a991906139de565b60058201600090556006820160006113c191906139de565b6113cf6007830160006139de565b6113dd6008830160006139de565b5060090180546001600160b01b031916905560005b600160005260136020526000805160206146d28339815191525481101561155e57600160005260136020526000805160206146d283398151915280548391908390811061144f57634e487b7160e01b600052603260045260246000fd5b9060005260206000200154141561154c576001600081905260136020526000805160206146d28339815191528054909161148891614603565b815481106114a657634e487b7160e01b600052603260045260246000fd5b60009182526020808320909101546001909252601390526000805160206146d28339815191528054839081106114ec57634e487b7160e01b600052603260045260246000fd5b600091825260208083209091019290925560019052601390526000805160206146d283398151915280548061153157634e487b7160e01b600052603160045260246000fd5b6001900381819060005260206000200160009055905561155e565b8061155681614655565b9150506113f2565b5050808061156b90614655565b91505061131c565b506001600160a01b0382166000908152600e602052604081206109a991613a1d565b6001600052600c60209081526000805160206146b28339815191528054604080518285028101850190915281815260609390929190830182828015610bf857602002820191906000526020600020905b81546001600160a01b031681526001909101906020018083116115e5575050505050905090565b6000828152600f602052604090206009015461010090046001600160a01b0316331461163757600080fd5b6000805b336000908152601160205260409020548110156117455733600090815260116020526040812080548390811061168157634e487b7160e01b600052603260045260246000fd5b906000526020600020015490508460106000838152602001908152602001600020600301541480156117235750600160008281526010602052604090206005015460ff1660048111156116e457634e487b7160e01b600052602160045260246000fd5b14806117235750600360008281526010602052604090206005015460ff16600481111561172157634e487b7160e01b600052602160045260246000fd5b145b15611732576001925050611745565b508061173d81614655565b91505061163b565b5080156117645760405162461bcd60e51b815260040161097a906143b7565b670de0b6b3a764000061177783826145e4565b61178191906145c4565b6000938452600f6020526040909320600301929092555050565b60055481565b600160005260146020527fb6c61a840592cc84133e4b25bd509abf4659307c57b160799b38490a5aa48f2c5490565b60076020526000908152604090208054600182015460028301805492936001600160a01b03909216926118029061461a565b80601f016020809104026020016040519081016040528092919081815260200182805461182e9061461a565b801561187b5780601f106118505761010080835404028352916020019161187b565b820191906000526020600020905b81548152906001019060200180831161185e57829003601f168201915b50505050509080600301549080600401549080600501805461189c9061461a565b80601f01602080910402602001604051908101604052809291908181526020018280546118c89061461a565b80156119155780601f106118ea57610100808354040283529160200191611915565b820191906000526020600020905b8154815290600101906020018083116118f857829003601f168201915b50505050509080600601805461192a9061461a565b80601f01602080910402602001604051908101604052809291908181526020018280546119569061461a565b80156119a35780601f10611978576101008083540402835291602001916119a3565b820191906000526020600020905b81548152906001019060200180831161198657829003601f168201915b5050505050905087565b6001600160a01b0381166000908152600d602052604090205460609060ff1615156001146119ed5760405162461bcd60e51b815260040161097a906140a2565b6001600160a01b0382166000908152600a602052604090206008018054611a139061461a565b80601f0160208091040260200160405190810160405280929190818152602001828054611a3f9061461a565b8015611a8c5780601f10611a6157610100808354040283529160200191611a8c565b820191906000526020600020905b815481529060010190602001808311611a6f57829003601f168201915b50505050509050919050565b611aa13361244f565b8015611ab15750611ab182611cac565b611acd5760405162461bcd60e51b815260040161097a906141ba565b33600090815260156020908152604080832085845290915290205460ff1615611b085760405162461bcd60e51b815260040161097a90614200565b60058054906000611b1883614655565b90915550506040805160e0810182526005548082526000858152600f6020908152848220600901546001600160a01b03610100909104811682860190815233868801908152606087018a8152608088018a815260a0890187905260c0890187905296865260108552979094208651815590516001820180549184166001600160a01b03199283161790559351600282018054919093169416939093179055935160038201559051805192939192611bd5926004850192019061395a565b5060a082015160058201805460ff19166001836004811115611c0757634e487b7160e01b600052602160045260246000fd5b021790555060c091909101516005918201805461ff0019166101009215158302179055336000818152601560209081526040808320978352968152868220805460ff19166001908117909155600f8252878320600901546001600160a01b039590049490941682526011815286822085548154808701835591845282842090910155918152601282529485209254835492830184559285529093209092019190915550565b6000908152600f6020526040902060090154600160a81b900460ff1690565b60066020526000908152604090205460ff1681565b6000546001600160a01b03163314611d0a5760405162461bcd60e51b815260040161097a9061414c565b6001600160a01b03811660009081526009602052604090205460ff16611d425760405162461bcd60e51b815260040161097a9061401a565b6001600160a01b03811660009081526009602090815260408220805460ff1916905560018252600890526000805160206146f283398151915254905b81811015611f1657600160005260086020526000805160206146f283398151915280546001600160a01b038516919083908110611dcb57634e487b7160e01b600052603260045260246000fd5b6000918252602090912001546001600160a01b03161415611f04576001600081905260086020526000805160206146f283398151915290611e0c9084614603565b81548110611e2a57634e487b7160e01b600052603260045260246000fd5b60009182526020808320909101546001909252600890526000805160206146f283398151915280546001600160a01b039092169183908110611e7c57634e487b7160e01b600052603260045260246000fd5b600091825260208083209190910180546001600160a01b0319166001600160a01b03949094169390931790925560019052600890526000805160206146f2833981519152805480611edd57634e487b7160e01b600052603160045260246000fd5b600082815260209020810160001990810180546001600160a01b0319169055019055611f16565b80611f0e81614655565b915050611d7e565b505050565b60045481565b601560209081526000928352604080842090915290825290205460ff1681565b600080805b600254811015610c51576000600b81611f608460016145ac565b815260208082019290925260409081016000908120546001600160a01b0316808252600a909352206007015490915060ff16611fa45782611fa081614655565b9350505b5080611faf81614655565b915050611f46565b600080805b600254811015610c51576000600b81611fd68460016145ac565b815260208082019290925260409081016000908120546001600160a01b0316808252600a909352206007015490915060ff161561201b578261201781614655565b9350505b508061202681614655565b915050611fbc565b60015481565b61203d33612a4d565b6120595760405162461bcd60e51b815260040161097a906142c4565b6000818152600f6020526040902060090154600160a81b900460ff16156120925760405162461bcd60e51b815260040161097a9061430a565b604051339082907f7c557f0ad60bff2708eadd0f87c51ff048f5779dd283cc4b208fae0a6c2eee3f90600090a36000818152600f602090815260408083206009015461010090046001600160a01b0316808452600e909252822090915b81548110156121dc578382828154811061211957634e487b7160e01b600052603260045260246000fd5b906000526020600020015414156121ca578154829061213a90600190614603565b8154811061215857634e487b7160e01b600052603260045260246000fd5b906000526020600020015482828154811061218357634e487b7160e01b600052603260045260246000fd5b9060005260206000200181905550818054806121af57634e487b7160e01b600052603160045260246000fd5b600190038181906000526020600020016000905590556121dc565b806121d481614655565b9150506120ef565b506001600090815260136020526000805160206146d2833981519152905b81548110156122e7578482828154811061222457634e487b7160e01b600052603260045260246000fd5b906000526020600020015414156122d5578154829061224590600190614603565b8154811061226357634e487b7160e01b600052603260045260246000fd5b906000526020600020015482828154811061228e57634e487b7160e01b600052603260045260246000fd5b9060005260206000200181905550818054806122ba57634e487b7160e01b600052603160045260246000fd5b600190038181906000526020600020016000905590556122e7565b806122df81614655565b9150506121fa565b506000848152600f60205260408120818155600181018290559061230e60028301826139de565b600382016000905560048201600061232691906139de565b600582016000905560068201600061233e91906139de565b61234c6007830160006139de565b61235a6008830160006139de565b5060090180546001600160b01b031916905550505050565b33600090815260126020908152604091829020805483518184028101840190945280845260609392830182828015610bf85760200282019190600052602060002090815481526020019060010190808311610be4575050505050905090565b6001600052601460209081527fb6c61a840592cc84133e4b25bd509abf4659307c57b160799b38490a5aa48f2c8054604080518285028101850190915281815260609390929190830182828015610bf85760200282019190600052602060002090815481526020019060010190808311610be4575050505050905090565b6001600160a01b03166000908152600a602052604090206007015460ff1690565b6010602052600090815260409020805460018201546002830154600384015460048501805494956001600160a01b0394851695939094169391926124b39061461a565b80601f01602080910402602001604051908101604052809291908181526020018280546124df9061461a565b801561252c5780601f106125015761010080835404028352916020019161252c565b820191906000526020600020905b81548152906001019060200180831161250f57829003601f168201915b5050506005909301549192505060ff8082169161010090041687565b6000818152600f602052604090206009015461010090046001600160a01b0316331461257357600080fd5b6000908152600f60205260409020600901805460ff19166001179055565b6001600160a01b0381166000908152600e6020908152604091829020805483518184028101840190945280845260609392830182828015611a8c57602002820191906000526020600020905b8154815260200190600101908083116125dd5750505050509050919050565b6001600052600860209081526000805160206146f28339815191528054604080518285028101850190915281815260609390929190830182828015610bf8576020028201919060005260206000209081546001600160a01b031681526001909101906020018083116115e5575050505050905090565b600a60205260009081526040902080546001820180546001600160a01b03909216929161269e9061461a565b80601f01602080910402602001604051908101604052809291908181526020018280546126ca9061461a565b80156127175780601f106126ec57610100808354040283529160200191612717565b820191906000526020600020905b8154815290600101906020018083116126fa57829003601f168201915b5050505050908060020154908060030180546127329061461a565b80601f016020809104026020016040519081016040528092919081815260200182805461275e9061461a565b80156127ab5780601f10612780576101008083540402835291602001916127ab565b820191906000526020600020905b81548152906001019060200180831161278e57829003601f168201915b5050505050908060040180546127c09061461a565b80601f01602080910402602001604051908101604052809291908181526020018280546127ec9061461a565b80156128395780601f1061280e57610100808354040283529160200191612839565b820191906000526020600020905b81548152906001019060200180831161281c57829003601f168201915b50505050509080600501805461284e9061461a565b80601f016020809104026020016040519081016040528092919081815260200182805461287a9061461a565b80156128c75780601f1061289c576101008083540402835291602001916128c7565b820191906000526020600020905b8154815290600101906020018083116128aa57829003601f168201915b5050505050908060060180546128dc9061461a565b80601f01602080910402602001604051908101604052809291908181526020018280546129089061461a565b80156129555780601f1061292a57610100808354040283529160200191612955565b820191906000526020600020905b81548152906001019060200180831161293857829003601f168201915b5050506007840154600885018054949560ff9092169491935091506129799061461a565b80601f01602080910402602001604051908101604052809291908181526020018280546129a59061461a565b80156129f25780601f106129c7576101008083540402835291602001916129f2565b820191906000526020600020905b8154815290600101906020018083116129d557829003601f168201915b5050505050905089565b6000908152600f602052604090206003015490565b600090815260106020526040902060050154610100900460ff1690565b600080546001600160a01b03838116911614156109e2575060016109e6565b6001600160a01b03811660009081526009602052604081205460ff16156109e2575060016109e6565b600f6020526000908152604090208054600182015460028301805492939192612a9e9061461a565b80601f0160208091040260200160405190810160405280929190818152602001828054612aca9061461a565b8015612b175780601f10612aec57610100808354040283529160200191612b17565b820191906000526020600020905b815481529060010190602001808311612afa57829003601f168201915b505050505090806003015490806004018054612b329061461a565b80601f0160208091040260200160405190810160405280929190818152602001828054612b5e9061461a565b8015612bab5780601f10612b8057610100808354040283529160200191612bab565b820191906000526020600020905b815481529060010190602001808311612b8e57829003601f168201915b505050505090806005015490806006018054612bc69061461a565b80601f0160208091040260200160405190810160405280929190818152602001828054612bf29061461a565b8015612c3f5780601f10612c1457610100808354040283529160200191612c3f565b820191906000526020600020905b815481529060010190602001808311612c2257829003601f168201915b505050505090806007018054612c549061461a565b80601f0160208091040260200160405190810160405280929190818152602001828054612c809061461a565b8015612ccd5780601f10612ca257610100808354040283529160200191612ccd565b820191906000526020600020905b815481529060010190602001808311612cb057829003601f168201915b505050505090806008018054612ce29061461a565b80601f0160208091040260200160405190810160405280929190818152602001828054612d0e9061461a565b8015612d5b5780601f10612d3057610100808354040283529160200191612d5b565b820191906000526020600020905b815481529060010190602001808311612d3e57829003601f168201915b5050506009909301549192505060ff808216916001600160a01b0361010082041691600160a81b909104168c565b6000818152600f602052604090206009015461010090046001600160a01b03163314612dc75760405162461bcd60e51b815260040161097a9061427d565b6000818152600f602052604090206009015460ff161515600114612dfd5760405162461bcd60e51b815260040161097a90614183565b6000805b33600090815260116020526040902054811015612ece57336000908152601160205260408120805483908110612e4757634e487b7160e01b600052603260045260246000fd5b90600052602060002001549050836010600083815260200190815260200160002060030154148015612eac5750600360008281526010602052604090206005015460ff166004811115612eaa57634e487b7160e01b600052602160045260246000fd5b145b15612ebb576001925050612ece565b5080612ec681614655565b915050612e01565b508015612eed5760405162461bcd60e51b815260040161097a90614341565b6001600090815260136020526000805160206146d283398151915254905b8181101561305c57600160005260136020526000805160206146d2833981519152805485919083908110612f4f57634e487b7160e01b600052603260045260246000fd5b9060005260206000200154141561304a576001600081905260136020526000805160206146d283398151915290612f869084614603565b81548110612fa457634e487b7160e01b600052603260045260246000fd5b60009182526020808320909101546001909252601390526000805160206146d2833981519152805483908110612fea57634e487b7160e01b600052603260045260246000fd5b600091825260208083209091019290925560019052601390526000805160206146d283398151915280548061302f57634e487b7160e01b600052603160045260246000fd5b6001900381819060005260206000200160009055905561305c565b8061305481614655565b915050612f0b565b50506000828152600f60209081526040808320600901805460ff191690553383526012909152812054905b8181101561314a573360009081526012602052604081208054839081106130be57634e487b7160e01b600052603260045260246000fd5b906000526020600020015490508460106000838152602001908152602001600020600301541415613137576000908152601060209081526040808320600581018054600260ff1991821681179092559101546001600160a01b03168452601583528184208885529092529091208054909116905561314a565b508061314281614655565b915050613087565b505033600090815260116020526040812054905b818110156132215733600090815260116020526040812080548390811061319557634e487b7160e01b600052603260045260246000fd5b90600052602060002001549050846010600083815260200190815260200160002060030154141561320e576000908152601060209081526040808320600581018054600260ff1991821681179092559101546001600160a01b031684526015835281842088855290925290912080549091169055613221565b508061321981614655565b91505061315e565b50505050565b61323033612a4d565b1561324d5760405162461bcd60e51b815260040161097a90614106565b336000908152600d602052604090205460ff1615156001141561326f57613449565b336000908152600660209081526040808320805460ff19908116909155600d90925282208054909116600117905560028054916132ab83614655565b90915550506000805160206146b2833981519152805460018082019092557f316d947374d71758e457e80486787a2c828942c59266cc0c2fb7ed856b0e118d018054336001600160a01b031991821681179092556002546000908152600b6020908152604080832080548516861790558051610120810182528581528083018e81528183018e9052606082018d9052608082018c905260a082018b905260c0820189905260e0820185905261010082018a9052958452600a83529220825181549094166001600160a01b0390941693909317835592518051919492936133969385019291019061395a565b5060408201516002820155606082015180516133bc91600384019160209091019061395a565b50608082015180516133d891600484019160209091019061395a565b5060a082015180516133f491600584019160209091019061395a565b5060c0820151805161341091600684019160209091019061395a565b5060e082015160078201805460ff1916911515919091179055610100820151805161344591600884019160209091019061395a565b5050505b50505050505050565b60055490565b6000818152601060205260409020600201546001600160a01b0316331480156134b45750600160008281526010602052604090206005015460ff1660048111156134b257634e487b7160e01b600052602160045260246000fd5b145b80156134dc57506000818152601060205260409020600101546001600160a01b038381169116145b8015613509575060008181526010602090815260408083206003908101548452600f909252909120015434145b1561030a5760008181526010602090815260408083206005018054600360ff199091161761ff00191661010017905560149091527fb6c61a840592cc84133e4b25bd509abf4659307c57b160799b38490a5aa48f2c80546001810182559083527f2fdc54bebe143af21bc9f7874666206c3383b1c51a1a7063fa557c077952093e01839055516001600160a01b038416913480156108fc02929091818181858888f193505050501580156135c1573d6000803e3d6000fd5b5060008181526010602090815260408083206003908101548452600f90925291829020015490516001600160a01b0384169133917f46661dab58311a6838247afecbee792192b4f27fc8b3e7168c66bc55ec2e404e916136229134906144e8565b60405180910390a36109a9565b61363833612a4d565b61364157600080fd5b6000908152600f60205260409020600901805460ff60a81b1916600160a81b179055565b600061367033612a4d565b61367957600080fd5b600083815260106020526040902060050154610100900460ff1661369f57506000613936565b600480549060006136af83614655565b9091555050600083815260106020908152604080832060058101805460ff1916600417905560028101546001600160a01b039081168552600e84528285206003830154815460018181018455928852958720909501949094559201549091168252812054905b8181101561389c57600085815260106020908152604080832060038101546001909101546001600160a01b03168452600e90925290912080548390811061376c57634e487b7160e01b600052603260045260246000fd5b9060005260206000200154141561388a5760008581526010602090815260408083206001908101546001600160a01b03168452600e909252909120906137b29084614603565b815481106137d057634e487b7160e01b600052603260045260246000fd5b6000918252602080832090910154878352601082526040808420600101546001600160a01b03168452600e909252912080548390811061382057634e487b7160e01b600052603260045260246000fd5b6000918252602080832090910192909255868152601082526040808220600101546001600160a01b03168252600e9092522080548061386f57634e487b7160e01b600052603160045260246000fd5b6001900381819060005260206000200160009055905561389c565b8061389481614655565b915050613715565b506000848152601060209081526040808320600301548352600f825290912084516138cf9260079092019186019061395a565b50505060008281526010602090815260408083206003810180548552600f9093528184206009908101805460ff1916905560029091015492548452922090910180546001600160a01b0390921661010002610100600160a81b031990921691909117905560015b92915050565b6001600160a01b031660009081526006602052604090205460ff1690565b8280546139669061461a565b90600052602060002090601f01602090048101928261398857600085556139ce565b82601f106139a157805160ff19168380011785556139ce565b828001600101855582156139ce579182015b828111156139ce5782518255916020019190600101906139b3565b506139da929150613a37565b5090565b5080546139ea9061461a565b6000825580601f106139fc5750613a1a565b601f016020900490600052602060002090810190613a1a9190613a37565b50565b5080546000825590600052602060002090810190613a1a91905b5b808211156139da5760008155600101613a38565b600082601f830112613a5c578081fd5b813567ffffffffffffffff80821115613a7757613a77614686565b604051601f8301601f191681016020018281118282101715613a9b57613a9b614686565b604052828152848301602001861015613ab2578384fd5b82602086016020830137918201602001929092529392505050565b600060208284031215613ade578081fd5b8135613ae98161469c565b9392505050565b60008060408385031215613b02578081fd5b8235613b0d8161469c565b946020939093013593505050565b60008060008060008060c08789031215613b33578182fd5b8635613b3e8161469c565b9550602087013567ffffffffffffffff80821115613b5a578384fd5b613b668a838b01613a4c565b965060408901359550606089013594506080890135915080821115613b89578384fd5b613b958a838b01613a4c565b935060a0890135915080821115613baa578283fd5b50613bb789828a01613a4c565b9150509295509295509295565b60008060408385031215613b02578182fd5b600060208284031215613be7578081fd5b813567ffffffffffffffff811115613bfd578182fd5b613c0984828501613a4c565b949350505050565b600080600080600080600060e0888a031215613c2b578081fd5b873567ffffffffffffffff80821115613c42578283fd5b613c4e8b838c01613a4c565b985060208a0135975060408a0135915080821115613c6a578283fd5b613c768b838c01613a4c565b965060608a0135915080821115613c8b578283fd5b613c978b838c01613a4c565b955060808a0135915080821115613cac578283fd5b613cb88b838c01613a4c565b945060a08a0135915080821115613ccd578283fd5b613cd98b838c01613a4c565b935060c08a0135915080821115613cee578283fd5b50613cfb8a828b01613a4c565b91505092959891949750929550565b600060208284031215613d1b578081fd5b5035919050565b60008060408385031215613d34578182fd5b82359150602083013567ffffffffffffffff811115613d51578182fd5b613d5d85828601613a4c565b9150509250929050565b600080600080600080600080610100898b031215613d83578081fd5b88359750602089013567ffffffffffffffff80821115613da1578283fd5b613dad8c838d01613a4c565b985060408b0135975060608b0135915080821115613dc9578283fd5b613dd58c838d01613a4c565b965060808b0135955060a08b0135915080821115613df1578283fd5b613dfd8c838d01613a4c565b945060c08b0135915080821115613e12578283fd5b613e1e8c838d01613a4c565b935060e08b0135915080821115613e33578283fd5b50613e408b828c01613a4c565b9150509295985092959890939650565b60008060408385031215613e62578182fd5b50508035926020909101359150565b6001600160a01b03169052565b15159052565b60008151808452815b81811015613ea957602081850181015186830182015201613e8d565b81811115613eba5782602083870101525b50601f01601f19169290920160200192915050565b6001600160a01b038a16815261012060208201819052600090613ef48382018c613e84565b90508960408401528281036060840152613f0e818a613e84565b90508281036080840152613f228189613e84565b905082810360a0840152613f368188613e84565b905082810360c0840152613f4a8187613e84565b905084151560e0840152828103610100840152613f678185613e84565b9c9b505050505050505050505050565b6020808252825182820181905260009190848201906040850190845b81811015613fb85783516001600160a01b031683529284019291840191600101613f93565b50909695505050505050565b6020808252825182820181905260009190848201906040850190845b81811015613fb857835183529284019291840191600101613fe0565b901515815260200190565b600060208252613ae96020830184613e84565b60208082526018908201527f4c616e6420496e73706563746f72206e6f7420666f756e640000000000000000604082015260600190565b60208082526031908201527f5061796d656e7420616c726561647920646f6e6520666f722074686973206c616040820152701b990b0818d85b9b9bdd081c995a9958dd607a1b606082015260800190565b602080825260139082015272155cd95c881b9bdd081c9959da5cdd195c9959606a1b604082015260600190565b60208082526019908201527f796f7520617265206e6f7420636f6e74726163744f776e657200000000000000604082015260600190565b60208082526026908201527f4c616e6420696e73706563746f722063616e6e6f74207265676973746572206160408201526539903ab9b2b960d11b606082015260800190565b60208082526019908201527f596f7520617265206e6f7420636f6e74726163744f776e657200000000000000604082015260600190565b60208082526018908201527f546865206c616e64206973206e6f7420666f722073616c650000000000000000604082015260600190565b60208082526026908201527f55736572206e6f74207665726966696564206f72206c616e64206e6f742076656040820152651c9a599a595960d21b606082015260800190565b6020808252602e908201527f5265717565737420666f722074686973206c616e6420616c726561647920736560408201526d373a10313c903a3432903ab9b2b960911b606082015260800190565b602080825260159082015274151a1a5cc81d5cd95c881a5cc81c995a9958dd1959605a1b604082015260600190565b60208082526027908201527f4f6e6c7920746865206c616e64206f776e65722063616e2063616e63656c207460408201526668652073616c6560c81b606082015260800190565b60208082526026908201527f4f6e6c79206c616e6420696e73706563746f72732063616e2072656a6563742060408201526518481b185b9960d21b606082015260800190565b60208082526018908201527f4c616e6420697320616c72656164792076657269666965640000000000000000604082015260600190565b60208082526031908201527f5061796d656e7420616c726561647920646f6e6520666f722074686973206c616040820152701b990b0818d85b9b9bdd0818d85b98d95b607a1b606082015260800190565b6020808252600b908201526a4e6577206164647265737360a81b604082015260600190565b6020808252602b908201527f4c616e642068617320612061636365707465642072657175657374206f72207060408201526a61796d656e7420646f6e6560a81b606082015260800190565b90815260200190565b8781526001600160a01b038781166020830152861660408201526060810185905260e06080820181905260009061444490830186613e84565b90506005841061446457634e487b7160e01b600052602160045260246000fd5b8360a083015282151560c083015298975050505050505050565b8781526001600160a01b038716602082015260e0604082018190526000906144a890830188613e84565b86606084015285608084015282810360a08401526144c68186613e84565b905082810360c08401526144da8185613e84565b9a9950505050505050505050565b918252602082015260400190565b60006101808e83528d60208401528060408401526145168184018e613e84565b90508b60608401528281036080840152614530818c613e84565b90508960a084015282810360c084015261454a818a613e84565b905082810360e084015261455e8189613e84565b90508281036101008401526145738188613e84565b91505084151561012083015261458d610140830185613e71565b61459b610160830184613e7e565b9d9c50505050505050505050505050565b600082198211156145bf576145bf614670565b500190565b6000826145df57634e487b7160e01b81526012600452602481fd5b500490565b60008160001904831182151516156145fe576145fe614670565b500290565b60008282101561461557614615614670565b500390565b60028104600182168061462e57607f821691505b6020821081141561464f57634e487b7160e01b600052602260045260246000fd5b50919050565b600060001982141561466957614669614670565b5060010190565b634e487b7160e01b600052601160045260246000fd5b634e487b7160e01b600052604160045260246000fd5b6001600160a01b0381168114613a1a57600080fdfed421a5181c571bba3f01190c922c3b2a896fc1d84e86c9f17ac10e67ebef8b5c4155c2f711f2cdd34f8262ab8fb9b7020a700fe7b6948222152f7670d1fdf34dad67d757c34507f157cacfa2e3153e9f260a2244f30428821be7be64587ac55fa2646970667358221220fa62795442c0db0fd09c7ac2d58386b2e0a254bdbd74b8ed4c51acb43f334c4664736f6c63430008000033",
  "linkReferences": {},
  "deployedLinkReferences": {}
}